{
  "contracts/Ballots.sol": {
    "Ballots": {
      "abi": [
        {
          "inputs": [],
          "stateMutability": "nonpayable",
          "type": "constructor"
        },
        {
          "inputs": [
            {
              "internalType": "uint256",
              "name": "",
              "type": "uint256"
            }
          ],
          "name": "ballots",
          "outputs": [
            {
              "internalType": "uint256",
              "name": "fund",
              "type": "uint256"
            },
            {
              "internalType": "uint256",
              "name": "created",
              "type": "uint256"
            },
            {
              "internalType": "bool",
              "name": "isCompleted",
              "type": "bool"
            },
            {
              "internalType": "uint256",
              "name": "winnerScore",
              "type": "uint256"
            }
          ],
          "stateMutability": "view",
          "type": "function"
        },
        {
          "inputs": [
            {
              "internalType": "uint256",
              "name": "ballotID",
              "type": "uint256"
            }
          ],
          "name": "completeBallot",
          "outputs": [],
          "stateMutability": "nonpayable",
          "type": "function"
        },
        {
          "inputs": [
            {
              "internalType": "address[]",
              "name": "proposalAddrs",
              "type": "address[]"
            }
          ],
          "name": "createBallot",
          "outputs": [],
          "stateMutability": "nonpayable",
          "type": "function"
        },
        {
          "inputs": [
            {
              "internalType": "uint256",
              "name": "ballotID",
              "type": "uint256"
            }
          ],
          "name": "getBallotInfo",
          "outputs": [
            {
              "components": [
                {
                  "internalType": "address[]",
                  "name": "proposals",
                  "type": "address[]"
                },
                {
                  "internalType": "uint256[]",
                  "name": "scores",
                  "type": "uint256[]"
                },
                {
                  "internalType": "uint256",
                  "name": "fund",
                  "type": "uint256"
                },
                {
                  "internalType": "uint256",
                  "name": "created",
                  "type": "uint256"
                },
                {
                  "internalType": "bool",
                  "name": "isCompleted",
                  "type": "bool"
                },
                {
                  "internalType": "uint256",
                  "name": "winnerScore",
                  "type": "uint256"
                },
                {
                  "internalType": "uint256[]",
                  "name": "winnerIndexes",
                  "type": "uint256[]"
                }
              ],
              "internalType": "struct Ballots.Ballot",
              "name": "",
              "type": "tuple"
            }
          ],
          "stateMutability": "view",
          "type": "function"
        },
        {
          "inputs": [
            {
              "internalType": "address",
              "name": "voterAddr",
              "type": "address"
            },
            {
              "internalType": "uint256",
              "name": "ballotID",
              "type": "uint256"
            }
          ],
          "name": "getVoterBallotVote",
          "outputs": [
            {
              "internalType": "address",
              "name": "",
              "type": "address"
            }
          ],
          "stateMutability": "view",
          "type": "function"
        },
        {
          "inputs": [],
          "name": "owner",
          "outputs": [
            {
              "internalType": "address",
              "name": "",
              "type": "address"
            }
          ],
          "stateMutability": "view",
          "type": "function"
        },
        {
          "inputs": [
            {
              "internalType": "uint256",
              "name": "ballotID",
              "type": "uint256"
            },
            {
              "internalType": "address",
              "name": "proposalAddr",
              "type": "address"
            }
          ],
          "name": "vote",
          "outputs": [],
          "stateMutability": "payable",
          "type": "function"
        },
        {
          "inputs": [
            {
              "internalType": "address",
              "name": "",
              "type": "address"
            },
            {
              "internalType": "uint256",
              "name": "",
              "type": "uint256"
            }
          ],
          "name": "voted",
          "outputs": [
            {
              "internalType": "address",
              "name": "",
              "type": "address"
            }
          ],
          "stateMutability": "view",
          "type": "function"
        },
        {
          "inputs": [
            {
              "internalType": "uint256",
              "name": "ballotID",
              "type": "uint256"
            }
          ],
          "name": "withdrawFee",
          "outputs": [],
          "stateMutability": "nonpayable",
          "type": "function"
        }
      ],
      "evm": {
        "bytecode": {
          "linkReferences": {},
          "object": "6080604052600a600155662386f26fc100006002553480156200002157600080fd5b50620000567f71ca803d038752c1c54f1074ba4a560bf2cbeb61e1d0e46d47308d6ce2aa52c660001b6200010460201b60201c565b6200008a7f6894e0322d03f7258473dec6cd5da147b2649e394e5d43dcaaf7f4d54c81c17660001b6200010460201b60201c565b620000be7f17dee0ff3abd2100a72baa0d6919891b9157a60fa6fdc33413c34445bc54de7060001b6200010460201b60201c565b336000806101000a81548173ffffffffffffffffffffffffffffffffffffffff021916908373ffffffffffffffffffffffffffffffffffffffff16021790555062000107565b50565b613d2b80620001176000396000f3fe6080604052600436106100865760003560e01c8063481143a711610059578063481143a71461014a5780635c632b38146101735780638da5cb5b146101b3578063be357616146101de578063c591aa981461020757610086565b806302d947ef1461008b5780630bf6eee8146100a7578063141bd92a146100e45780633b2341cf14610121575b600080fd5b6100a560048036038101906100a091906132c2565b610244565b005b3480156100b357600080fd5b506100ce60048036038101906100c9919061321c565b611124565b6040516100db9190613812565b60405180910390f35b3480156100f057600080fd5b5061010b60048036038101906101069190613299565b611386565b604051610118919061394d565b60405180910390f35b34801561012d57600080fd5b5061014860048036038101906101439190613258565b611711565b005b34801561015657600080fd5b50610171600480360381019061016c9190613299565b611c58565b005b34801561017f57600080fd5b5061019a60048036038101906101959190613299565b612659565b6040516101aa949392919061396f565b60405180910390f35b3480156101bf57600080fd5b506101c8612696565b6040516101d59190613812565b60405180910390f35b3480156101ea57600080fd5b5061020560048036038101906102009190613299565b6126ba565b005b34801561021357600080fd5b5061022e6004803603810190610229919061321c565b612c3e565b60405161023b9190613812565b60405180910390f35b816102717fc148e1bfa2681c9499977b8a8fad7dfe59365bcd8d7c5a165dccaa56a6de132c60001b612c80565b61029d7f676f97cafa9f6ad2e4b11a4cb795c78d7bf773f0f6cfb6051ec0262d312db51660001b612c80565b6102c97f1203730eb8a51b45afab71ee436ad36cb83c9d64856cb57e9ad32750e763d60060001b612c80565b6102f57f45ee78d7de8466d1bd41bd9eb80e924bd1df6b2f11b70a16d86c4ff9165f88d760001b612c80565b600060046000838152602001908152602001600020600301541161034e576040517f08c379a00000000000000000000000000000000000000000000000000000000081526004016103459061388d565b60405180910390fd5b61037a7fdbc47415daa014fe812db0ffafa2a772a588ed59475bf2d0ffdf017cc691a8fe60001b612c80565b6103a67f874d2511f3e997dffaa2df51735e901fbd270b4b2e28a9e8f6bd7b93ec3c0f9060001b612c80565b6103d27f22f92e2cd419999484c80cb333a7534a83ef5d8175af1de957749c790483d77560001b612c80565b6103fe7f1662d70d9877099dea7274ff5e5e788e2b290dc2dcc4c4c1bb5486f457a0c96260001b612c80565b61042a7f41d7e9d5dc41cc68ae789f351e45f1e983d1865602665b76f65991c9171e06cc60001b612c80565b6000600460008581526020019081526020016000206040518060e0016040529081600082018054806020026020016040519081016040528092919081815260200182805480156104cf57602002820191906000526020600020905b8160009054906101000a900473ffffffffffffffffffffffffffffffffffffffff1673ffffffffffffffffffffffffffffffffffffffff1681526020019060010190808311610485575b505050505081526020016001820180548060200260200160405190810160405280929190818152602001828054801561052757602002820191906000526020600020905b815481526020019060010190808311610513575b5050505050815260200160028201548152602001600382015481526020016004820160009054906101000a900460ff1615151515815260200160058201548152602001600682018054806020026020016040519081016040528092919081815260200182805480156105b857602002820191906000526020600020905b8154815260200190600101908083116105a4575b50505050508152505090506105ef7f48fa6db0e2604834a57b6ef922326a2303909b58b47f289412dbbd5063e4e1fc60001b612c80565b61061b7f171b5d0b181490c46b4c0f280deb61dd1a630899c318928699915c4c70d048a060001b612c80565b6106477f71842631a927e5d4795d288a209ca53e43627366b0c366a7e3ae0aea4972a1d660001b612c80565b80608001511561068c576040517f08c379a0000000000000000000000000000000000000000000000000000000008152600401610683906138cd565b60405180910390fd5b6106b87fa1af8dd4edc076f79b89fbbb693a79d6e96a10c156a46cc0b260557f0c9f6f5060001b612c80565b6106e47f1229529b4902bfe611db22c1f434d56c5473851fdbb0d61cb228eacf200fe6e360001b612c80565b6107107f01cdf89d16039b9257f5757245d536f5222ca27aaf6fa0dbb9a1cece37c57d0760001b612c80565b61073c7fdb032ae7a741a752d561c309dd98c5c4fa0b4972b0f001a6d08a384c8b8bb0b560001b612c80565b6002543414610780576040517f08c379a00000000000000000000000000000000000000000000000000000000081526004016107779061384d565b60405180910390fd5b6107ac7f21ec491d983ef2499a1029d26e95214591d5a7f2aee90517c96ea9494b83e02b60001b612c80565b6107d87fddbc7ef655b4b97da1cf5f8c5243e57dac502b879f661c85cb4a294856e69e5c60001b612c80565b6108047f31f511f9875d42620a69ed53ba7a9d44fae2e3f189bc0981cf72710068ca31c360001b612c80565b6108307fd5dd39e2220ae52bdbc880a47cb5e3f9f10521aea3bb75dfc83fcd3849cabed560001b612c80565b600073ffffffffffffffffffffffffffffffffffffffff16600360003373ffffffffffffffffffffffffffffffffffffffff1673ffffffffffffffffffffffffffffffffffffffff168152602001908152602001600020600086815260200190815260200160002060009054906101000a900473ffffffffffffffffffffffffffffffffffffffff1673ffffffffffffffffffffffffffffffffffffffff161461090f576040517f08c379a00000000000000000000000000000000000000000000000000000000081526004016109069061390d565b60405180910390fd5b61093b7f7926e9a07fb510dc7361df74b0eb1b795b52b6f37b109f8448f0329a72321ec960001b612c80565b6109677fb698405466252ba9a487525da43f41eff4cfadae3effdf641b0eda9ff9b5fc4d60001b612c80565b6109937f03c81ca77b89bc3931f9e318c52d0d91847f94cedc1d85ca0d937072bfcf153160001b612c80565b600061099f8585612c83565b90506109cd7f2ed4f089efb850f1c6766ae6f0cc034e03f7af4da910a70899033ff9f416c83f60001b612c80565b6109f97f688fa9604f9ba58aec5581ecf822d4abd83986412ae87b6fc2363190f4c0860160001b612c80565b610a257fa7b8987d2d5281ccf59bfa5ba3f5167db49b329617434b183967d515bca9768860001b612c80565b7fffffffffffffffffffffffffffffffffffffffffffffffffffffffffffffffff811415610a88576040517f08c379a0000000000000000000000000000000000000000000000000000000008152600401610a7f9061386d565b60405180910390fd5b610ab47fe86bc7ba7d20a53ec24229ea4ae584796683094a5f84dcfa9b3fd6b53bbca0b860001b612c80565b610ae07f39489cbb22167c4b7a3efde910065360d7be94ccec4118edebc22ccbc66cb9d460001b612c80565b610b0c7f1a2d728aa46805068ba37a024a7cd578983f92f5363889ea9625bce32fd6ae5260001b612c80565b600254600460008781526020019081526020016000206002016000828254610b349190613a94565b92505081905550610b677f299f1b50c4cfd2d528a7244731820f84cb41cdb1d924009c77c0d923abd40def60001b612c80565b610b937ffb9786ec1c223005bcb2b68f79f627797643da0e48eff42811b3e556c46679cf60001b612c80565b6001600460008781526020019081526020016000206001018281548110610be3577f4e487b7100000000000000000000000000000000000000000000000000000000600052603260045260246000fd5b906000526020600020016000828254610bfc9190613a94565b92505081905550610c2f7fc3657cbd43446045fa75ec3c1e8b152b69a6901ccfcfe35373e3de6b24cfe91560001b612c80565b610c5b7f0e2d23c08f259fbedca4bdc6fb467b08bf6cfe277d60a47435a3eb1f45508cf560001b612c80565b6000600460008781526020019081526020016000206001018281548110610cab577f4e487b7100000000000000000000000000000000000000000000000000000000600052603260045260246000fd5b90600052602060002001549050610ce47fc90a694adae1b48797c98a03758ea41423fad0b378d20f6b97041e38867fdb2f60001b612c80565b610d107f437d7fea4785354ce43c95eee035a94b43f5d46369d35879ba054998285c280160001b612c80565b8260a00151811061100857610d477f4efb6056c18820b450bf93d53ed474c31b39a61be85225b2513f99effbdabc2c60001b612c80565b610d737f1338eefdecc633b8b2679f453517c59d9fd3a0bbf04ab168e1faba6daeefc72b60001b612c80565b610d9f7ffc8036d63b0de0fe6eb0f8f0c5f2cdbbdc7f100dcada7f50813ef62f4fc7dc8260001b612c80565b8260a00151811115610f4157610dd77f167e9660efc2c54f9bee1408b484477bfb52c041fa32f11df9c8780cabf8b90060001b612c80565b610e037f452822aed699821b55d2f621c1fc900085945bd82f65c24d6d45e04e524ff63b60001b612c80565b610e2f7f1f2ad402370a355bf2d4c0296334914d83dab11803d774de78f57fb567f6509760001b612c80565b600067ffffffffffffffff811115610e70577f4e487b7100000000000000000000000000000000000000000000000000000000600052604160045260246000fd5b604051908082528060200260200182016040528015610e9e5781602001602082028036833780820191505090505b50600460008881526020019081526020016000206006019080519060200190610ec8929190613029565b50610ef57f7e64f2801491df314115b780734ceacd29b141ee03ab9d1ba159f6f677e0607c60001b612c80565b610f217f2aaa60285e385f1ccf24d07c94e70f77c768e73f728bbb0c8ede96e8b3d0472360001b612c80565b806004600088815260200190815260200160002060050181905550610f6e565b610f6d7fec273e105aa0cfe75806fc30ad31cd5bfae048bdaa9ba938e51c03e36d9b08cf60001b612c80565b5b610f9a7f7a966d0b2a85bd7c1ad03717ecdbd85c33bd4bebc52928d666d19a9a99fe008960001b612c80565b610fc67fddd4445b943a50d271c945a421f580af485a6b9af58a2329586615a661d4231b60001b612c80565b60046000878152602001908152602001600020600601829080600181540180825580915050600190039060005260206000200160009091909190915055611035565b6110347f9763eac277753a21dd777eb1ce3f770e6ed316f678e8be70adc4f86a4f2c55b460001b612c80565b5b6110617f250d77e7ceec39928a327c28b163b48c52917f46233442f5e7ba5b2d88e2a08a60001b612c80565b61108d7f02c9d991e18ab07d8375569a0fc79133f439e45e6df2b01a56d1fe796c1020e560001b612c80565b84600360003373ffffffffffffffffffffffffffffffffffffffff1673ffffffffffffffffffffffffffffffffffffffff168152602001908152602001600020600088815260200190815260200160002060006101000a81548173ffffffffffffffffffffffffffffffffffffffff021916908373ffffffffffffffffffffffffffffffffffffffff160217905550505050505050565b6000816111537fc148e1bfa2681c9499977b8a8fad7dfe59365bcd8d7c5a165dccaa56a6de132c60001b612c80565b61117f7f676f97cafa9f6ad2e4b11a4cb795c78d7bf773f0f6cfb6051ec0262d312db51660001b612c80565b6111ab7f1203730eb8a51b45afab71ee436ad36cb83c9d64856cb57e9ad32750e763d60060001b612c80565b6111d77f45ee78d7de8466d1bd41bd9eb80e924bd1df6b2f11b70a16d86c4ff9165f88d760001b612c80565b6000600460008381526020019081526020016000206003015411611230576040517f08c379a00000000000000000000000000000000000000000000000000000000081526004016112279061388d565b60405180910390fd5b61125c7fdbc47415daa014fe812db0ffafa2a772a588ed59475bf2d0ffdf017cc691a8fe60001b612c80565b6112887f874d2511f3e997dffaa2df51735e901fbd270b4b2e28a9e8f6bd7b93ec3c0f9060001b612c80565b6112b47f4e5f40c436f0c05c8d1d3cef669bb7fe28f3823ae1b81a0d98000c7a0a92429a60001b612c80565b6112e07fe41a2efb1307ed15528bfe221a251651f839949088b2a762bcea591e70c27ea860001b612c80565b61130c7f2adac983f43c644d982981676d93c4726fb766a796e295c9df867256c23173e860001b612c80565b600360008573ffffffffffffffffffffffffffffffffffffffff1673ffffffffffffffffffffffffffffffffffffffff168152602001908152602001600020600084815260200190815260200160002060009054906101000a900473ffffffffffffffffffffffffffffffffffffffff1691505092915050565b61138e613076565b816113bb7fc148e1bfa2681c9499977b8a8fad7dfe59365bcd8d7c5a165dccaa56a6de132c60001b612c80565b6113e77f676f97cafa9f6ad2e4b11a4cb795c78d7bf773f0f6cfb6051ec0262d312db51660001b612c80565b6114137f1203730eb8a51b45afab71ee436ad36cb83c9d64856cb57e9ad32750e763d60060001b612c80565b61143f7f45ee78d7de8466d1bd41bd9eb80e924bd1df6b2f11b70a16d86c4ff9165f88d760001b612c80565b6000600460008381526020019081526020016000206003015411611498576040517f08c379a000000000000000000000000000000000000000000000000000000000815260040161148f9061388d565b60405180910390fd5b6114c47fdbc47415daa014fe812db0ffafa2a772a588ed59475bf2d0ffdf017cc691a8fe60001b612c80565b6114f07f874d2511f3e997dffaa2df51735e901fbd270b4b2e28a9e8f6bd7b93ec3c0f9060001b612c80565b61151c7f679573e349aa99b050098dc5ae6fef33bdef4f6a09b2e6fd073038300ae884db60001b612c80565b6115487f07616016e6a8bc38647058e7eb37135fb55c0cd859a001fce3cb5fd68443c78c60001b612c80565b6115747f514a5e7563815415685e507585e249f3d10f7c963939c73596de4fa1be7cff6960001b612c80565b600460008481526020019081526020016000206040518060e00160405290816000820180548060200260200160405190810160405280929190818152602001828054801561161757602002820191906000526020600020905b8160009054906101000a900473ffffffffffffffffffffffffffffffffffffffff1673ffffffffffffffffffffffffffffffffffffffff16815260200190600101908083116115cd575b505050505081526020016001820180548060200260200160405190810160405280929190818152602001828054801561166f57602002820191906000526020600020905b81548152602001906001019080831161165b575b5050505050815260200160028201548152602001600382015481526020016004820160009054906101000a900460ff16151515158152602001600582015481526020016006820180548060200260200160405190810160405280929190818152602001828054801561170057602002820191906000526020600020905b8154815260200190600101908083116116ec575b505050505081525050915050919050565b61173d7f1e9f658ad1fd58de831bb7943087615dd118675a0f6dd9ef2a27b517b9451acb60001b612c80565b6117697f941d3cb7593987cc0bbcda0b0bc55880402179975be93f603d14dbd1a47ce1a160001b612c80565b6117957f1d65e875bbd11fd8989e5f26cb40ef5a74912481db665867036b0c2cc007d6cb60001b612c80565b6117c17fd71943f7a30aa4461df4f8369b8e1d1f05455ee6d976ff454344ba80f57741ed60001b612c80565b60008054906101000a900473ffffffffffffffffffffffffffffffffffffffff1673ffffffffffffffffffffffffffffffffffffffff163373ffffffffffffffffffffffffffffffffffffffff161461184f576040517f08c379a0000000000000000000000000000000000000000000000000000000008152600401611846906138ad565b60405180910390fd5b61187b7f6eec500ab9a19a7d7827f4f2770b2352d9d34cfe5252090d93d3a3da69abd70960001b612c80565b6118a77f75305d5069df457386ec88ad6209ba65242b0d8eb15a7bb43b41eee4b69d815460001b612c80565b6118d37fab74aa254a73c90cd902676b8a3e4eb1bc296e14236d60dc3ebaa349fdebc64860001b612c80565b6118ff7f3a25a3efc98c9f2baedb99f53707072992f5d288e5fb1573f43524fa0d9c7a2b60001b612c80565b61192b7fc22e9ca7169fd7b5e2ff6ffacb097c4afd27a7d82e949a2b58fdd20dfea0f2df60001b612c80565b6119577f78010b05795712fe56d7645a576c1f921fc930ef1e2c5fb80fb073c3d9d6609660001b612c80565b60028151101561199c576040517f08c379a00000000000000000000000000000000000000000000000000000000081526004016119939061382d565b60405180910390fd5b6119c87f5996c9899dd5acd3e47a3e3c132c40810e243576d2fc52e4be2833c55a78ba1a60001b612c80565b6119f47fabd9974c7059dba7420c3d73f9c9758bc0cbf5e110e7ac4e3e80dd56006cf96460001b612c80565b611a207f5fd2e2b47e9d26648658612faa185887a57b850250911ff5ff0ed68a4c8e772e60001b612c80565b600060056000815480929190611a3590613bf1565b919050559050611a677fece02ebbccb27f725783d17ee6182ca9f5c5af5e5a26f3dba4a1e19d6c8e56f560001b612c80565b611a937fd82d3dd293b82cc251389ce8b6ba236421389134ea860ba9df4278e63555aef560001b612c80565b6040518060e00160405280838152602001835167ffffffffffffffff811115611ae5577f4e487b7100000000000000000000000000000000000000000000000000000000600052604160045260246000fd5b604051908082528060200260200182016040528015611b135781602001602082028036833780820191505090505b5081526020016000815260200142815260200160001515815260200160008152602001600067ffffffffffffffff811115611b77577f4e487b7100000000000000000000000000000000000000000000000000000000600052604160045260246000fd5b604051908082528060200260200182016040528015611ba55781602001602082028036833780820191505090505b50815250600460008381526020019081526020016000206000820151816000019080519060200190611bd89291906130b5565b506020820151816001019080519060200190611bf5929190613029565b50604082015181600201556060820151816003015560808201518160040160006101000a81548160ff02191690831515021790555060a0820151816005015560c0820151816006019080519060200190611c50929190613029565b509050505050565b80611c857fc148e1bfa2681c9499977b8a8fad7dfe59365bcd8d7c5a165dccaa56a6de132c60001b612c80565b611cb17f676f97cafa9f6ad2e4b11a4cb795c78d7bf773f0f6cfb6051ec0262d312db51660001b612c80565b611cdd7f1203730eb8a51b45afab71ee436ad36cb83c9d64856cb57e9ad32750e763d60060001b612c80565b611d097f45ee78d7de8466d1bd41bd9eb80e924bd1df6b2f11b70a16d86c4ff9165f88d760001b612c80565b6000600460008381526020019081526020016000206003015411611d62576040517f08c379a0000000000000000000000000000000000000000000000000000000008152600401611d599061388d565b60405180910390fd5b611d8e7fdbc47415daa014fe812db0ffafa2a772a588ed59475bf2d0ffdf017cc691a8fe60001b612c80565b611dba7f874d2511f3e997dffaa2df51735e901fbd270b4b2e28a9e8f6bd7b93ec3c0f9060001b612c80565b611de67f7c355a5d6525c9737f9d5e1871abaec3a573985f9fe6e106bead5a7d700cba1d60001b612c80565b611e127f7f63fcae09a675d51fbe5f620f00fcf7e62abbcd755f0f448587a0315b935bd760001b612c80565b611e3e7f6e9ec907183e2fd0154714bf8c78dc8e6e7b76a4180cd722808aca8299e0f99d60001b612c80565b6000429050611e6f7f710dcd3b967e0a727bbaa393ed4ff185097af3d5ee4ae1759d54c13f9d5213b360001b612c80565b611e9b7fe5cd82d87f746c1e09d7d4ab8a77cb731470188ecad90686f198778487cffec460001b612c80565b6000600460008581526020019081526020016000206040518060e001604052908160008201805480602002602001604051908101604052809291908181526020018280548015611f4057602002820191906000526020600020905b8160009054906101000a900473ffffffffffffffffffffffffffffffffffffffff1673ffffffffffffffffffffffffffffffffffffffff1681526020019060010190808311611ef6575b5050505050815260200160018201805480602002602001604051908101604052809291908181526020018280548015611f9857602002820191906000526020600020905b815481526020019060010190808311611f84575b5050505050815260200160028201548152602001600382015481526020016004820160009054906101000a900460ff16151515158152602001600582015481526020016006820180548060200260200160405190810160405280929190818152602001828054801561202957602002820191906000526020600020905b815481526020019060010190808311612015575b50505050508152505090506120607f29979e62b7412f7426d7c69d8f0d8fb174589826d176cd382fcd0bb57768171660001b612c80565b61208c7f1eb42dd7a55bb005be43542ff4f26268a4d3edf36fafcd198199d55e7b4b1dbb60001b612c80565b6120b87f81afa5854e21a44815d5eafe921613a6e7a2dad0c4f4848afbfe7831baa294a260001b612c80565b6203f4808160600151836120cc9190613b75565b101561210d576040517f08c379a00000000000000000000000000000000000000000000000000000000081526004016121049061392d565b60405180910390fd5b6121397f603302070d4fd841377002335ad091945382eca4a77c8cc1f62a44132c3df69960001b612c80565b6121657f4aded810094e60c66ef11ce478c772bf90347da3bc0668cd8b97a2519b18cf8c60001b612c80565b6121917ffc3a5b38e3490ae16f02f8b3469ce5d5997b5d5fd4fca047e66fbdcdc6bf193e60001b612c80565b60016004600086815260200190815260200160002060040160006101000a81548160ff0219169083151502179055506121ec7f8ba5d452fccf8e9073caad24ed50ee17ec81e313036d531375352593b20a4d4360001b612c80565b6122187f02eab8d7ede1642382f001815ef5a2ef9ab05e8c974f385c0e6e7e0e87ecc69960001b612c80565b60008160c0015151905061224e7f407caf284fdbf58e6cc31380d2cfd5e44c362014a96456a9c5b593f44be8893660001b612c80565b61227a7f2e6106f43bc4db2661772b4f508b27fd0152b2e6b2e7c915ff98b50f41dd9f6460001b612c80565b6000811115612625576122af7faf01501a662e99f0e966c612e784c29186e7078b27932115532782c4fbe1467360001b612c80565b6122db7f230226ef771757f6d24ef9517ddb57e741b1e28892cb3f0c3deb5dc60d4efea060001b612c80565b6123077f1a9dec76f8de7ddabdd6c160cb80bea3e5b7dde2b6de7563a9e97adce6b1e1d760001b612c80565b60006064600154606461231a9190613b75565b84604001516123299190613b1b565b6123339190613aea565b90506123617ffa0180f9c65395e2d839d08fca09a8fa9273d7691ca4eaaaf2343309325cba8a60001b612c80565b61238d7fc874afc822d30d1afba46a46d115b3dda2931f389e15842a535762d9fe01842060001b612c80565b806004600088815260200190815260200160002060020160008282546123b39190613b75565b925050819055506123e67fca7161b8f3c7a8be21b5f681d7375656e5e7cfd8e21db50af0c77256951e4eac60001b612c80565b6124127f6e42eebfc9bb2565896ad9f7fc7dcee1eeacb9c94502da5690fbefa10554bc0860001b612c80565b600082826124209190613aea565b905061244e7f66f0f2c162416c6af63d2f2348d84c9b06a9782fb84112bc76bf5290fac6fac560001b612c80565b61247a7f9802a4fd770453fd15e2cb4afb8b6fe44c8f4859a8dae1a1a7a66c38a0e9bfae60001b612c80565b60005b8381101561261d576124b17fa416f7e28ef8a2143795dc4e46ebfd00985ef4f6e6e20523bc4871b544dec7a060001b612c80565b6124dd7f2c27fa5d65d85b25878f206019649221eb36eb9455c3e7402cb2824b8e1399af60001b612c80565b600085600001518660c001518381518110612521577f4e487b7100000000000000000000000000000000000000000000000000000000600052603260045260246000fd5b602002602001015181518110612560577f4e487b7100000000000000000000000000000000000000000000000000000000600052603260045260246000fd5b602002602001015190506125967f147bd1640c66e3e7f9c314495de6efa1f27802e968173f71fdefbdac6a80506960001b612c80565b6125c27f5a5e8046eda269693fe8fa4d84b35276fc24cb6c466de425fb465e0912d28bc360001b612c80565b8073ffffffffffffffffffffffffffffffffffffffff166108fc849081150290604051600060405180830381858888f19350505050158015612608573d6000803e3d6000fd5b5050808061261590613bf1565b91505061247d565b505050612652565b6126517ffc3a9b7b37de75c1622cf6a79ac99b4c303732be4922d78ce72e2b266202bb8360001b612c80565b5b5050505050565b60046020528060005260406000206000915090508060020154908060030154908060040160009054906101000a900460ff16908060050154905084565b60008054906101000a900473ffffffffffffffffffffffffffffffffffffffff1681565b6126e67f1e9f658ad1fd58de831bb7943087615dd118675a0f6dd9ef2a27b517b9451acb60001b612c80565b6127127f941d3cb7593987cc0bbcda0b0bc55880402179975be93f603d14dbd1a47ce1a160001b612c80565b61273e7f1d65e875bbd11fd8989e5f26cb40ef5a74912481db665867036b0c2cc007d6cb60001b612c80565b61276a7fd71943f7a30aa4461df4f8369b8e1d1f05455ee6d976ff454344ba80f57741ed60001b612c80565b60008054906101000a900473ffffffffffffffffffffffffffffffffffffffff1673ffffffffffffffffffffffffffffffffffffffff163373ffffffffffffffffffffffffffffffffffffffff16146127f8576040517f08c379a00000000000000000000000000000000000000000000000000000000081526004016127ef906138ad565b60405180910390fd5b6128247f6eec500ab9a19a7d7827f4f2770b2352d9d34cfe5252090d93d3a3da69abd70960001b612c80565b6128507f75305d5069df457386ec88ad6209ba65242b0d8eb15a7bb43b41eee4b69d815460001b612c80565b8061287d7fc148e1bfa2681c9499977b8a8fad7dfe59365bcd8d7c5a165dccaa56a6de132c60001b612c80565b6128a97f676f97cafa9f6ad2e4b11a4cb795c78d7bf773f0f6cfb6051ec0262d312db51660001b612c80565b6128d57f1203730eb8a51b45afab71ee436ad36cb83c9d64856cb57e9ad32750e763d60060001b612c80565b6129017f45ee78d7de8466d1bd41bd9eb80e924bd1df6b2f11b70a16d86c4ff9165f88d760001b612c80565b600060046000838152602001908152602001600020600301541161295a576040517f08c379a00000000000000000000000000000000000000000000000000000000081526004016129519061388d565b60405180910390fd5b6129867fdbc47415daa014fe812db0ffafa2a772a588ed59475bf2d0ffdf017cc691a8fe60001b612c80565b6129b27f874d2511f3e997dffaa2df51735e901fbd270b4b2e28a9e8f6bd7b93ec3c0f9060001b612c80565b6129de7fbeadbaae1735da0193431555d2ebd1c20b6a86c84de684a377557b356d5c064260001b612c80565b612a0a7f6ae51ba4c1f6a5657606ea7a310327ca933e05db1d56144d32c9428ad2008b7660001b612c80565b612a367fd3dbedf8c67f1c8c341bdbc599b4186c4e811df613b132d0939ba86e067570b360001b612c80565b612a627f630658afe09cddb5e8eeae8989880a8fca96612f7963c16c8e458e4f34525cfe60001b612c80565b6004600083815260200190815260200160002060040160009054906101000a900460ff16612ac5576040517f08c379a0000000000000000000000000000000000000000000000000000000008152600401612abc906138ed565b60405180910390fd5b612af17fff28f649ad3fba1894a031294e2d50f3f66b9e79f185dd053f661ab6747605c160001b612c80565b612b1d7f47b09872b69a3ac8e11a0f6ac1e89192febf74611a77108ec7960c43bb294e2d60001b612c80565b612b497fa5e2d4f24d2d1c45208cf9904d8d514830fec97005492b5f51f761a2f0f82e3f60001b612c80565b60008054906101000a900473ffffffffffffffffffffffffffffffffffffffff1673ffffffffffffffffffffffffffffffffffffffff166108fc60046000858152602001908152602001600020600201549081150290604051600060405180830381858888f19350505050158015612bc5573d6000803e3d6000fd5b50612bf27f1213c2c44fe90f22eee4c1c6349a2c96e01c70b55527de96ba27ecfcf8e8355160001b612c80565b612c1e7fb0d643d6639116c52790869499efefc9d55a7fcbe9fdf9862e610c09abee734d60001b612c80565b600060046000848152602001908152602001600020600201819055505050565b60036020528160005260406000206020528060005260406000206000915091509054906101000a900473ffffffffffffffffffffffffffffffffffffffff1681565b50565b6000612cb17f45bfc6de8459854c5aabbc3a28ca0bdf09b1070484735d2b5a0ba92831fcb88060001b612c80565b612cdd7f58e93dc8fde5cb473e6fb6e59e2737221a699e4b96aa804230797ee1366efa2460001b612c80565b612d097f6ba2d802dd2df83983075c6cda80657dca415c7ab47adacbe67f630c4cfb782a60001b612c80565b600060046000858152602001908152602001600020600001805480602002602001604051908101604052809291908181526020018280548015612da157602002820191906000526020600020905b8160009054906101000a900473ffffffffffffffffffffffffffffffffffffffff1673ffffffffffffffffffffffffffffffffffffffff1681526020019060010190808311612d57575b50505050509050612dd47f4feb8d5de4670a721f7efbd596e42c33e678deeeb4188b1a4ad0bda09222d15660001b612c80565b612e007f5f00609d54cee7009fbf5d92099502d15be089c07cbd669f994a95404bc0401560001b612c80565b60005b8151811015612fa557612e387fd117cff30ed2a593bdbfd84d89492c3c22b7f897898027cb1e2e5bfa49beab6b60001b612c80565b612e647fcc012d3131470f2f65ecb5602d3cb0b9703368c64e398de15351af055821ca8f60001b612c80565b8373ffffffffffffffffffffffffffffffffffffffff16828281518110612eb4577f4e487b7100000000000000000000000000000000000000000000000000000000600052603260045260246000fd5b602002602001015173ffffffffffffffffffffffffffffffffffffffff161415612f6657612f047f4056ecdb045a7a76434a11cb71a3412767af92431f8c5e756b8b7d43e2b1cf8f60001b612c80565b612f307fc7c378fb8fb33b656b9510d6666d75e7e1e1462d3160c5a87dc5aabe0c5e027760001b612c80565b612f5c7f5e43fc1bf6b57bc87303e082565875b294a3a933aec57e55503e4852f24f468a60001b612c80565b8092505050613023565b612f927fb5ba0ae833ba56a3cc435ca3140b2743464c8491cf2fe15df5998d70ff93e1d660001b612c80565b8080612f9d90613bf1565b915050612e03565b50612fd27f99ccc7856a86d6a13140694ce3062f3d33dd5bd717532709439bcf28c2b8956860001b612c80565b612ffe7fabefd3dab22377bd261b35993a8966e649464f4aa1da377a40f0f321ca2dc78360001b612c80565b7fffffffffffffffffffffffffffffffffffffffffffffffffffffffffffffffff9150505b92915050565b828054828255906000526020600020908101928215613065579160200282015b82811115613064578251825591602001919060010190613049565b5b509050613072919061313f565b5090565b6040518060e001604052806060815260200160608152602001600081526020016000815260200160001515815260200160008152602001606081525090565b82805482825590600052602060002090810192821561312e579160200282015b8281111561312d5782518260006101000a81548173ffffffffffffffffffffffffffffffffffffffff021916908373ffffffffffffffffffffffffffffffffffffffff160217905550916020019190600101906130d5565b5b50905061313b919061313f565b5090565b5b80821115613158576000816000905550600101613140565b5090565b600061316f61316a846139e5565b6139b4565b9050808382526020820190508285602086028201111561318e57600080fd5b60005b858110156131be57816131a488826131c8565b845260208401935060208301925050600181019050613191565b5050509392505050565b6000813590506131d781613cc7565b92915050565b600082601f8301126131ee57600080fd5b81356131fe84826020860161315c565b91505092915050565b60008135905061321681613cde565b92915050565b6000806040838503121561322f57600080fd5b600061323d858286016131c8565b925050602061324e85828601613207565b9150509250929050565b60006020828403121561326a57600080fd5b600082013567ffffffffffffffff81111561328457600080fd5b613290848285016131dd565b91505092915050565b6000602082840312156132ab57600080fd5b60006132b984828501613207565b91505092915050565b600080604083850312156132d557600080fd5b60006132e385828601613207565b92505060206132f4858286016131c8565b9150509250929050565b600061330a838361332e565b60208301905092915050565b600061332283836137f4565b60208301905092915050565b61333781613ba9565b82525050565b61334681613ba9565b82525050565b600061335782613a31565b6133618185613a61565b935061336c83613a11565b8060005b8381101561339d57815161338488826132fe565b975061338f83613a47565b925050600181019050613370565b5085935050505092915050565b60006133b582613a3c565b6133bf8185613a72565b93506133ca83613a21565b8060005b838110156133fb5781516133e28882613316565b97506133ed83613a54565b9250506001810190506133ce565b5085935050505092915050565b61341181613bbb565b82525050565b61342081613bbb565b82525050565b6000613433602a83613a83565b91507f41206e65772062616c6c6f742073686f756c6420636f6e7461696e203e3d203260008301527f2070726f706f73616c73000000000000000000000000000000000000000000006020830152604082019050919050565b6000613499602083613a83565b91507f4e65656420746f206465706f73697420302e30312045544820746f20766f74656000830152602082019050919050565b60006134d9602483613a83565b91507f5468657265206e6f20737563682070726f706f73616c20696e2074686520626160008301527f6c6c6f74000000000000000000000000000000000000000000000000000000006020830152604082019050919050565b600061353f601883613a83565b91507f5468652062616c6c6f7420646f65736e277420657869737400000000000000006000830152602082019050919050565b600061357f602483613a83565b91507f5468652073656e64657220646f65736e27742068617665206f776e657220726960008301527f67687473000000000000000000000000000000000000000000000000000000006020830152604082019050919050565b60006135e5602583613a83565b91507f5468652062616c6c6f742068617320616c7265616479206265656e20636f6d7060008301527f6c657465640000000000000000000000000000000000000000000000000000006020830152604082019050919050565b600061364b602483613a83565b91507f5468652062616c6c6f74206861736e2774206265656e20636f6d706c6574656460008301527f20796574000000000000000000000000000000000000000000000000000000006020830152604082019050919050565b60006136b1601b83613a83565b91507f54686520766f7465722068617320616c726561647920766f74656400000000006000830152602082019050919050565b60006136f1602d83613a83565b91507f5468652062616c6c6f742063616e20626520636f6d706c65746564206166746560008301527f7220332064617973206f6e6c79000000000000000000000000000000000000006020830152604082019050919050565b600060e0830160008301518482036000860152613767828261334c565b9150506020830151848203602086015261378182826133aa565b915050604083015161379660408601826137f4565b5060608301516137a960608601826137f4565b5060808301516137bc6080860182613408565b5060a08301516137cf60a08601826137f4565b5060c083015184820360c08601526137e782826133aa565b9150508091505092915050565b6137fd81613be7565b82525050565b61380c81613be7565b82525050565b6000602082019050613827600083018461333d565b92915050565b6000602082019050818103600083015261384681613426565b9050919050565b600060208201905081810360008301526138668161348c565b9050919050565b60006020820190508181036000830152613886816134cc565b9050919050565b600060208201905081810360008301526138a681613532565b9050919050565b600060208201905081810360008301526138c681613572565b9050919050565b600060208201905081810360008301526138e6816135d8565b9050919050565b600060208201905081810360008301526139068161363e565b9050919050565b60006020820190508181036000830152613926816136a4565b9050919050565b60006020820190508181036000830152613946816136e4565b9050919050565b60006020820190508181036000830152613967818461374a565b905092915050565b60006080820190506139846000830187613803565b6139916020830186613803565b61399e6040830185613417565b6139ab6060830184613803565b95945050505050565b6000604051905081810181811067ffffffffffffffff821117156139db576139da613c98565b5b8060405250919050565b600067ffffffffffffffff821115613a00576139ff613c98565b5b602082029050602081019050919050565b6000819050602082019050919050565b6000819050602082019050919050565b600081519050919050565b600081519050919050565b6000602082019050919050565b6000602082019050919050565b600082825260208201905092915050565b600082825260208201905092915050565b600082825260208201905092915050565b6000613a9f82613be7565b9150613aaa83613be7565b9250827fffffffffffffffffffffffffffffffffffffffffffffffffffffffffffffffff03821115613adf57613ade613c3a565b5b828201905092915050565b6000613af582613be7565b9150613b0083613be7565b925082613b1057613b0f613c69565b5b828204905092915050565b6000613b2682613be7565b9150613b3183613be7565b9250817fffffffffffffffffffffffffffffffffffffffffffffffffffffffffffffffff0483118215151615613b6a57613b69613c3a565b5b828202905092915050565b6000613b8082613be7565b9150613b8b83613be7565b925082821015613b9e57613b9d613c3a565b5b828203905092915050565b6000613bb482613bc7565b9050919050565b60008115159050919050565b600073ffffffffffffffffffffffffffffffffffffffff82169050919050565b6000819050919050565b6000613bfc82613be7565b91507fffffffffffffffffffffffffffffffffffffffffffffffffffffffffffffffff821415613c2f57613c2e613c3a565b5b600182019050919050565b7f4e487b7100000000000000000000000000000000000000000000000000000000600052601160045260246000fd5b7f4e487b7100000000000000000000000000000000000000000000000000000000600052601260045260246000fd5b7f4e487b7100000000000000000000000000000000000000000000000000000000600052604160045260246000fd5b613cd081613ba9565b8114613cdb57600080fd5b50565b613ce781613be7565b8114613cf257600080fd5b5056fea26469706673582212206cc0efa7cab732b48e0fed899f019174b8182f22062240ea3eebff7cfa9d30cb64736f6c63430008000033",
          "opcodes": "PUSH1 0x80 PUSH1 0x40 MSTORE PUSH1 0xA PUSH1 0x1 SSTORE PUSH7 0x2386F26FC10000 PUSH1 0x2 SSTORE CALLVALUE DUP1 ISZERO PUSH3 0x21 JUMPI PUSH1 0x0 DUP1 REVERT JUMPDEST POP PUSH3 0x56 PUSH32 0x71CA803D038752C1C54F1074BA4A560BF2CBEB61E1D0E46D47308D6CE2AA52C6 PUSH1 0x0 SHL PUSH3 0x104 PUSH1 0x20 SHL PUSH1 0x20 SHR JUMP JUMPDEST PUSH3 0x8A PUSH32 0x6894E0322D03F7258473DEC6CD5DA147B2649E394E5D43DCAAF7F4D54C81C176 PUSH1 0x0 SHL PUSH3 0x104 PUSH1 0x20 SHL PUSH1 0x20 SHR JUMP JUMPDEST PUSH3 0xBE PUSH32 0x17DEE0FF3ABD2100A72BAA0D6919891B9157A60FA6FDC33413C34445BC54DE70 PUSH1 0x0 SHL PUSH3 0x104 PUSH1 0x20 SHL PUSH1 0x20 SHR JUMP JUMPDEST CALLER PUSH1 0x0 DUP1 PUSH2 0x100 EXP DUP2 SLOAD DUP2 PUSH20 0xFFFFFFFFFFFFFFFFFFFFFFFFFFFFFFFFFFFFFFFF MUL NOT AND SWAP1 DUP4 PUSH20 0xFFFFFFFFFFFFFFFFFFFFFFFFFFFFFFFFFFFFFFFF AND MUL OR SWAP1 SSTORE POP PUSH3 0x107 JUMP JUMPDEST POP JUMP JUMPDEST PUSH2 0x3D2B DUP1 PUSH3 0x117 PUSH1 0x0 CODECOPY PUSH1 0x0 RETURN INVALID PUSH1 0x80 PUSH1 0x40 MSTORE PUSH1 0x4 CALLDATASIZE LT PUSH2 0x86 JUMPI PUSH1 0x0 CALLDATALOAD PUSH1 0xE0 SHR DUP1 PUSH4 0x481143A7 GT PUSH2 0x59 JUMPI DUP1 PUSH4 0x481143A7 EQ PUSH2 0x14A JUMPI DUP1 PUSH4 0x5C632B38 EQ PUSH2 0x173 JUMPI DUP1 PUSH4 0x8DA5CB5B EQ PUSH2 0x1B3 JUMPI DUP1 PUSH4 0xBE357616 EQ PUSH2 0x1DE JUMPI DUP1 PUSH4 0xC591AA98 EQ PUSH2 0x207 JUMPI PUSH2 0x86 JUMP JUMPDEST DUP1 PUSH4 0x2D947EF EQ PUSH2 0x8B JUMPI DUP1 PUSH4 0xBF6EEE8 EQ PUSH2 0xA7 JUMPI DUP1 PUSH4 0x141BD92A EQ PUSH2 0xE4 JUMPI DUP1 PUSH4 0x3B2341CF EQ PUSH2 0x121 JUMPI JUMPDEST PUSH1 0x0 DUP1 REVERT JUMPDEST PUSH2 0xA5 PUSH1 0x4 DUP1 CALLDATASIZE SUB DUP2 ADD SWAP1 PUSH2 0xA0 SWAP2 SWAP1 PUSH2 0x32C2 JUMP JUMPDEST PUSH2 0x244 JUMP JUMPDEST STOP JUMPDEST CALLVALUE DUP1 ISZERO PUSH2 0xB3 JUMPI PUSH1 0x0 DUP1 REVERT JUMPDEST POP PUSH2 0xCE PUSH1 0x4 DUP1 CALLDATASIZE SUB DUP2 ADD SWAP1 PUSH2 0xC9 SWAP2 SWAP1 PUSH2 0x321C JUMP JUMPDEST PUSH2 0x1124 JUMP JUMPDEST PUSH1 0x40 MLOAD PUSH2 0xDB SWAP2 SWAP1 PUSH2 0x3812 JUMP JUMPDEST PUSH1 0x40 MLOAD DUP1 SWAP2 SUB SWAP1 RETURN JUMPDEST CALLVALUE DUP1 ISZERO PUSH2 0xF0 JUMPI PUSH1 0x0 DUP1 REVERT JUMPDEST POP PUSH2 0x10B PUSH1 0x4 DUP1 CALLDATASIZE SUB DUP2 ADD SWAP1 PUSH2 0x106 SWAP2 SWAP1 PUSH2 0x3299 JUMP JUMPDEST PUSH2 0x1386 JUMP JUMPDEST PUSH1 0x40 MLOAD PUSH2 0x118 SWAP2 SWAP1 PUSH2 0x394D JUMP JUMPDEST PUSH1 0x40 MLOAD DUP1 SWAP2 SUB SWAP1 RETURN JUMPDEST CALLVALUE DUP1 ISZERO PUSH2 0x12D JUMPI PUSH1 0x0 DUP1 REVERT JUMPDEST POP PUSH2 0x148 PUSH1 0x4 DUP1 CALLDATASIZE SUB DUP2 ADD SWAP1 PUSH2 0x143 SWAP2 SWAP1 PUSH2 0x3258 JUMP JUMPDEST PUSH2 0x1711 JUMP JUMPDEST STOP JUMPDEST CALLVALUE DUP1 ISZERO PUSH2 0x156 JUMPI PUSH1 0x0 DUP1 REVERT JUMPDEST POP PUSH2 0x171 PUSH1 0x4 DUP1 CALLDATASIZE SUB DUP2 ADD SWAP1 PUSH2 0x16C SWAP2 SWAP1 PUSH2 0x3299 JUMP JUMPDEST PUSH2 0x1C58 JUMP JUMPDEST STOP JUMPDEST CALLVALUE DUP1 ISZERO PUSH2 0x17F JUMPI PUSH1 0x0 DUP1 REVERT JUMPDEST POP PUSH2 0x19A PUSH1 0x4 DUP1 CALLDATASIZE SUB DUP2 ADD SWAP1 PUSH2 0x195 SWAP2 SWAP1 PUSH2 0x3299 JUMP JUMPDEST PUSH2 0x2659 JUMP JUMPDEST PUSH1 0x40 MLOAD PUSH2 0x1AA SWAP5 SWAP4 SWAP3 SWAP2 SWAP1 PUSH2 0x396F JUMP JUMPDEST PUSH1 0x40 MLOAD DUP1 SWAP2 SUB SWAP1 RETURN JUMPDEST CALLVALUE DUP1 ISZERO PUSH2 0x1BF JUMPI PUSH1 0x0 DUP1 REVERT JUMPDEST POP PUSH2 0x1C8 PUSH2 0x2696 JUMP JUMPDEST PUSH1 0x40 MLOAD PUSH2 0x1D5 SWAP2 SWAP1 PUSH2 0x3812 JUMP JUMPDEST PUSH1 0x40 MLOAD DUP1 SWAP2 SUB SWAP1 RETURN JUMPDEST CALLVALUE DUP1 ISZERO PUSH2 0x1EA JUMPI PUSH1 0x0 DUP1 REVERT JUMPDEST POP PUSH2 0x205 PUSH1 0x4 DUP1 CALLDATASIZE SUB DUP2 ADD SWAP1 PUSH2 0x200 SWAP2 SWAP1 PUSH2 0x3299 JUMP JUMPDEST PUSH2 0x26BA JUMP JUMPDEST STOP JUMPDEST CALLVALUE DUP1 ISZERO PUSH2 0x213 JUMPI PUSH1 0x0 DUP1 REVERT JUMPDEST POP PUSH2 0x22E PUSH1 0x4 DUP1 CALLDATASIZE SUB DUP2 ADD SWAP1 PUSH2 0x229 SWAP2 SWAP1 PUSH2 0x321C JUMP JUMPDEST PUSH2 0x2C3E JUMP JUMPDEST PUSH1 0x40 MLOAD PUSH2 0x23B SWAP2 SWAP1 PUSH2 0x3812 JUMP JUMPDEST PUSH1 0x40 MLOAD DUP1 SWAP2 SUB SWAP1 RETURN JUMPDEST DUP2 PUSH2 0x271 PUSH32 0xC148E1BFA2681C9499977B8A8FAD7DFE59365BCD8D7C5A165DCCAA56A6DE132C PUSH1 0x0 SHL PUSH2 0x2C80 JUMP JUMPDEST PUSH2 0x29D PUSH32 0x676F97CAFA9F6AD2E4B11A4CB795C78D7BF773F0F6CFB6051EC0262D312DB516 PUSH1 0x0 SHL PUSH2 0x2C80 JUMP JUMPDEST PUSH2 0x2C9 PUSH32 0x1203730EB8A51B45AFAB71EE436AD36CB83C9D64856CB57E9AD32750E763D600 PUSH1 0x0 SHL PUSH2 0x2C80 JUMP JUMPDEST PUSH2 0x2F5 PUSH32 0x45EE78D7DE8466D1BD41BD9EB80E924BD1DF6B2F11B70A16D86C4FF9165F88D7 PUSH1 0x0 SHL PUSH2 0x2C80 JUMP JUMPDEST PUSH1 0x0 PUSH1 0x4 PUSH1 0x0 DUP4 DUP2 MSTORE PUSH1 0x20 ADD SWAP1 DUP2 MSTORE PUSH1 0x20 ADD PUSH1 0x0 KECCAK256 PUSH1 0x3 ADD SLOAD GT PUSH2 0x34E JUMPI PUSH1 0x40 MLOAD PUSH32 0x8C379A000000000000000000000000000000000000000000000000000000000 DUP2 MSTORE PUSH1 0x4 ADD PUSH2 0x345 SWAP1 PUSH2 0x388D JUMP JUMPDEST PUSH1 0x40 MLOAD DUP1 SWAP2 SUB SWAP1 REVERT JUMPDEST PUSH2 0x37A PUSH32 0xDBC47415DAA014FE812DB0FFAFA2A772A588ED59475BF2D0FFDF017CC691A8FE PUSH1 0x0 SHL PUSH2 0x2C80 JUMP JUMPDEST PUSH2 0x3A6 PUSH32 0x874D2511F3E997DFFAA2DF51735E901FBD270B4B2E28A9E8F6BD7B93EC3C0F90 PUSH1 0x0 SHL PUSH2 0x2C80 JUMP JUMPDEST PUSH2 0x3D2 PUSH32 0x22F92E2CD419999484C80CB333A7534A83EF5D8175AF1DE957749C790483D775 PUSH1 0x0 SHL PUSH2 0x2C80 JUMP JUMPDEST PUSH2 0x3FE PUSH32 0x1662D70D9877099DEA7274FF5E5E788E2B290DC2DCC4C4C1BB5486F457A0C962 PUSH1 0x0 SHL PUSH2 0x2C80 JUMP JUMPDEST PUSH2 0x42A PUSH32 0x41D7E9D5DC41CC68AE789F351E45F1E983D1865602665B76F65991C9171E06CC PUSH1 0x0 SHL PUSH2 0x2C80 JUMP JUMPDEST PUSH1 0x0 PUSH1 0x4 PUSH1 0x0 DUP6 DUP2 MSTORE PUSH1 0x20 ADD SWAP1 DUP2 MSTORE PUSH1 0x20 ADD PUSH1 0x0 KECCAK256 PUSH1 0x40 MLOAD DUP1 PUSH1 0xE0 ADD PUSH1 0x40 MSTORE SWAP1 DUP2 PUSH1 0x0 DUP3 ADD DUP1 SLOAD DUP1 PUSH1 0x20 MUL PUSH1 0x20 ADD PUSH1 0x40 MLOAD SWAP1 DUP2 ADD PUSH1 0x40 MSTORE DUP1 SWAP3 SWAP2 SWAP1 DUP2 DUP2 MSTORE PUSH1 0x20 ADD DUP3 DUP1 SLOAD DUP1 ISZERO PUSH2 0x4CF JUMPI PUSH1 0x20 MUL DUP3 ADD SWAP2 SWAP1 PUSH1 0x0 MSTORE PUSH1 0x20 PUSH1 0x0 KECCAK256 SWAP1 JUMPDEST DUP2 PUSH1 0x0 SWAP1 SLOAD SWAP1 PUSH2 0x100 EXP SWAP1 DIV PUSH20 0xFFFFFFFFFFFFFFFFFFFFFFFFFFFFFFFFFFFFFFFF AND PUSH20 0xFFFFFFFFFFFFFFFFFFFFFFFFFFFFFFFFFFFFFFFF AND DUP2 MSTORE PUSH1 0x20 ADD SWAP1 PUSH1 0x1 ADD SWAP1 DUP1 DUP4 GT PUSH2 0x485 JUMPI JUMPDEST POP POP POP POP POP DUP2 MSTORE PUSH1 0x20 ADD PUSH1 0x1 DUP3 ADD DUP1 SLOAD DUP1 PUSH1 0x20 MUL PUSH1 0x20 ADD PUSH1 0x40 MLOAD SWAP1 DUP2 ADD PUSH1 0x40 MSTORE DUP1 SWAP3 SWAP2 SWAP1 DUP2 DUP2 MSTORE PUSH1 0x20 ADD DUP3 DUP1 SLOAD DUP1 ISZERO PUSH2 0x527 JUMPI PUSH1 0x20 MUL DUP3 ADD SWAP2 SWAP1 PUSH1 0x0 MSTORE PUSH1 0x20 PUSH1 0x0 KECCAK256 SWAP1 JUMPDEST DUP2 SLOAD DUP2 MSTORE PUSH1 0x20 ADD SWAP1 PUSH1 0x1 ADD SWAP1 DUP1 DUP4 GT PUSH2 0x513 JUMPI JUMPDEST POP POP POP POP POP DUP2 MSTORE PUSH1 0x20 ADD PUSH1 0x2 DUP3 ADD SLOAD DUP2 MSTORE PUSH1 0x20 ADD PUSH1 0x3 DUP3 ADD SLOAD DUP2 MSTORE PUSH1 0x20 ADD PUSH1 0x4 DUP3 ADD PUSH1 0x0 SWAP1 SLOAD SWAP1 PUSH2 0x100 EXP SWAP1 DIV PUSH1 0xFF AND ISZERO ISZERO ISZERO ISZERO DUP2 MSTORE PUSH1 0x20 ADD PUSH1 0x5 DUP3 ADD SLOAD DUP2 MSTORE PUSH1 0x20 ADD PUSH1 0x6 DUP3 ADD DUP1 SLOAD DUP1 PUSH1 0x20 MUL PUSH1 0x20 ADD PUSH1 0x40 MLOAD SWAP1 DUP2 ADD PUSH1 0x40 MSTORE DUP1 SWAP3 SWAP2 SWAP1 DUP2 DUP2 MSTORE PUSH1 0x20 ADD DUP3 DUP1 SLOAD DUP1 ISZERO PUSH2 0x5B8 JUMPI PUSH1 0x20 MUL DUP3 ADD SWAP2 SWAP1 PUSH1 0x0 MSTORE PUSH1 0x20 PUSH1 0x0 KECCAK256 SWAP1 JUMPDEST DUP2 SLOAD DUP2 MSTORE PUSH1 0x20 ADD SWAP1 PUSH1 0x1 ADD SWAP1 DUP1 DUP4 GT PUSH2 0x5A4 JUMPI JUMPDEST POP POP POP POP POP DUP2 MSTORE POP POP SWAP1 POP PUSH2 0x5EF PUSH32 0x48FA6DB0E2604834A57B6EF922326A2303909B58B47F289412DBBD5063E4E1FC PUSH1 0x0 SHL PUSH2 0x2C80 JUMP JUMPDEST PUSH2 0x61B PUSH32 0x171B5D0B181490C46B4C0F280DEB61DD1A630899C318928699915C4C70D048A0 PUSH1 0x0 SHL PUSH2 0x2C80 JUMP JUMPDEST PUSH2 0x647 PUSH32 0x71842631A927E5D4795D288A209CA53E43627366B0C366A7E3AE0AEA4972A1D6 PUSH1 0x0 SHL PUSH2 0x2C80 JUMP JUMPDEST DUP1 PUSH1 0x80 ADD MLOAD ISZERO PUSH2 0x68C JUMPI PUSH1 0x40 MLOAD PUSH32 0x8C379A000000000000000000000000000000000000000000000000000000000 DUP2 MSTORE PUSH1 0x4 ADD PUSH2 0x683 SWAP1 PUSH2 0x38CD JUMP JUMPDEST PUSH1 0x40 MLOAD DUP1 SWAP2 SUB SWAP1 REVERT JUMPDEST PUSH2 0x6B8 PUSH32 0xA1AF8DD4EDC076F79B89FBBB693A79D6E96A10C156A46CC0B260557F0C9F6F50 PUSH1 0x0 SHL PUSH2 0x2C80 JUMP JUMPDEST PUSH2 0x6E4 PUSH32 0x1229529B4902BFE611DB22C1F434D56C5473851FDBB0D61CB228EACF200FE6E3 PUSH1 0x0 SHL PUSH2 0x2C80 JUMP JUMPDEST PUSH2 0x710 PUSH32 0x1CDF89D16039B9257F5757245D536F5222CA27AAF6FA0DBB9A1CECE37C57D07 PUSH1 0x0 SHL PUSH2 0x2C80 JUMP JUMPDEST PUSH2 0x73C PUSH32 0xDB032AE7A741A752D561C309DD98C5C4FA0B4972B0F001A6D08A384C8B8BB0B5 PUSH1 0x0 SHL PUSH2 0x2C80 JUMP JUMPDEST PUSH1 0x2 SLOAD CALLVALUE EQ PUSH2 0x780 JUMPI PUSH1 0x40 MLOAD PUSH32 0x8C379A000000000000000000000000000000000000000000000000000000000 DUP2 MSTORE PUSH1 0x4 ADD PUSH2 0x777 SWAP1 PUSH2 0x384D JUMP JUMPDEST PUSH1 0x40 MLOAD DUP1 SWAP2 SUB SWAP1 REVERT JUMPDEST PUSH2 0x7AC PUSH32 0x21EC491D983EF2499A1029D26E95214591D5A7F2AEE90517C96EA9494B83E02B PUSH1 0x0 SHL PUSH2 0x2C80 JUMP JUMPDEST PUSH2 0x7D8 PUSH32 0xDDBC7EF655B4B97DA1CF5F8C5243E57DAC502B879F661C85CB4A294856E69E5C PUSH1 0x0 SHL PUSH2 0x2C80 JUMP JUMPDEST PUSH2 0x804 PUSH32 0x31F511F9875D42620A69ED53BA7A9D44FAE2E3F189BC0981CF72710068CA31C3 PUSH1 0x0 SHL PUSH2 0x2C80 JUMP JUMPDEST PUSH2 0x830 PUSH32 0xD5DD39E2220AE52BDBC880A47CB5E3F9F10521AEA3BB75DFC83FCD3849CABED5 PUSH1 0x0 SHL PUSH2 0x2C80 JUMP JUMPDEST PUSH1 0x0 PUSH20 0xFFFFFFFFFFFFFFFFFFFFFFFFFFFFFFFFFFFFFFFF AND PUSH1 0x3 PUSH1 0x0 CALLER PUSH20 0xFFFFFFFFFFFFFFFFFFFFFFFFFFFFFFFFFFFFFFFF AND PUSH20 0xFFFFFFFFFFFFFFFFFFFFFFFFFFFFFFFFFFFFFFFF AND DUP2 MSTORE PUSH1 0x20 ADD SWAP1 DUP2 MSTORE PUSH1 0x20 ADD PUSH1 0x0 KECCAK256 PUSH1 0x0 DUP7 DUP2 MSTORE PUSH1 0x20 ADD SWAP1 DUP2 MSTORE PUSH1 0x20 ADD PUSH1 0x0 KECCAK256 PUSH1 0x0 SWAP1 SLOAD SWAP1 PUSH2 0x100 EXP SWAP1 DIV PUSH20 0xFFFFFFFFFFFFFFFFFFFFFFFFFFFFFFFFFFFFFFFF AND PUSH20 0xFFFFFFFFFFFFFFFFFFFFFFFFFFFFFFFFFFFFFFFF AND EQ PUSH2 0x90F JUMPI PUSH1 0x40 MLOAD PUSH32 0x8C379A000000000000000000000000000000000000000000000000000000000 DUP2 MSTORE PUSH1 0x4 ADD PUSH2 0x906 SWAP1 PUSH2 0x390D JUMP JUMPDEST PUSH1 0x40 MLOAD DUP1 SWAP2 SUB SWAP1 REVERT JUMPDEST PUSH2 0x93B PUSH32 0x7926E9A07FB510DC7361DF74B0EB1B795B52B6F37B109F8448F0329A72321EC9 PUSH1 0x0 SHL PUSH2 0x2C80 JUMP JUMPDEST PUSH2 0x967 PUSH32 0xB698405466252BA9A487525DA43F41EFF4CFADAE3EFFDF641B0EDA9FF9B5FC4D PUSH1 0x0 SHL PUSH2 0x2C80 JUMP JUMPDEST PUSH2 0x993 PUSH32 0x3C81CA77B89BC3931F9E318C52D0D91847F94CEDC1D85CA0D937072BFCF1531 PUSH1 0x0 SHL PUSH2 0x2C80 JUMP JUMPDEST PUSH1 0x0 PUSH2 0x99F DUP6 DUP6 PUSH2 0x2C83 JUMP JUMPDEST SWAP1 POP PUSH2 0x9CD PUSH32 0x2ED4F089EFB850F1C6766AE6F0CC034E03F7AF4DA910A70899033FF9F416C83F PUSH1 0x0 SHL PUSH2 0x2C80 JUMP JUMPDEST PUSH2 0x9F9 PUSH32 0x688FA9604F9BA58AEC5581ECF822D4ABD83986412AE87B6FC2363190F4C08601 PUSH1 0x0 SHL PUSH2 0x2C80 JUMP JUMPDEST PUSH2 0xA25 PUSH32 0xA7B8987D2D5281CCF59BFA5BA3F5167DB49B329617434B183967D515BCA97688 PUSH1 0x0 SHL PUSH2 0x2C80 JUMP JUMPDEST PUSH32 0xFFFFFFFFFFFFFFFFFFFFFFFFFFFFFFFFFFFFFFFFFFFFFFFFFFFFFFFFFFFFFFFF DUP2 EQ ISZERO PUSH2 0xA88 JUMPI PUSH1 0x40 MLOAD PUSH32 0x8C379A000000000000000000000000000000000000000000000000000000000 DUP2 MSTORE PUSH1 0x4 ADD PUSH2 0xA7F SWAP1 PUSH2 0x386D JUMP JUMPDEST PUSH1 0x40 MLOAD DUP1 SWAP2 SUB SWAP1 REVERT JUMPDEST PUSH2 0xAB4 PUSH32 0xE86BC7BA7D20A53EC24229EA4AE584796683094A5F84DCFA9B3FD6B53BBCA0B8 PUSH1 0x0 SHL PUSH2 0x2C80 JUMP JUMPDEST PUSH2 0xAE0 PUSH32 0x39489CBB22167C4B7A3EFDE910065360D7BE94CCEC4118EDEBC22CCBC66CB9D4 PUSH1 0x0 SHL PUSH2 0x2C80 JUMP JUMPDEST PUSH2 0xB0C PUSH32 0x1A2D728AA46805068BA37A024A7CD578983F92F5363889EA9625BCE32FD6AE52 PUSH1 0x0 SHL PUSH2 0x2C80 JUMP JUMPDEST PUSH1 0x2 SLOAD PUSH1 0x4 PUSH1 0x0 DUP8 DUP2 MSTORE PUSH1 0x20 ADD SWAP1 DUP2 MSTORE PUSH1 0x20 ADD PUSH1 0x0 KECCAK256 PUSH1 0x2 ADD PUSH1 0x0 DUP3 DUP3 SLOAD PUSH2 0xB34 SWAP2 SWAP1 PUSH2 0x3A94 JUMP JUMPDEST SWAP3 POP POP DUP2 SWAP1 SSTORE POP PUSH2 0xB67 PUSH32 0x299F1B50C4CFD2D528A7244731820F84CB41CDB1D924009C77C0D923ABD40DEF PUSH1 0x0 SHL PUSH2 0x2C80 JUMP JUMPDEST PUSH2 0xB93 PUSH32 0xFB9786EC1C223005BCB2B68F79F627797643DA0E48EFF42811B3E556C46679CF PUSH1 0x0 SHL PUSH2 0x2C80 JUMP JUMPDEST PUSH1 0x1 PUSH1 0x4 PUSH1 0x0 DUP8 DUP2 MSTORE PUSH1 0x20 ADD SWAP1 DUP2 MSTORE PUSH1 0x20 ADD PUSH1 0x0 KECCAK256 PUSH1 0x1 ADD DUP3 DUP2 SLOAD DUP2 LT PUSH2 0xBE3 JUMPI PUSH32 0x4E487B7100000000000000000000000000000000000000000000000000000000 PUSH1 0x0 MSTORE PUSH1 0x32 PUSH1 0x4 MSTORE PUSH1 0x24 PUSH1 0x0 REVERT JUMPDEST SWAP1 PUSH1 0x0 MSTORE PUSH1 0x20 PUSH1 0x0 KECCAK256 ADD PUSH1 0x0 DUP3 DUP3 SLOAD PUSH2 0xBFC SWAP2 SWAP1 PUSH2 0x3A94 JUMP JUMPDEST SWAP3 POP POP DUP2 SWAP1 SSTORE POP PUSH2 0xC2F PUSH32 0xC3657CBD43446045FA75EC3C1E8B152B69A6901CCFCFE35373E3DE6B24CFE915 PUSH1 0x0 SHL PUSH2 0x2C80 JUMP JUMPDEST PUSH2 0xC5B PUSH32 0xE2D23C08F259FBEDCA4BDC6FB467B08BF6CFE277D60A47435A3EB1F45508CF5 PUSH1 0x0 SHL PUSH2 0x2C80 JUMP JUMPDEST PUSH1 0x0 PUSH1 0x4 PUSH1 0x0 DUP8 DUP2 MSTORE PUSH1 0x20 ADD SWAP1 DUP2 MSTORE PUSH1 0x20 ADD PUSH1 0x0 KECCAK256 PUSH1 0x1 ADD DUP3 DUP2 SLOAD DUP2 LT PUSH2 0xCAB JUMPI PUSH32 0x4E487B7100000000000000000000000000000000000000000000000000000000 PUSH1 0x0 MSTORE PUSH1 0x32 PUSH1 0x4 MSTORE PUSH1 0x24 PUSH1 0x0 REVERT JUMPDEST SWAP1 PUSH1 0x0 MSTORE PUSH1 0x20 PUSH1 0x0 KECCAK256 ADD SLOAD SWAP1 POP PUSH2 0xCE4 PUSH32 0xC90A694ADAE1B48797C98A03758EA41423FAD0B378D20F6B97041E38867FDB2F PUSH1 0x0 SHL PUSH2 0x2C80 JUMP JUMPDEST PUSH2 0xD10 PUSH32 0x437D7FEA4785354CE43C95EEE035A94B43F5D46369D35879BA054998285C2801 PUSH1 0x0 SHL PUSH2 0x2C80 JUMP JUMPDEST DUP3 PUSH1 0xA0 ADD MLOAD DUP2 LT PUSH2 0x1008 JUMPI PUSH2 0xD47 PUSH32 0x4EFB6056C18820B450BF93D53ED474C31B39A61BE85225B2513F99EFFBDABC2C PUSH1 0x0 SHL PUSH2 0x2C80 JUMP JUMPDEST PUSH2 0xD73 PUSH32 0x1338EEFDECC633B8B2679F453517C59D9FD3A0BBF04AB168E1FABA6DAEEFC72B PUSH1 0x0 SHL PUSH2 0x2C80 JUMP JUMPDEST PUSH2 0xD9F PUSH32 0xFC8036D63B0DE0FE6EB0F8F0C5F2CDBBDC7F100DCADA7F50813EF62F4FC7DC82 PUSH1 0x0 SHL PUSH2 0x2C80 JUMP JUMPDEST DUP3 PUSH1 0xA0 ADD MLOAD DUP2 GT ISZERO PUSH2 0xF41 JUMPI PUSH2 0xDD7 PUSH32 0x167E9660EFC2C54F9BEE1408B484477BFB52C041FA32F11DF9C8780CABF8B900 PUSH1 0x0 SHL PUSH2 0x2C80 JUMP JUMPDEST PUSH2 0xE03 PUSH32 0x452822AED699821B55D2F621C1FC900085945BD82F65C24D6D45E04E524FF63B PUSH1 0x0 SHL PUSH2 0x2C80 JUMP JUMPDEST PUSH2 0xE2F PUSH32 0x1F2AD402370A355BF2D4C0296334914D83DAB11803D774DE78F57FB567F65097 PUSH1 0x0 SHL PUSH2 0x2C80 JUMP JUMPDEST PUSH1 0x0 PUSH8 0xFFFFFFFFFFFFFFFF DUP2 GT ISZERO PUSH2 0xE70 JUMPI PUSH32 0x4E487B7100000000000000000000000000000000000000000000000000000000 PUSH1 0x0 MSTORE PUSH1 0x41 PUSH1 0x4 MSTORE PUSH1 0x24 PUSH1 0x0 REVERT JUMPDEST PUSH1 0x40 MLOAD SWAP1 DUP1 DUP3 MSTORE DUP1 PUSH1 0x20 MUL PUSH1 0x20 ADD DUP3 ADD PUSH1 0x40 MSTORE DUP1 ISZERO PUSH2 0xE9E JUMPI DUP2 PUSH1 0x20 ADD PUSH1 0x20 DUP3 MUL DUP1 CALLDATASIZE DUP4 CALLDATACOPY DUP1 DUP3 ADD SWAP2 POP POP SWAP1 POP JUMPDEST POP PUSH1 0x4 PUSH1 0x0 DUP9 DUP2 MSTORE PUSH1 0x20 ADD SWAP1 DUP2 MSTORE PUSH1 0x20 ADD PUSH1 0x0 KECCAK256 PUSH1 0x6 ADD SWAP1 DUP1 MLOAD SWAP1 PUSH1 0x20 ADD SWAP1 PUSH2 0xEC8 SWAP3 SWAP2 SWAP1 PUSH2 0x3029 JUMP JUMPDEST POP PUSH2 0xEF5 PUSH32 0x7E64F2801491DF314115B780734CEACD29B141EE03AB9D1BA159F6F677E0607C PUSH1 0x0 SHL PUSH2 0x2C80 JUMP JUMPDEST PUSH2 0xF21 PUSH32 0x2AAA60285E385F1CCF24D07C94E70F77C768E73F728BBB0C8EDE96E8B3D04723 PUSH1 0x0 SHL PUSH2 0x2C80 JUMP JUMPDEST DUP1 PUSH1 0x4 PUSH1 0x0 DUP9 DUP2 MSTORE PUSH1 0x20 ADD SWAP1 DUP2 MSTORE PUSH1 0x20 ADD PUSH1 0x0 KECCAK256 PUSH1 0x5 ADD DUP2 SWAP1 SSTORE POP PUSH2 0xF6E JUMP JUMPDEST PUSH2 0xF6D PUSH32 0xEC273E105AA0CFE75806FC30AD31CD5BFAE048BDAA9BA938E51C03E36D9B08CF PUSH1 0x0 SHL PUSH2 0x2C80 JUMP JUMPDEST JUMPDEST PUSH2 0xF9A PUSH32 0x7A966D0B2A85BD7C1AD03717ECDBD85C33BD4BEBC52928D666D19A9A99FE0089 PUSH1 0x0 SHL PUSH2 0x2C80 JUMP JUMPDEST PUSH2 0xFC6 PUSH32 0xDDD4445B943A50D271C945A421F580AF485A6B9AF58A2329586615A661D4231B PUSH1 0x0 SHL PUSH2 0x2C80 JUMP JUMPDEST PUSH1 0x4 PUSH1 0x0 DUP8 DUP2 MSTORE PUSH1 0x20 ADD SWAP1 DUP2 MSTORE PUSH1 0x20 ADD PUSH1 0x0 KECCAK256 PUSH1 0x6 ADD DUP3 SWAP1 DUP1 PUSH1 0x1 DUP2 SLOAD ADD DUP1 DUP3 SSTORE DUP1 SWAP2 POP POP PUSH1 0x1 SWAP1 SUB SWAP1 PUSH1 0x0 MSTORE PUSH1 0x20 PUSH1 0x0 KECCAK256 ADD PUSH1 0x0 SWAP1 SWAP2 SWAP1 SWAP2 SWAP1 SWAP2 POP SSTORE PUSH2 0x1035 JUMP JUMPDEST PUSH2 0x1034 PUSH32 0x9763EAC277753A21DD777EB1CE3F770E6ED316F678E8BE70ADC4F86A4F2C55B4 PUSH1 0x0 SHL PUSH2 0x2C80 JUMP JUMPDEST JUMPDEST PUSH2 0x1061 PUSH32 0x250D77E7CEEC39928A327C28B163B48C52917F46233442F5E7BA5B2D88E2A08A PUSH1 0x0 SHL PUSH2 0x2C80 JUMP JUMPDEST PUSH2 0x108D PUSH32 0x2C9D991E18AB07D8375569A0FC79133F439E45E6DF2B01A56D1FE796C1020E5 PUSH1 0x0 SHL PUSH2 0x2C80 JUMP JUMPDEST DUP5 PUSH1 0x3 PUSH1 0x0 CALLER PUSH20 0xFFFFFFFFFFFFFFFFFFFFFFFFFFFFFFFFFFFFFFFF AND PUSH20 0xFFFFFFFFFFFFFFFFFFFFFFFFFFFFFFFFFFFFFFFF AND DUP2 MSTORE PUSH1 0x20 ADD SWAP1 DUP2 MSTORE PUSH1 0x20 ADD PUSH1 0x0 KECCAK256 PUSH1 0x0 DUP9 DUP2 MSTORE PUSH1 0x20 ADD SWAP1 DUP2 MSTORE PUSH1 0x20 ADD PUSH1 0x0 KECCAK256 PUSH1 0x0 PUSH2 0x100 EXP DUP2 SLOAD DUP2 PUSH20 0xFFFFFFFFFFFFFFFFFFFFFFFFFFFFFFFFFFFFFFFF MUL NOT AND SWAP1 DUP4 PUSH20 0xFFFFFFFFFFFFFFFFFFFFFFFFFFFFFFFFFFFFFFFF AND MUL OR SWAP1 SSTORE POP POP POP POP POP POP POP JUMP JUMPDEST PUSH1 0x0 DUP2 PUSH2 0x1153 PUSH32 0xC148E1BFA2681C9499977B8A8FAD7DFE59365BCD8D7C5A165DCCAA56A6DE132C PUSH1 0x0 SHL PUSH2 0x2C80 JUMP JUMPDEST PUSH2 0x117F PUSH32 0x676F97CAFA9F6AD2E4B11A4CB795C78D7BF773F0F6CFB6051EC0262D312DB516 PUSH1 0x0 SHL PUSH2 0x2C80 JUMP JUMPDEST PUSH2 0x11AB PUSH32 0x1203730EB8A51B45AFAB71EE436AD36CB83C9D64856CB57E9AD32750E763D600 PUSH1 0x0 SHL PUSH2 0x2C80 JUMP JUMPDEST PUSH2 0x11D7 PUSH32 0x45EE78D7DE8466D1BD41BD9EB80E924BD1DF6B2F11B70A16D86C4FF9165F88D7 PUSH1 0x0 SHL PUSH2 0x2C80 JUMP JUMPDEST PUSH1 0x0 PUSH1 0x4 PUSH1 0x0 DUP4 DUP2 MSTORE PUSH1 0x20 ADD SWAP1 DUP2 MSTORE PUSH1 0x20 ADD PUSH1 0x0 KECCAK256 PUSH1 0x3 ADD SLOAD GT PUSH2 0x1230 JUMPI PUSH1 0x40 MLOAD PUSH32 0x8C379A000000000000000000000000000000000000000000000000000000000 DUP2 MSTORE PUSH1 0x4 ADD PUSH2 0x1227 SWAP1 PUSH2 0x388D JUMP JUMPDEST PUSH1 0x40 MLOAD DUP1 SWAP2 SUB SWAP1 REVERT JUMPDEST PUSH2 0x125C PUSH32 0xDBC47415DAA014FE812DB0FFAFA2A772A588ED59475BF2D0FFDF017CC691A8FE PUSH1 0x0 SHL PUSH2 0x2C80 JUMP JUMPDEST PUSH2 0x1288 PUSH32 0x874D2511F3E997DFFAA2DF51735E901FBD270B4B2E28A9E8F6BD7B93EC3C0F90 PUSH1 0x0 SHL PUSH2 0x2C80 JUMP JUMPDEST PUSH2 0x12B4 PUSH32 0x4E5F40C436F0C05C8D1D3CEF669BB7FE28F3823AE1B81A0D98000C7A0A92429A PUSH1 0x0 SHL PUSH2 0x2C80 JUMP JUMPDEST PUSH2 0x12E0 PUSH32 0xE41A2EFB1307ED15528BFE221A251651F839949088B2A762BCEA591E70C27EA8 PUSH1 0x0 SHL PUSH2 0x2C80 JUMP JUMPDEST PUSH2 0x130C PUSH32 0x2ADAC983F43C644D982981676D93C4726FB766A796E295C9DF867256C23173E8 PUSH1 0x0 SHL PUSH2 0x2C80 JUMP JUMPDEST PUSH1 0x3 PUSH1 0x0 DUP6 PUSH20 0xFFFFFFFFFFFFFFFFFFFFFFFFFFFFFFFFFFFFFFFF AND PUSH20 0xFFFFFFFFFFFFFFFFFFFFFFFFFFFFFFFFFFFFFFFF AND DUP2 MSTORE PUSH1 0x20 ADD SWAP1 DUP2 MSTORE PUSH1 0x20 ADD PUSH1 0x0 KECCAK256 PUSH1 0x0 DUP5 DUP2 MSTORE PUSH1 0x20 ADD SWAP1 DUP2 MSTORE PUSH1 0x20 ADD PUSH1 0x0 KECCAK256 PUSH1 0x0 SWAP1 SLOAD SWAP1 PUSH2 0x100 EXP SWAP1 DIV PUSH20 0xFFFFFFFFFFFFFFFFFFFFFFFFFFFFFFFFFFFFFFFF AND SWAP2 POP POP SWAP3 SWAP2 POP POP JUMP JUMPDEST PUSH2 0x138E PUSH2 0x3076 JUMP JUMPDEST DUP2 PUSH2 0x13BB PUSH32 0xC148E1BFA2681C9499977B8A8FAD7DFE59365BCD8D7C5A165DCCAA56A6DE132C PUSH1 0x0 SHL PUSH2 0x2C80 JUMP JUMPDEST PUSH2 0x13E7 PUSH32 0x676F97CAFA9F6AD2E4B11A4CB795C78D7BF773F0F6CFB6051EC0262D312DB516 PUSH1 0x0 SHL PUSH2 0x2C80 JUMP JUMPDEST PUSH2 0x1413 PUSH32 0x1203730EB8A51B45AFAB71EE436AD36CB83C9D64856CB57E9AD32750E763D600 PUSH1 0x0 SHL PUSH2 0x2C80 JUMP JUMPDEST PUSH2 0x143F PUSH32 0x45EE78D7DE8466D1BD41BD9EB80E924BD1DF6B2F11B70A16D86C4FF9165F88D7 PUSH1 0x0 SHL PUSH2 0x2C80 JUMP JUMPDEST PUSH1 0x0 PUSH1 0x4 PUSH1 0x0 DUP4 DUP2 MSTORE PUSH1 0x20 ADD SWAP1 DUP2 MSTORE PUSH1 0x20 ADD PUSH1 0x0 KECCAK256 PUSH1 0x3 ADD SLOAD GT PUSH2 0x1498 JUMPI PUSH1 0x40 MLOAD PUSH32 0x8C379A000000000000000000000000000000000000000000000000000000000 DUP2 MSTORE PUSH1 0x4 ADD PUSH2 0x148F SWAP1 PUSH2 0x388D JUMP JUMPDEST PUSH1 0x40 MLOAD DUP1 SWAP2 SUB SWAP1 REVERT JUMPDEST PUSH2 0x14C4 PUSH32 0xDBC47415DAA014FE812DB0FFAFA2A772A588ED59475BF2D0FFDF017CC691A8FE PUSH1 0x0 SHL PUSH2 0x2C80 JUMP JUMPDEST PUSH2 0x14F0 PUSH32 0x874D2511F3E997DFFAA2DF51735E901FBD270B4B2E28A9E8F6BD7B93EC3C0F90 PUSH1 0x0 SHL PUSH2 0x2C80 JUMP JUMPDEST PUSH2 0x151C PUSH32 0x679573E349AA99B050098DC5AE6FEF33BDEF4F6A09B2E6FD073038300AE884DB PUSH1 0x0 SHL PUSH2 0x2C80 JUMP JUMPDEST PUSH2 0x1548 PUSH32 0x7616016E6A8BC38647058E7EB37135FB55C0CD859A001FCE3CB5FD68443C78C PUSH1 0x0 SHL PUSH2 0x2C80 JUMP JUMPDEST PUSH2 0x1574 PUSH32 0x514A5E7563815415685E507585E249F3D10F7C963939C73596DE4FA1BE7CFF69 PUSH1 0x0 SHL PUSH2 0x2C80 JUMP JUMPDEST PUSH1 0x4 PUSH1 0x0 DUP5 DUP2 MSTORE PUSH1 0x20 ADD SWAP1 DUP2 MSTORE PUSH1 0x20 ADD PUSH1 0x0 KECCAK256 PUSH1 0x40 MLOAD DUP1 PUSH1 0xE0 ADD PUSH1 0x40 MSTORE SWAP1 DUP2 PUSH1 0x0 DUP3 ADD DUP1 SLOAD DUP1 PUSH1 0x20 MUL PUSH1 0x20 ADD PUSH1 0x40 MLOAD SWAP1 DUP2 ADD PUSH1 0x40 MSTORE DUP1 SWAP3 SWAP2 SWAP1 DUP2 DUP2 MSTORE PUSH1 0x20 ADD DUP3 DUP1 SLOAD DUP1 ISZERO PUSH2 0x1617 JUMPI PUSH1 0x20 MUL DUP3 ADD SWAP2 SWAP1 PUSH1 0x0 MSTORE PUSH1 0x20 PUSH1 0x0 KECCAK256 SWAP1 JUMPDEST DUP2 PUSH1 0x0 SWAP1 SLOAD SWAP1 PUSH2 0x100 EXP SWAP1 DIV PUSH20 0xFFFFFFFFFFFFFFFFFFFFFFFFFFFFFFFFFFFFFFFF AND PUSH20 0xFFFFFFFFFFFFFFFFFFFFFFFFFFFFFFFFFFFFFFFF AND DUP2 MSTORE PUSH1 0x20 ADD SWAP1 PUSH1 0x1 ADD SWAP1 DUP1 DUP4 GT PUSH2 0x15CD JUMPI JUMPDEST POP POP POP POP POP DUP2 MSTORE PUSH1 0x20 ADD PUSH1 0x1 DUP3 ADD DUP1 SLOAD DUP1 PUSH1 0x20 MUL PUSH1 0x20 ADD PUSH1 0x40 MLOAD SWAP1 DUP2 ADD PUSH1 0x40 MSTORE DUP1 SWAP3 SWAP2 SWAP1 DUP2 DUP2 MSTORE PUSH1 0x20 ADD DUP3 DUP1 SLOAD DUP1 ISZERO PUSH2 0x166F JUMPI PUSH1 0x20 MUL DUP3 ADD SWAP2 SWAP1 PUSH1 0x0 MSTORE PUSH1 0x20 PUSH1 0x0 KECCAK256 SWAP1 JUMPDEST DUP2 SLOAD DUP2 MSTORE PUSH1 0x20 ADD SWAP1 PUSH1 0x1 ADD SWAP1 DUP1 DUP4 GT PUSH2 0x165B JUMPI JUMPDEST POP POP POP POP POP DUP2 MSTORE PUSH1 0x20 ADD PUSH1 0x2 DUP3 ADD SLOAD DUP2 MSTORE PUSH1 0x20 ADD PUSH1 0x3 DUP3 ADD SLOAD DUP2 MSTORE PUSH1 0x20 ADD PUSH1 0x4 DUP3 ADD PUSH1 0x0 SWAP1 SLOAD SWAP1 PUSH2 0x100 EXP SWAP1 DIV PUSH1 0xFF AND ISZERO ISZERO ISZERO ISZERO DUP2 MSTORE PUSH1 0x20 ADD PUSH1 0x5 DUP3 ADD SLOAD DUP2 MSTORE PUSH1 0x20 ADD PUSH1 0x6 DUP3 ADD DUP1 SLOAD DUP1 PUSH1 0x20 MUL PUSH1 0x20 ADD PUSH1 0x40 MLOAD SWAP1 DUP2 ADD PUSH1 0x40 MSTORE DUP1 SWAP3 SWAP2 SWAP1 DUP2 DUP2 MSTORE PUSH1 0x20 ADD DUP3 DUP1 SLOAD DUP1 ISZERO PUSH2 0x1700 JUMPI PUSH1 0x20 MUL DUP3 ADD SWAP2 SWAP1 PUSH1 0x0 MSTORE PUSH1 0x20 PUSH1 0x0 KECCAK256 SWAP1 JUMPDEST DUP2 SLOAD DUP2 MSTORE PUSH1 0x20 ADD SWAP1 PUSH1 0x1 ADD SWAP1 DUP1 DUP4 GT PUSH2 0x16EC JUMPI JUMPDEST POP POP POP POP POP DUP2 MSTORE POP POP SWAP2 POP POP SWAP2 SWAP1 POP JUMP JUMPDEST PUSH2 0x173D PUSH32 0x1E9F658AD1FD58DE831BB7943087615DD118675A0F6DD9EF2A27B517B9451ACB PUSH1 0x0 SHL PUSH2 0x2C80 JUMP JUMPDEST PUSH2 0x1769 PUSH32 0x941D3CB7593987CC0BBCDA0B0BC55880402179975BE93F603D14DBD1A47CE1A1 PUSH1 0x0 SHL PUSH2 0x2C80 JUMP JUMPDEST PUSH2 0x1795 PUSH32 0x1D65E875BBD11FD8989E5F26CB40EF5A74912481DB665867036B0C2CC007D6CB PUSH1 0x0 SHL PUSH2 0x2C80 JUMP JUMPDEST PUSH2 0x17C1 PUSH32 0xD71943F7A30AA4461DF4F8369B8E1D1F05455EE6D976FF454344BA80F57741ED PUSH1 0x0 SHL PUSH2 0x2C80 JUMP JUMPDEST PUSH1 0x0 DUP1 SLOAD SWAP1 PUSH2 0x100 EXP SWAP1 DIV PUSH20 0xFFFFFFFFFFFFFFFFFFFFFFFFFFFFFFFFFFFFFFFF AND PUSH20 0xFFFFFFFFFFFFFFFFFFFFFFFFFFFFFFFFFFFFFFFF AND CALLER PUSH20 0xFFFFFFFFFFFFFFFFFFFFFFFFFFFFFFFFFFFFFFFF AND EQ PUSH2 0x184F JUMPI PUSH1 0x40 MLOAD PUSH32 0x8C379A000000000000000000000000000000000000000000000000000000000 DUP2 MSTORE PUSH1 0x4 ADD PUSH2 0x1846 SWAP1 PUSH2 0x38AD JUMP JUMPDEST PUSH1 0x40 MLOAD DUP1 SWAP2 SUB SWAP1 REVERT JUMPDEST PUSH2 0x187B PUSH32 0x6EEC500AB9A19A7D7827F4F2770B2352D9D34CFE5252090D93D3A3DA69ABD709 PUSH1 0x0 SHL PUSH2 0x2C80 JUMP JUMPDEST PUSH2 0x18A7 PUSH32 0x75305D5069DF457386EC88AD6209BA65242B0D8EB15A7BB43B41EEE4B69D8154 PUSH1 0x0 SHL PUSH2 0x2C80 JUMP JUMPDEST PUSH2 0x18D3 PUSH32 0xAB74AA254A73C90CD902676B8A3E4EB1BC296E14236D60DC3EBAA349FDEBC648 PUSH1 0x0 SHL PUSH2 0x2C80 JUMP JUMPDEST PUSH2 0x18FF PUSH32 0x3A25A3EFC98C9F2BAEDB99F53707072992F5D288E5FB1573F43524FA0D9C7A2B PUSH1 0x0 SHL PUSH2 0x2C80 JUMP JUMPDEST PUSH2 0x192B PUSH32 0xC22E9CA7169FD7B5E2FF6FFACB097C4AFD27A7D82E949A2B58FDD20DFEA0F2DF PUSH1 0x0 SHL PUSH2 0x2C80 JUMP JUMPDEST PUSH2 0x1957 PUSH32 0x78010B05795712FE56D7645A576C1F921FC930EF1E2C5FB80FB073C3D9D66096 PUSH1 0x0 SHL PUSH2 0x2C80 JUMP JUMPDEST PUSH1 0x2 DUP2 MLOAD LT ISZERO PUSH2 0x199C JUMPI PUSH1 0x40 MLOAD PUSH32 0x8C379A000000000000000000000000000000000000000000000000000000000 DUP2 MSTORE PUSH1 0x4 ADD PUSH2 0x1993 SWAP1 PUSH2 0x382D JUMP JUMPDEST PUSH1 0x40 MLOAD DUP1 SWAP2 SUB SWAP1 REVERT JUMPDEST PUSH2 0x19C8 PUSH32 0x5996C9899DD5ACD3E47A3E3C132C40810E243576D2FC52E4BE2833C55A78BA1A PUSH1 0x0 SHL PUSH2 0x2C80 JUMP JUMPDEST PUSH2 0x19F4 PUSH32 0xABD9974C7059DBA7420C3D73F9C9758BC0CBF5E110E7AC4E3E80DD56006CF964 PUSH1 0x0 SHL PUSH2 0x2C80 JUMP JUMPDEST PUSH2 0x1A20 PUSH32 0x5FD2E2B47E9D26648658612FAA185887A57B850250911FF5FF0ED68A4C8E772E PUSH1 0x0 SHL PUSH2 0x2C80 JUMP JUMPDEST PUSH1 0x0 PUSH1 0x5 PUSH1 0x0 DUP2 SLOAD DUP1 SWAP3 SWAP2 SWAP1 PUSH2 0x1A35 SWAP1 PUSH2 0x3BF1 JUMP JUMPDEST SWAP2 SWAP1 POP SSTORE SWAP1 POP PUSH2 0x1A67 PUSH32 0xECE02EBBCCB27F725783D17EE6182CA9F5C5AF5E5A26F3DBA4A1E19D6C8E56F5 PUSH1 0x0 SHL PUSH2 0x2C80 JUMP JUMPDEST PUSH2 0x1A93 PUSH32 0xD82D3DD293B82CC251389CE8B6BA236421389134EA860BA9DF4278E63555AEF5 PUSH1 0x0 SHL PUSH2 0x2C80 JUMP JUMPDEST PUSH1 0x40 MLOAD DUP1 PUSH1 0xE0 ADD PUSH1 0x40 MSTORE DUP1 DUP4 DUP2 MSTORE PUSH1 0x20 ADD DUP4 MLOAD PUSH8 0xFFFFFFFFFFFFFFFF DUP2 GT ISZERO PUSH2 0x1AE5 JUMPI PUSH32 0x4E487B7100000000000000000000000000000000000000000000000000000000 PUSH1 0x0 MSTORE PUSH1 0x41 PUSH1 0x4 MSTORE PUSH1 0x24 PUSH1 0x0 REVERT JUMPDEST PUSH1 0x40 MLOAD SWAP1 DUP1 DUP3 MSTORE DUP1 PUSH1 0x20 MUL PUSH1 0x20 ADD DUP3 ADD PUSH1 0x40 MSTORE DUP1 ISZERO PUSH2 0x1B13 JUMPI DUP2 PUSH1 0x20 ADD PUSH1 0x20 DUP3 MUL DUP1 CALLDATASIZE DUP4 CALLDATACOPY DUP1 DUP3 ADD SWAP2 POP POP SWAP1 POP JUMPDEST POP DUP2 MSTORE PUSH1 0x20 ADD PUSH1 0x0 DUP2 MSTORE PUSH1 0x20 ADD TIMESTAMP DUP2 MSTORE PUSH1 0x20 ADD PUSH1 0x0 ISZERO ISZERO DUP2 MSTORE PUSH1 0x20 ADD PUSH1 0x0 DUP2 MSTORE PUSH1 0x20 ADD PUSH1 0x0 PUSH8 0xFFFFFFFFFFFFFFFF DUP2 GT ISZERO PUSH2 0x1B77 JUMPI PUSH32 0x4E487B7100000000000000000000000000000000000000000000000000000000 PUSH1 0x0 MSTORE PUSH1 0x41 PUSH1 0x4 MSTORE PUSH1 0x24 PUSH1 0x0 REVERT JUMPDEST PUSH1 0x40 MLOAD SWAP1 DUP1 DUP3 MSTORE DUP1 PUSH1 0x20 MUL PUSH1 0x20 ADD DUP3 ADD PUSH1 0x40 MSTORE DUP1 ISZERO PUSH2 0x1BA5 JUMPI DUP2 PUSH1 0x20 ADD PUSH1 0x20 DUP3 MUL DUP1 CALLDATASIZE DUP4 CALLDATACOPY DUP1 DUP3 ADD SWAP2 POP POP SWAP1 POP JUMPDEST POP DUP2 MSTORE POP PUSH1 0x4 PUSH1 0x0 DUP4 DUP2 MSTORE PUSH1 0x20 ADD SWAP1 DUP2 MSTORE PUSH1 0x20 ADD PUSH1 0x0 KECCAK256 PUSH1 0x0 DUP3 ADD MLOAD DUP2 PUSH1 0x0 ADD SWAP1 DUP1 MLOAD SWAP1 PUSH1 0x20 ADD SWAP1 PUSH2 0x1BD8 SWAP3 SWAP2 SWAP1 PUSH2 0x30B5 JUMP JUMPDEST POP PUSH1 0x20 DUP3 ADD MLOAD DUP2 PUSH1 0x1 ADD SWAP1 DUP1 MLOAD SWAP1 PUSH1 0x20 ADD SWAP1 PUSH2 0x1BF5 SWAP3 SWAP2 SWAP1 PUSH2 0x3029 JUMP JUMPDEST POP PUSH1 0x40 DUP3 ADD MLOAD DUP2 PUSH1 0x2 ADD SSTORE PUSH1 0x60 DUP3 ADD MLOAD DUP2 PUSH1 0x3 ADD SSTORE PUSH1 0x80 DUP3 ADD MLOAD DUP2 PUSH1 0x4 ADD PUSH1 0x0 PUSH2 0x100 EXP DUP2 SLOAD DUP2 PUSH1 0xFF MUL NOT AND SWAP1 DUP4 ISZERO ISZERO MUL OR SWAP1 SSTORE POP PUSH1 0xA0 DUP3 ADD MLOAD DUP2 PUSH1 0x5 ADD SSTORE PUSH1 0xC0 DUP3 ADD MLOAD DUP2 PUSH1 0x6 ADD SWAP1 DUP1 MLOAD SWAP1 PUSH1 0x20 ADD SWAP1 PUSH2 0x1C50 SWAP3 SWAP2 SWAP1 PUSH2 0x3029 JUMP JUMPDEST POP SWAP1 POP POP POP POP JUMP JUMPDEST DUP1 PUSH2 0x1C85 PUSH32 0xC148E1BFA2681C9499977B8A8FAD7DFE59365BCD8D7C5A165DCCAA56A6DE132C PUSH1 0x0 SHL PUSH2 0x2C80 JUMP JUMPDEST PUSH2 0x1CB1 PUSH32 0x676F97CAFA9F6AD2E4B11A4CB795C78D7BF773F0F6CFB6051EC0262D312DB516 PUSH1 0x0 SHL PUSH2 0x2C80 JUMP JUMPDEST PUSH2 0x1CDD PUSH32 0x1203730EB8A51B45AFAB71EE436AD36CB83C9D64856CB57E9AD32750E763D600 PUSH1 0x0 SHL PUSH2 0x2C80 JUMP JUMPDEST PUSH2 0x1D09 PUSH32 0x45EE78D7DE8466D1BD41BD9EB80E924BD1DF6B2F11B70A16D86C4FF9165F88D7 PUSH1 0x0 SHL PUSH2 0x2C80 JUMP JUMPDEST PUSH1 0x0 PUSH1 0x4 PUSH1 0x0 DUP4 DUP2 MSTORE PUSH1 0x20 ADD SWAP1 DUP2 MSTORE PUSH1 0x20 ADD PUSH1 0x0 KECCAK256 PUSH1 0x3 ADD SLOAD GT PUSH2 0x1D62 JUMPI PUSH1 0x40 MLOAD PUSH32 0x8C379A000000000000000000000000000000000000000000000000000000000 DUP2 MSTORE PUSH1 0x4 ADD PUSH2 0x1D59 SWAP1 PUSH2 0x388D JUMP JUMPDEST PUSH1 0x40 MLOAD DUP1 SWAP2 SUB SWAP1 REVERT JUMPDEST PUSH2 0x1D8E PUSH32 0xDBC47415DAA014FE812DB0FFAFA2A772A588ED59475BF2D0FFDF017CC691A8FE PUSH1 0x0 SHL PUSH2 0x2C80 JUMP JUMPDEST PUSH2 0x1DBA PUSH32 0x874D2511F3E997DFFAA2DF51735E901FBD270B4B2E28A9E8F6BD7B93EC3C0F90 PUSH1 0x0 SHL PUSH2 0x2C80 JUMP JUMPDEST PUSH2 0x1DE6 PUSH32 0x7C355A5D6525C9737F9D5E1871ABAEC3A573985F9FE6E106BEAD5A7D700CBA1D PUSH1 0x0 SHL PUSH2 0x2C80 JUMP JUMPDEST PUSH2 0x1E12 PUSH32 0x7F63FCAE09A675D51FBE5F620F00FCF7E62ABBCD755F0F448587A0315B935BD7 PUSH1 0x0 SHL PUSH2 0x2C80 JUMP JUMPDEST PUSH2 0x1E3E PUSH32 0x6E9EC907183E2FD0154714BF8C78DC8E6E7B76A4180CD722808ACA8299E0F99D PUSH1 0x0 SHL PUSH2 0x2C80 JUMP JUMPDEST PUSH1 0x0 TIMESTAMP SWAP1 POP PUSH2 0x1E6F PUSH32 0x710DCD3B967E0A727BBAA393ED4FF185097AF3D5EE4AE1759D54C13F9D5213B3 PUSH1 0x0 SHL PUSH2 0x2C80 JUMP JUMPDEST PUSH2 0x1E9B PUSH32 0xE5CD82D87F746C1E09D7D4AB8A77CB731470188ECAD90686F198778487CFFEC4 PUSH1 0x0 SHL PUSH2 0x2C80 JUMP JUMPDEST PUSH1 0x0 PUSH1 0x4 PUSH1 0x0 DUP6 DUP2 MSTORE PUSH1 0x20 ADD SWAP1 DUP2 MSTORE PUSH1 0x20 ADD PUSH1 0x0 KECCAK256 PUSH1 0x40 MLOAD DUP1 PUSH1 0xE0 ADD PUSH1 0x40 MSTORE SWAP1 DUP2 PUSH1 0x0 DUP3 ADD DUP1 SLOAD DUP1 PUSH1 0x20 MUL PUSH1 0x20 ADD PUSH1 0x40 MLOAD SWAP1 DUP2 ADD PUSH1 0x40 MSTORE DUP1 SWAP3 SWAP2 SWAP1 DUP2 DUP2 MSTORE PUSH1 0x20 ADD DUP3 DUP1 SLOAD DUP1 ISZERO PUSH2 0x1F40 JUMPI PUSH1 0x20 MUL DUP3 ADD SWAP2 SWAP1 PUSH1 0x0 MSTORE PUSH1 0x20 PUSH1 0x0 KECCAK256 SWAP1 JUMPDEST DUP2 PUSH1 0x0 SWAP1 SLOAD SWAP1 PUSH2 0x100 EXP SWAP1 DIV PUSH20 0xFFFFFFFFFFFFFFFFFFFFFFFFFFFFFFFFFFFFFFFF AND PUSH20 0xFFFFFFFFFFFFFFFFFFFFFFFFFFFFFFFFFFFFFFFF AND DUP2 MSTORE PUSH1 0x20 ADD SWAP1 PUSH1 0x1 ADD SWAP1 DUP1 DUP4 GT PUSH2 0x1EF6 JUMPI JUMPDEST POP POP POP POP POP DUP2 MSTORE PUSH1 0x20 ADD PUSH1 0x1 DUP3 ADD DUP1 SLOAD DUP1 PUSH1 0x20 MUL PUSH1 0x20 ADD PUSH1 0x40 MLOAD SWAP1 DUP2 ADD PUSH1 0x40 MSTORE DUP1 SWAP3 SWAP2 SWAP1 DUP2 DUP2 MSTORE PUSH1 0x20 ADD DUP3 DUP1 SLOAD DUP1 ISZERO PUSH2 0x1F98 JUMPI PUSH1 0x20 MUL DUP3 ADD SWAP2 SWAP1 PUSH1 0x0 MSTORE PUSH1 0x20 PUSH1 0x0 KECCAK256 SWAP1 JUMPDEST DUP2 SLOAD DUP2 MSTORE PUSH1 0x20 ADD SWAP1 PUSH1 0x1 ADD SWAP1 DUP1 DUP4 GT PUSH2 0x1F84 JUMPI JUMPDEST POP POP POP POP POP DUP2 MSTORE PUSH1 0x20 ADD PUSH1 0x2 DUP3 ADD SLOAD DUP2 MSTORE PUSH1 0x20 ADD PUSH1 0x3 DUP3 ADD SLOAD DUP2 MSTORE PUSH1 0x20 ADD PUSH1 0x4 DUP3 ADD PUSH1 0x0 SWAP1 SLOAD SWAP1 PUSH2 0x100 EXP SWAP1 DIV PUSH1 0xFF AND ISZERO ISZERO ISZERO ISZERO DUP2 MSTORE PUSH1 0x20 ADD PUSH1 0x5 DUP3 ADD SLOAD DUP2 MSTORE PUSH1 0x20 ADD PUSH1 0x6 DUP3 ADD DUP1 SLOAD DUP1 PUSH1 0x20 MUL PUSH1 0x20 ADD PUSH1 0x40 MLOAD SWAP1 DUP2 ADD PUSH1 0x40 MSTORE DUP1 SWAP3 SWAP2 SWAP1 DUP2 DUP2 MSTORE PUSH1 0x20 ADD DUP3 DUP1 SLOAD DUP1 ISZERO PUSH2 0x2029 JUMPI PUSH1 0x20 MUL DUP3 ADD SWAP2 SWAP1 PUSH1 0x0 MSTORE PUSH1 0x20 PUSH1 0x0 KECCAK256 SWAP1 JUMPDEST DUP2 SLOAD DUP2 MSTORE PUSH1 0x20 ADD SWAP1 PUSH1 0x1 ADD SWAP1 DUP1 DUP4 GT PUSH2 0x2015 JUMPI JUMPDEST POP POP POP POP POP DUP2 MSTORE POP POP SWAP1 POP PUSH2 0x2060 PUSH32 0x29979E62B7412F7426D7C69D8F0D8FB174589826D176CD382FCD0BB577681716 PUSH1 0x0 SHL PUSH2 0x2C80 JUMP JUMPDEST PUSH2 0x208C PUSH32 0x1EB42DD7A55BB005BE43542FF4F26268A4D3EDF36FAFCD198199D55E7B4B1DBB PUSH1 0x0 SHL PUSH2 0x2C80 JUMP JUMPDEST PUSH2 0x20B8 PUSH32 0x81AFA5854E21A44815D5EAFE921613A6E7A2DAD0C4F4848AFBFE7831BAA294A2 PUSH1 0x0 SHL PUSH2 0x2C80 JUMP JUMPDEST PUSH3 0x3F480 DUP2 PUSH1 0x60 ADD MLOAD DUP4 PUSH2 0x20CC SWAP2 SWAP1 PUSH2 0x3B75 JUMP JUMPDEST LT ISZERO PUSH2 0x210D JUMPI PUSH1 0x40 MLOAD PUSH32 0x8C379A000000000000000000000000000000000000000000000000000000000 DUP2 MSTORE PUSH1 0x4 ADD PUSH2 0x2104 SWAP1 PUSH2 0x392D JUMP JUMPDEST PUSH1 0x40 MLOAD DUP1 SWAP2 SUB SWAP1 REVERT JUMPDEST PUSH2 0x2139 PUSH32 0x603302070D4FD841377002335AD091945382ECA4A77C8CC1F62A44132C3DF699 PUSH1 0x0 SHL PUSH2 0x2C80 JUMP JUMPDEST PUSH2 0x2165 PUSH32 0x4ADED810094E60C66EF11CE478C772BF90347DA3BC0668CD8B97A2519B18CF8C PUSH1 0x0 SHL PUSH2 0x2C80 JUMP JUMPDEST PUSH2 0x2191 PUSH32 0xFC3A5B38E3490AE16F02F8B3469CE5D5997B5D5FD4FCA047E66FBDCDC6BF193E PUSH1 0x0 SHL PUSH2 0x2C80 JUMP JUMPDEST PUSH1 0x1 PUSH1 0x4 PUSH1 0x0 DUP7 DUP2 MSTORE PUSH1 0x20 ADD SWAP1 DUP2 MSTORE PUSH1 0x20 ADD PUSH1 0x0 KECCAK256 PUSH1 0x4 ADD PUSH1 0x0 PUSH2 0x100 EXP DUP2 SLOAD DUP2 PUSH1 0xFF MUL NOT AND SWAP1 DUP4 ISZERO ISZERO MUL OR SWAP1 SSTORE POP PUSH2 0x21EC PUSH32 0x8BA5D452FCCF8E9073CAAD24ED50EE17EC81E313036D531375352593B20A4D43 PUSH1 0x0 SHL PUSH2 0x2C80 JUMP JUMPDEST PUSH2 0x2218 PUSH32 0x2EAB8D7EDE1642382F001815EF5A2EF9AB05E8C974F385C0E6E7E0E87ECC699 PUSH1 0x0 SHL PUSH2 0x2C80 JUMP JUMPDEST PUSH1 0x0 DUP2 PUSH1 0xC0 ADD MLOAD MLOAD SWAP1 POP PUSH2 0x224E PUSH32 0x407CAF284FDBF58E6CC31380D2CFD5E44C362014A96456A9C5B593F44BE88936 PUSH1 0x0 SHL PUSH2 0x2C80 JUMP JUMPDEST PUSH2 0x227A PUSH32 0x2E6106F43BC4DB2661772B4F508B27FD0152B2E6B2E7C915FF98B50F41DD9F64 PUSH1 0x0 SHL PUSH2 0x2C80 JUMP JUMPDEST PUSH1 0x0 DUP2 GT ISZERO PUSH2 0x2625 JUMPI PUSH2 0x22AF PUSH32 0xAF01501A662E99F0E966C612E784C29186E7078B27932115532782C4FBE14673 PUSH1 0x0 SHL PUSH2 0x2C80 JUMP JUMPDEST PUSH2 0x22DB PUSH32 0x230226EF771757F6D24EF9517DDB57E741B1E28892CB3F0C3DEB5DC60D4EFEA0 PUSH1 0x0 SHL PUSH2 0x2C80 JUMP JUMPDEST PUSH2 0x2307 PUSH32 0x1A9DEC76F8DE7DDABDD6C160CB80BEA3E5B7DDE2B6DE7563A9E97ADCE6B1E1D7 PUSH1 0x0 SHL PUSH2 0x2C80 JUMP JUMPDEST PUSH1 0x0 PUSH1 0x64 PUSH1 0x1 SLOAD PUSH1 0x64 PUSH2 0x231A SWAP2 SWAP1 PUSH2 0x3B75 JUMP JUMPDEST DUP5 PUSH1 0x40 ADD MLOAD PUSH2 0x2329 SWAP2 SWAP1 PUSH2 0x3B1B JUMP JUMPDEST PUSH2 0x2333 SWAP2 SWAP1 PUSH2 0x3AEA JUMP JUMPDEST SWAP1 POP PUSH2 0x2361 PUSH32 0xFA0180F9C65395E2D839D08FCA09A8FA9273D7691CA4EAAAF2343309325CBA8A PUSH1 0x0 SHL PUSH2 0x2C80 JUMP JUMPDEST PUSH2 0x238D PUSH32 0xC874AFC822D30D1AFBA46A46D115B3DDA2931F389E15842A535762D9FE018420 PUSH1 0x0 SHL PUSH2 0x2C80 JUMP JUMPDEST DUP1 PUSH1 0x4 PUSH1 0x0 DUP9 DUP2 MSTORE PUSH1 0x20 ADD SWAP1 DUP2 MSTORE PUSH1 0x20 ADD PUSH1 0x0 KECCAK256 PUSH1 0x2 ADD PUSH1 0x0 DUP3 DUP3 SLOAD PUSH2 0x23B3 SWAP2 SWAP1 PUSH2 0x3B75 JUMP JUMPDEST SWAP3 POP POP DUP2 SWAP1 SSTORE POP PUSH2 0x23E6 PUSH32 0xCA7161B8F3C7A8BE21B5F681D7375656E5E7CFD8E21DB50AF0C77256951E4EAC PUSH1 0x0 SHL PUSH2 0x2C80 JUMP JUMPDEST PUSH2 0x2412 PUSH32 0x6E42EEBFC9BB2565896AD9F7FC7DCEE1EEACB9C94502DA5690FBEFA10554BC08 PUSH1 0x0 SHL PUSH2 0x2C80 JUMP JUMPDEST PUSH1 0x0 DUP3 DUP3 PUSH2 0x2420 SWAP2 SWAP1 PUSH2 0x3AEA JUMP JUMPDEST SWAP1 POP PUSH2 0x244E PUSH32 0x66F0F2C162416C6AF63D2F2348D84C9B06A9782FB84112BC76BF5290FAC6FAC5 PUSH1 0x0 SHL PUSH2 0x2C80 JUMP JUMPDEST PUSH2 0x247A PUSH32 0x9802A4FD770453FD15E2CB4AFB8B6FE44C8F4859A8DAE1A1A7A66C38A0E9BFAE PUSH1 0x0 SHL PUSH2 0x2C80 JUMP JUMPDEST PUSH1 0x0 JUMPDEST DUP4 DUP2 LT ISZERO PUSH2 0x261D JUMPI PUSH2 0x24B1 PUSH32 0xA416F7E28EF8A2143795DC4E46EBFD00985EF4F6E6E20523BC4871B544DEC7A0 PUSH1 0x0 SHL PUSH2 0x2C80 JUMP JUMPDEST PUSH2 0x24DD PUSH32 0x2C27FA5D65D85B25878F206019649221EB36EB9455C3E7402CB2824B8E1399AF PUSH1 0x0 SHL PUSH2 0x2C80 JUMP JUMPDEST PUSH1 0x0 DUP6 PUSH1 0x0 ADD MLOAD DUP7 PUSH1 0xC0 ADD MLOAD DUP4 DUP2 MLOAD DUP2 LT PUSH2 0x2521 JUMPI PUSH32 0x4E487B7100000000000000000000000000000000000000000000000000000000 PUSH1 0x0 MSTORE PUSH1 0x32 PUSH1 0x4 MSTORE PUSH1 0x24 PUSH1 0x0 REVERT JUMPDEST PUSH1 0x20 MUL PUSH1 0x20 ADD ADD MLOAD DUP2 MLOAD DUP2 LT PUSH2 0x2560 JUMPI PUSH32 0x4E487B7100000000000000000000000000000000000000000000000000000000 PUSH1 0x0 MSTORE PUSH1 0x32 PUSH1 0x4 MSTORE PUSH1 0x24 PUSH1 0x0 REVERT JUMPDEST PUSH1 0x20 MUL PUSH1 0x20 ADD ADD MLOAD SWAP1 POP PUSH2 0x2596 PUSH32 0x147BD1640C66E3E7F9C314495DE6EFA1F27802E968173F71FDEFBDAC6A805069 PUSH1 0x0 SHL PUSH2 0x2C80 JUMP JUMPDEST PUSH2 0x25C2 PUSH32 0x5A5E8046EDA269693FE8FA4D84B35276FC24CB6C466DE425FB465E0912D28BC3 PUSH1 0x0 SHL PUSH2 0x2C80 JUMP JUMPDEST DUP1 PUSH20 0xFFFFFFFFFFFFFFFFFFFFFFFFFFFFFFFFFFFFFFFF AND PUSH2 0x8FC DUP5 SWAP1 DUP2 ISZERO MUL SWAP1 PUSH1 0x40 MLOAD PUSH1 0x0 PUSH1 0x40 MLOAD DUP1 DUP4 SUB DUP2 DUP6 DUP9 DUP9 CALL SWAP4 POP POP POP POP ISZERO DUP1 ISZERO PUSH2 0x2608 JUMPI RETURNDATASIZE PUSH1 0x0 DUP1 RETURNDATACOPY RETURNDATASIZE PUSH1 0x0 REVERT JUMPDEST POP POP DUP1 DUP1 PUSH2 0x2615 SWAP1 PUSH2 0x3BF1 JUMP JUMPDEST SWAP2 POP POP PUSH2 0x247D JUMP JUMPDEST POP POP POP PUSH2 0x2652 JUMP JUMPDEST PUSH2 0x2651 PUSH32 0xFC3A9B7B37DE75C1622CF6A79AC99B4C303732BE4922D78CE72E2B266202BB83 PUSH1 0x0 SHL PUSH2 0x2C80 JUMP JUMPDEST JUMPDEST POP POP POP POP POP JUMP JUMPDEST PUSH1 0x4 PUSH1 0x20 MSTORE DUP1 PUSH1 0x0 MSTORE PUSH1 0x40 PUSH1 0x0 KECCAK256 PUSH1 0x0 SWAP2 POP SWAP1 POP DUP1 PUSH1 0x2 ADD SLOAD SWAP1 DUP1 PUSH1 0x3 ADD SLOAD SWAP1 DUP1 PUSH1 0x4 ADD PUSH1 0x0 SWAP1 SLOAD SWAP1 PUSH2 0x100 EXP SWAP1 DIV PUSH1 0xFF AND SWAP1 DUP1 PUSH1 0x5 ADD SLOAD SWAP1 POP DUP5 JUMP JUMPDEST PUSH1 0x0 DUP1 SLOAD SWAP1 PUSH2 0x100 EXP SWAP1 DIV PUSH20 0xFFFFFFFFFFFFFFFFFFFFFFFFFFFFFFFFFFFFFFFF AND DUP2 JUMP JUMPDEST PUSH2 0x26E6 PUSH32 0x1E9F658AD1FD58DE831BB7943087615DD118675A0F6DD9EF2A27B517B9451ACB PUSH1 0x0 SHL PUSH2 0x2C80 JUMP JUMPDEST PUSH2 0x2712 PUSH32 0x941D3CB7593987CC0BBCDA0B0BC55880402179975BE93F603D14DBD1A47CE1A1 PUSH1 0x0 SHL PUSH2 0x2C80 JUMP JUMPDEST PUSH2 0x273E PUSH32 0x1D65E875BBD11FD8989E5F26CB40EF5A74912481DB665867036B0C2CC007D6CB PUSH1 0x0 SHL PUSH2 0x2C80 JUMP JUMPDEST PUSH2 0x276A PUSH32 0xD71943F7A30AA4461DF4F8369B8E1D1F05455EE6D976FF454344BA80F57741ED PUSH1 0x0 SHL PUSH2 0x2C80 JUMP JUMPDEST PUSH1 0x0 DUP1 SLOAD SWAP1 PUSH2 0x100 EXP SWAP1 DIV PUSH20 0xFFFFFFFFFFFFFFFFFFFFFFFFFFFFFFFFFFFFFFFF AND PUSH20 0xFFFFFFFFFFFFFFFFFFFFFFFFFFFFFFFFFFFFFFFF AND CALLER PUSH20 0xFFFFFFFFFFFFFFFFFFFFFFFFFFFFFFFFFFFFFFFF AND EQ PUSH2 0x27F8 JUMPI PUSH1 0x40 MLOAD PUSH32 0x8C379A000000000000000000000000000000000000000000000000000000000 DUP2 MSTORE PUSH1 0x4 ADD PUSH2 0x27EF SWAP1 PUSH2 0x38AD JUMP JUMPDEST PUSH1 0x40 MLOAD DUP1 SWAP2 SUB SWAP1 REVERT JUMPDEST PUSH2 0x2824 PUSH32 0x6EEC500AB9A19A7D7827F4F2770B2352D9D34CFE5252090D93D3A3DA69ABD709 PUSH1 0x0 SHL PUSH2 0x2C80 JUMP JUMPDEST PUSH2 0x2850 PUSH32 0x75305D5069DF457386EC88AD6209BA65242B0D8EB15A7BB43B41EEE4B69D8154 PUSH1 0x0 SHL PUSH2 0x2C80 JUMP JUMPDEST DUP1 PUSH2 0x287D PUSH32 0xC148E1BFA2681C9499977B8A8FAD7DFE59365BCD8D7C5A165DCCAA56A6DE132C PUSH1 0x0 SHL PUSH2 0x2C80 JUMP JUMPDEST PUSH2 0x28A9 PUSH32 0x676F97CAFA9F6AD2E4B11A4CB795C78D7BF773F0F6CFB6051EC0262D312DB516 PUSH1 0x0 SHL PUSH2 0x2C80 JUMP JUMPDEST PUSH2 0x28D5 PUSH32 0x1203730EB8A51B45AFAB71EE436AD36CB83C9D64856CB57E9AD32750E763D600 PUSH1 0x0 SHL PUSH2 0x2C80 JUMP JUMPDEST PUSH2 0x2901 PUSH32 0x45EE78D7DE8466D1BD41BD9EB80E924BD1DF6B2F11B70A16D86C4FF9165F88D7 PUSH1 0x0 SHL PUSH2 0x2C80 JUMP JUMPDEST PUSH1 0x0 PUSH1 0x4 PUSH1 0x0 DUP4 DUP2 MSTORE PUSH1 0x20 ADD SWAP1 DUP2 MSTORE PUSH1 0x20 ADD PUSH1 0x0 KECCAK256 PUSH1 0x3 ADD SLOAD GT PUSH2 0x295A JUMPI PUSH1 0x40 MLOAD PUSH32 0x8C379A000000000000000000000000000000000000000000000000000000000 DUP2 MSTORE PUSH1 0x4 ADD PUSH2 0x2951 SWAP1 PUSH2 0x388D JUMP JUMPDEST PUSH1 0x40 MLOAD DUP1 SWAP2 SUB SWAP1 REVERT JUMPDEST PUSH2 0x2986 PUSH32 0xDBC47415DAA014FE812DB0FFAFA2A772A588ED59475BF2D0FFDF017CC691A8FE PUSH1 0x0 SHL PUSH2 0x2C80 JUMP JUMPDEST PUSH2 0x29B2 PUSH32 0x874D2511F3E997DFFAA2DF51735E901FBD270B4B2E28A9E8F6BD7B93EC3C0F90 PUSH1 0x0 SHL PUSH2 0x2C80 JUMP JUMPDEST PUSH2 0x29DE PUSH32 0xBEADBAAE1735DA0193431555D2EBD1C20B6A86C84DE684A377557B356D5C0642 PUSH1 0x0 SHL PUSH2 0x2C80 JUMP JUMPDEST PUSH2 0x2A0A PUSH32 0x6AE51BA4C1F6A5657606EA7A310327CA933E05DB1D56144D32C9428AD2008B76 PUSH1 0x0 SHL PUSH2 0x2C80 JUMP JUMPDEST PUSH2 0x2A36 PUSH32 0xD3DBEDF8C67F1C8C341BDBC599B4186C4E811DF613B132D0939BA86E067570B3 PUSH1 0x0 SHL PUSH2 0x2C80 JUMP JUMPDEST PUSH2 0x2A62 PUSH32 0x630658AFE09CDDB5E8EEAE8989880A8FCA96612F7963C16C8E458E4F34525CFE PUSH1 0x0 SHL PUSH2 0x2C80 JUMP JUMPDEST PUSH1 0x4 PUSH1 0x0 DUP4 DUP2 MSTORE PUSH1 0x20 ADD SWAP1 DUP2 MSTORE PUSH1 0x20 ADD PUSH1 0x0 KECCAK256 PUSH1 0x4 ADD PUSH1 0x0 SWAP1 SLOAD SWAP1 PUSH2 0x100 EXP SWAP1 DIV PUSH1 0xFF AND PUSH2 0x2AC5 JUMPI PUSH1 0x40 MLOAD PUSH32 0x8C379A000000000000000000000000000000000000000000000000000000000 DUP2 MSTORE PUSH1 0x4 ADD PUSH2 0x2ABC SWAP1 PUSH2 0x38ED JUMP JUMPDEST PUSH1 0x40 MLOAD DUP1 SWAP2 SUB SWAP1 REVERT JUMPDEST PUSH2 0x2AF1 PUSH32 0xFF28F649AD3FBA1894A031294E2D50F3F66B9E79F185DD053F661AB6747605C1 PUSH1 0x0 SHL PUSH2 0x2C80 JUMP JUMPDEST PUSH2 0x2B1D PUSH32 0x47B09872B69A3AC8E11A0F6AC1E89192FEBF74611A77108EC7960C43BB294E2D PUSH1 0x0 SHL PUSH2 0x2C80 JUMP JUMPDEST PUSH2 0x2B49 PUSH32 0xA5E2D4F24D2D1C45208CF9904D8D514830FEC97005492B5F51F761A2F0F82E3F PUSH1 0x0 SHL PUSH2 0x2C80 JUMP JUMPDEST PUSH1 0x0 DUP1 SLOAD SWAP1 PUSH2 0x100 EXP SWAP1 DIV PUSH20 0xFFFFFFFFFFFFFFFFFFFFFFFFFFFFFFFFFFFFFFFF AND PUSH20 0xFFFFFFFFFFFFFFFFFFFFFFFFFFFFFFFFFFFFFFFF AND PUSH2 0x8FC PUSH1 0x4 PUSH1 0x0 DUP6 DUP2 MSTORE PUSH1 0x20 ADD SWAP1 DUP2 MSTORE PUSH1 0x20 ADD PUSH1 0x0 KECCAK256 PUSH1 0x2 ADD SLOAD SWAP1 DUP2 ISZERO MUL SWAP1 PUSH1 0x40 MLOAD PUSH1 0x0 PUSH1 0x40 MLOAD DUP1 DUP4 SUB DUP2 DUP6 DUP9 DUP9 CALL SWAP4 POP POP POP POP ISZERO DUP1 ISZERO PUSH2 0x2BC5 JUMPI RETURNDATASIZE PUSH1 0x0 DUP1 RETURNDATACOPY RETURNDATASIZE PUSH1 0x0 REVERT JUMPDEST POP PUSH2 0x2BF2 PUSH32 0x1213C2C44FE90F22EEE4C1C6349A2C96E01C70B55527DE96BA27ECFCF8E83551 PUSH1 0x0 SHL PUSH2 0x2C80 JUMP JUMPDEST PUSH2 0x2C1E PUSH32 0xB0D643D6639116C52790869499EFEFC9D55A7FCBE9FDF9862E610C09ABEE734D PUSH1 0x0 SHL PUSH2 0x2C80 JUMP JUMPDEST PUSH1 0x0 PUSH1 0x4 PUSH1 0x0 DUP5 DUP2 MSTORE PUSH1 0x20 ADD SWAP1 DUP2 MSTORE PUSH1 0x20 ADD PUSH1 0x0 KECCAK256 PUSH1 0x2 ADD DUP2 SWAP1 SSTORE POP POP POP JUMP JUMPDEST PUSH1 0x3 PUSH1 0x20 MSTORE DUP2 PUSH1 0x0 MSTORE PUSH1 0x40 PUSH1 0x0 KECCAK256 PUSH1 0x20 MSTORE DUP1 PUSH1 0x0 MSTORE PUSH1 0x40 PUSH1 0x0 KECCAK256 PUSH1 0x0 SWAP2 POP SWAP2 POP SWAP1 SLOAD SWAP1 PUSH2 0x100 EXP SWAP1 DIV PUSH20 0xFFFFFFFFFFFFFFFFFFFFFFFFFFFFFFFFFFFFFFFF AND DUP2 JUMP JUMPDEST POP JUMP JUMPDEST PUSH1 0x0 PUSH2 0x2CB1 PUSH32 0x45BFC6DE8459854C5AABBC3A28CA0BDF09B1070484735D2B5A0BA92831FCB880 PUSH1 0x0 SHL PUSH2 0x2C80 JUMP JUMPDEST PUSH2 0x2CDD PUSH32 0x58E93DC8FDE5CB473E6FB6E59E2737221A699E4B96AA804230797EE1366EFA24 PUSH1 0x0 SHL PUSH2 0x2C80 JUMP JUMPDEST PUSH2 0x2D09 PUSH32 0x6BA2D802DD2DF83983075C6CDA80657DCA415C7AB47ADACBE67F630C4CFB782A PUSH1 0x0 SHL PUSH2 0x2C80 JUMP JUMPDEST PUSH1 0x0 PUSH1 0x4 PUSH1 0x0 DUP6 DUP2 MSTORE PUSH1 0x20 ADD SWAP1 DUP2 MSTORE PUSH1 0x20 ADD PUSH1 0x0 KECCAK256 PUSH1 0x0 ADD DUP1 SLOAD DUP1 PUSH1 0x20 MUL PUSH1 0x20 ADD PUSH1 0x40 MLOAD SWAP1 DUP2 ADD PUSH1 0x40 MSTORE DUP1 SWAP3 SWAP2 SWAP1 DUP2 DUP2 MSTORE PUSH1 0x20 ADD DUP3 DUP1 SLOAD DUP1 ISZERO PUSH2 0x2DA1 JUMPI PUSH1 0x20 MUL DUP3 ADD SWAP2 SWAP1 PUSH1 0x0 MSTORE PUSH1 0x20 PUSH1 0x0 KECCAK256 SWAP1 JUMPDEST DUP2 PUSH1 0x0 SWAP1 SLOAD SWAP1 PUSH2 0x100 EXP SWAP1 DIV PUSH20 0xFFFFFFFFFFFFFFFFFFFFFFFFFFFFFFFFFFFFFFFF AND PUSH20 0xFFFFFFFFFFFFFFFFFFFFFFFFFFFFFFFFFFFFFFFF AND DUP2 MSTORE PUSH1 0x20 ADD SWAP1 PUSH1 0x1 ADD SWAP1 DUP1 DUP4 GT PUSH2 0x2D57 JUMPI JUMPDEST POP POP POP POP POP SWAP1 POP PUSH2 0x2DD4 PUSH32 0x4FEB8D5DE4670A721F7EFBD596E42C33E678DEEEB4188B1A4AD0BDA09222D156 PUSH1 0x0 SHL PUSH2 0x2C80 JUMP JUMPDEST PUSH2 0x2E00 PUSH32 0x5F00609D54CEE7009FBF5D92099502D15BE089C07CBD669F994A95404BC04015 PUSH1 0x0 SHL PUSH2 0x2C80 JUMP JUMPDEST PUSH1 0x0 JUMPDEST DUP2 MLOAD DUP2 LT ISZERO PUSH2 0x2FA5 JUMPI PUSH2 0x2E38 PUSH32 0xD117CFF30ED2A593BDBFD84D89492C3C22B7F897898027CB1E2E5BFA49BEAB6B PUSH1 0x0 SHL PUSH2 0x2C80 JUMP JUMPDEST PUSH2 0x2E64 PUSH32 0xCC012D3131470F2F65ECB5602D3CB0B9703368C64E398DE15351AF055821CA8F PUSH1 0x0 SHL PUSH2 0x2C80 JUMP JUMPDEST DUP4 PUSH20 0xFFFFFFFFFFFFFFFFFFFFFFFFFFFFFFFFFFFFFFFF AND DUP3 DUP3 DUP2 MLOAD DUP2 LT PUSH2 0x2EB4 JUMPI PUSH32 0x4E487B7100000000000000000000000000000000000000000000000000000000 PUSH1 0x0 MSTORE PUSH1 0x32 PUSH1 0x4 MSTORE PUSH1 0x24 PUSH1 0x0 REVERT JUMPDEST PUSH1 0x20 MUL PUSH1 0x20 ADD ADD MLOAD PUSH20 0xFFFFFFFFFFFFFFFFFFFFFFFFFFFFFFFFFFFFFFFF AND EQ ISZERO PUSH2 0x2F66 JUMPI PUSH2 0x2F04 PUSH32 0x4056ECDB045A7A76434A11CB71A3412767AF92431F8C5E756B8B7D43E2B1CF8F PUSH1 0x0 SHL PUSH2 0x2C80 JUMP JUMPDEST PUSH2 0x2F30 PUSH32 0xC7C378FB8FB33B656B9510D6666D75E7E1E1462D3160C5A87DC5AABE0C5E0277 PUSH1 0x0 SHL PUSH2 0x2C80 JUMP JUMPDEST PUSH2 0x2F5C PUSH32 0x5E43FC1BF6B57BC87303E082565875B294A3A933AEC57E55503E4852F24F468A PUSH1 0x0 SHL PUSH2 0x2C80 JUMP JUMPDEST DUP1 SWAP3 POP POP POP PUSH2 0x3023 JUMP JUMPDEST PUSH2 0x2F92 PUSH32 0xB5BA0AE833BA56A3CC435CA3140B2743464C8491CF2FE15DF5998D70FF93E1D6 PUSH1 0x0 SHL PUSH2 0x2C80 JUMP JUMPDEST DUP1 DUP1 PUSH2 0x2F9D SWAP1 PUSH2 0x3BF1 JUMP JUMPDEST SWAP2 POP POP PUSH2 0x2E03 JUMP JUMPDEST POP PUSH2 0x2FD2 PUSH32 0x99CCC7856A86D6A13140694CE3062F3D33DD5BD717532709439BCF28C2B89568 PUSH1 0x0 SHL PUSH2 0x2C80 JUMP JUMPDEST PUSH2 0x2FFE PUSH32 0xABEFD3DAB22377BD261B35993A8966E649464F4AA1DA377A40F0F321CA2DC783 PUSH1 0x0 SHL PUSH2 0x2C80 JUMP JUMPDEST PUSH32 0xFFFFFFFFFFFFFFFFFFFFFFFFFFFFFFFFFFFFFFFFFFFFFFFFFFFFFFFFFFFFFFFF SWAP2 POP POP JUMPDEST SWAP3 SWAP2 POP POP JUMP JUMPDEST DUP3 DUP1 SLOAD DUP3 DUP3 SSTORE SWAP1 PUSH1 0x0 MSTORE PUSH1 0x20 PUSH1 0x0 KECCAK256 SWAP1 DUP2 ADD SWAP3 DUP3 ISZERO PUSH2 0x3065 JUMPI SWAP2 PUSH1 0x20 MUL DUP3 ADD JUMPDEST DUP3 DUP2 GT ISZERO PUSH2 0x3064 JUMPI DUP3 MLOAD DUP3 SSTORE SWAP2 PUSH1 0x20 ADD SWAP2 SWAP1 PUSH1 0x1 ADD SWAP1 PUSH2 0x3049 JUMP JUMPDEST JUMPDEST POP SWAP1 POP PUSH2 0x3072 SWAP2 SWAP1 PUSH2 0x313F JUMP JUMPDEST POP SWAP1 JUMP JUMPDEST PUSH1 0x40 MLOAD DUP1 PUSH1 0xE0 ADD PUSH1 0x40 MSTORE DUP1 PUSH1 0x60 DUP2 MSTORE PUSH1 0x20 ADD PUSH1 0x60 DUP2 MSTORE PUSH1 0x20 ADD PUSH1 0x0 DUP2 MSTORE PUSH1 0x20 ADD PUSH1 0x0 DUP2 MSTORE PUSH1 0x20 ADD PUSH1 0x0 ISZERO ISZERO DUP2 MSTORE PUSH1 0x20 ADD PUSH1 0x0 DUP2 MSTORE PUSH1 0x20 ADD PUSH1 0x60 DUP2 MSTORE POP SWAP1 JUMP JUMPDEST DUP3 DUP1 SLOAD DUP3 DUP3 SSTORE SWAP1 PUSH1 0x0 MSTORE PUSH1 0x20 PUSH1 0x0 KECCAK256 SWAP1 DUP2 ADD SWAP3 DUP3 ISZERO PUSH2 0x312E JUMPI SWAP2 PUSH1 0x20 MUL DUP3 ADD JUMPDEST DUP3 DUP2 GT ISZERO PUSH2 0x312D JUMPI DUP3 MLOAD DUP3 PUSH1 0x0 PUSH2 0x100 EXP DUP2 SLOAD DUP2 PUSH20 0xFFFFFFFFFFFFFFFFFFFFFFFFFFFFFFFFFFFFFFFF MUL NOT AND SWAP1 DUP4 PUSH20 0xFFFFFFFFFFFFFFFFFFFFFFFFFFFFFFFFFFFFFFFF AND MUL OR SWAP1 SSTORE POP SWAP2 PUSH1 0x20 ADD SWAP2 SWAP1 PUSH1 0x1 ADD SWAP1 PUSH2 0x30D5 JUMP JUMPDEST JUMPDEST POP SWAP1 POP PUSH2 0x313B SWAP2 SWAP1 PUSH2 0x313F JUMP JUMPDEST POP SWAP1 JUMP JUMPDEST JUMPDEST DUP1 DUP3 GT ISZERO PUSH2 0x3158 JUMPI PUSH1 0x0 DUP2 PUSH1 0x0 SWAP1 SSTORE POP PUSH1 0x1 ADD PUSH2 0x3140 JUMP JUMPDEST POP SWAP1 JUMP JUMPDEST PUSH1 0x0 PUSH2 0x316F PUSH2 0x316A DUP5 PUSH2 0x39E5 JUMP JUMPDEST PUSH2 0x39B4 JUMP JUMPDEST SWAP1 POP DUP1 DUP4 DUP3 MSTORE PUSH1 0x20 DUP3 ADD SWAP1 POP DUP3 DUP6 PUSH1 0x20 DUP7 MUL DUP3 ADD GT ISZERO PUSH2 0x318E JUMPI PUSH1 0x0 DUP1 REVERT JUMPDEST PUSH1 0x0 JUMPDEST DUP6 DUP2 LT ISZERO PUSH2 0x31BE JUMPI DUP2 PUSH2 0x31A4 DUP9 DUP3 PUSH2 0x31C8 JUMP JUMPDEST DUP5 MSTORE PUSH1 0x20 DUP5 ADD SWAP4 POP PUSH1 0x20 DUP4 ADD SWAP3 POP POP PUSH1 0x1 DUP2 ADD SWAP1 POP PUSH2 0x3191 JUMP JUMPDEST POP POP POP SWAP4 SWAP3 POP POP POP JUMP JUMPDEST PUSH1 0x0 DUP2 CALLDATALOAD SWAP1 POP PUSH2 0x31D7 DUP2 PUSH2 0x3CC7 JUMP JUMPDEST SWAP3 SWAP2 POP POP JUMP JUMPDEST PUSH1 0x0 DUP3 PUSH1 0x1F DUP4 ADD SLT PUSH2 0x31EE JUMPI PUSH1 0x0 DUP1 REVERT JUMPDEST DUP2 CALLDATALOAD PUSH2 0x31FE DUP5 DUP3 PUSH1 0x20 DUP7 ADD PUSH2 0x315C JUMP JUMPDEST SWAP2 POP POP SWAP3 SWAP2 POP POP JUMP JUMPDEST PUSH1 0x0 DUP2 CALLDATALOAD SWAP1 POP PUSH2 0x3216 DUP2 PUSH2 0x3CDE JUMP JUMPDEST SWAP3 SWAP2 POP POP JUMP JUMPDEST PUSH1 0x0 DUP1 PUSH1 0x40 DUP4 DUP6 SUB SLT ISZERO PUSH2 0x322F JUMPI PUSH1 0x0 DUP1 REVERT JUMPDEST PUSH1 0x0 PUSH2 0x323D DUP6 DUP3 DUP7 ADD PUSH2 0x31C8 JUMP JUMPDEST SWAP3 POP POP PUSH1 0x20 PUSH2 0x324E DUP6 DUP3 DUP7 ADD PUSH2 0x3207 JUMP JUMPDEST SWAP2 POP POP SWAP3 POP SWAP3 SWAP1 POP JUMP JUMPDEST PUSH1 0x0 PUSH1 0x20 DUP3 DUP5 SUB SLT ISZERO PUSH2 0x326A JUMPI PUSH1 0x0 DUP1 REVERT JUMPDEST PUSH1 0x0 DUP3 ADD CALLDATALOAD PUSH8 0xFFFFFFFFFFFFFFFF DUP2 GT ISZERO PUSH2 0x3284 JUMPI PUSH1 0x0 DUP1 REVERT JUMPDEST PUSH2 0x3290 DUP5 DUP3 DUP6 ADD PUSH2 0x31DD JUMP JUMPDEST SWAP2 POP POP SWAP3 SWAP2 POP POP JUMP JUMPDEST PUSH1 0x0 PUSH1 0x20 DUP3 DUP5 SUB SLT ISZERO PUSH2 0x32AB JUMPI PUSH1 0x0 DUP1 REVERT JUMPDEST PUSH1 0x0 PUSH2 0x32B9 DUP5 DUP3 DUP6 ADD PUSH2 0x3207 JUMP JUMPDEST SWAP2 POP POP SWAP3 SWAP2 POP POP JUMP JUMPDEST PUSH1 0x0 DUP1 PUSH1 0x40 DUP4 DUP6 SUB SLT ISZERO PUSH2 0x32D5 JUMPI PUSH1 0x0 DUP1 REVERT JUMPDEST PUSH1 0x0 PUSH2 0x32E3 DUP6 DUP3 DUP7 ADD PUSH2 0x3207 JUMP JUMPDEST SWAP3 POP POP PUSH1 0x20 PUSH2 0x32F4 DUP6 DUP3 DUP7 ADD PUSH2 0x31C8 JUMP JUMPDEST SWAP2 POP POP SWAP3 POP SWAP3 SWAP1 POP JUMP JUMPDEST PUSH1 0x0 PUSH2 0x330A DUP4 DUP4 PUSH2 0x332E JUMP JUMPDEST PUSH1 0x20 DUP4 ADD SWAP1 POP SWAP3 SWAP2 POP POP JUMP JUMPDEST PUSH1 0x0 PUSH2 0x3322 DUP4 DUP4 PUSH2 0x37F4 JUMP JUMPDEST PUSH1 0x20 DUP4 ADD SWAP1 POP SWAP3 SWAP2 POP POP JUMP JUMPDEST PUSH2 0x3337 DUP2 PUSH2 0x3BA9 JUMP JUMPDEST DUP3 MSTORE POP POP JUMP JUMPDEST PUSH2 0x3346 DUP2 PUSH2 0x3BA9 JUMP JUMPDEST DUP3 MSTORE POP POP JUMP JUMPDEST PUSH1 0x0 PUSH2 0x3357 DUP3 PUSH2 0x3A31 JUMP JUMPDEST PUSH2 0x3361 DUP2 DUP6 PUSH2 0x3A61 JUMP JUMPDEST SWAP4 POP PUSH2 0x336C DUP4 PUSH2 0x3A11 JUMP JUMPDEST DUP1 PUSH1 0x0 JUMPDEST DUP4 DUP2 LT ISZERO PUSH2 0x339D JUMPI DUP2 MLOAD PUSH2 0x3384 DUP9 DUP3 PUSH2 0x32FE JUMP JUMPDEST SWAP8 POP PUSH2 0x338F DUP4 PUSH2 0x3A47 JUMP JUMPDEST SWAP3 POP POP PUSH1 0x1 DUP2 ADD SWAP1 POP PUSH2 0x3370 JUMP JUMPDEST POP DUP6 SWAP4 POP POP POP POP SWAP3 SWAP2 POP POP JUMP JUMPDEST PUSH1 0x0 PUSH2 0x33B5 DUP3 PUSH2 0x3A3C JUMP JUMPDEST PUSH2 0x33BF DUP2 DUP6 PUSH2 0x3A72 JUMP JUMPDEST SWAP4 POP PUSH2 0x33CA DUP4 PUSH2 0x3A21 JUMP JUMPDEST DUP1 PUSH1 0x0 JUMPDEST DUP4 DUP2 LT ISZERO PUSH2 0x33FB JUMPI DUP2 MLOAD PUSH2 0x33E2 DUP9 DUP3 PUSH2 0x3316 JUMP JUMPDEST SWAP8 POP PUSH2 0x33ED DUP4 PUSH2 0x3A54 JUMP JUMPDEST SWAP3 POP POP PUSH1 0x1 DUP2 ADD SWAP1 POP PUSH2 0x33CE JUMP JUMPDEST POP DUP6 SWAP4 POP POP POP POP SWAP3 SWAP2 POP POP JUMP JUMPDEST PUSH2 0x3411 DUP2 PUSH2 0x3BBB JUMP JUMPDEST DUP3 MSTORE POP POP JUMP JUMPDEST PUSH2 0x3420 DUP2 PUSH2 0x3BBB JUMP JUMPDEST DUP3 MSTORE POP POP JUMP JUMPDEST PUSH1 0x0 PUSH2 0x3433 PUSH1 0x2A DUP4 PUSH2 0x3A83 JUMP JUMPDEST SWAP2 POP PUSH32 0x41206E65772062616C6C6F742073686F756C6420636F6E7461696E203E3D2032 PUSH1 0x0 DUP4 ADD MSTORE PUSH32 0x2070726F706F73616C7300000000000000000000000000000000000000000000 PUSH1 0x20 DUP4 ADD MSTORE PUSH1 0x40 DUP3 ADD SWAP1 POP SWAP2 SWAP1 POP JUMP JUMPDEST PUSH1 0x0 PUSH2 0x3499 PUSH1 0x20 DUP4 PUSH2 0x3A83 JUMP JUMPDEST SWAP2 POP PUSH32 0x4E65656420746F206465706F73697420302E30312045544820746F20766F7465 PUSH1 0x0 DUP4 ADD MSTORE PUSH1 0x20 DUP3 ADD SWAP1 POP SWAP2 SWAP1 POP JUMP JUMPDEST PUSH1 0x0 PUSH2 0x34D9 PUSH1 0x24 DUP4 PUSH2 0x3A83 JUMP JUMPDEST SWAP2 POP PUSH32 0x5468657265206E6F20737563682070726F706F73616C20696E20746865206261 PUSH1 0x0 DUP4 ADD MSTORE PUSH32 0x6C6C6F7400000000000000000000000000000000000000000000000000000000 PUSH1 0x20 DUP4 ADD MSTORE PUSH1 0x40 DUP3 ADD SWAP1 POP SWAP2 SWAP1 POP JUMP JUMPDEST PUSH1 0x0 PUSH2 0x353F PUSH1 0x18 DUP4 PUSH2 0x3A83 JUMP JUMPDEST SWAP2 POP PUSH32 0x5468652062616C6C6F7420646F65736E27742065786973740000000000000000 PUSH1 0x0 DUP4 ADD MSTORE PUSH1 0x20 DUP3 ADD SWAP1 POP SWAP2 SWAP1 POP JUMP JUMPDEST PUSH1 0x0 PUSH2 0x357F PUSH1 0x24 DUP4 PUSH2 0x3A83 JUMP JUMPDEST SWAP2 POP PUSH32 0x5468652073656E64657220646F65736E27742068617665206F776E6572207269 PUSH1 0x0 DUP4 ADD MSTORE PUSH32 0x6768747300000000000000000000000000000000000000000000000000000000 PUSH1 0x20 DUP4 ADD MSTORE PUSH1 0x40 DUP3 ADD SWAP1 POP SWAP2 SWAP1 POP JUMP JUMPDEST PUSH1 0x0 PUSH2 0x35E5 PUSH1 0x25 DUP4 PUSH2 0x3A83 JUMP JUMPDEST SWAP2 POP PUSH32 0x5468652062616C6C6F742068617320616C7265616479206265656E20636F6D70 PUSH1 0x0 DUP4 ADD MSTORE PUSH32 0x6C65746564000000000000000000000000000000000000000000000000000000 PUSH1 0x20 DUP4 ADD MSTORE PUSH1 0x40 DUP3 ADD SWAP1 POP SWAP2 SWAP1 POP JUMP JUMPDEST PUSH1 0x0 PUSH2 0x364B PUSH1 0x24 DUP4 PUSH2 0x3A83 JUMP JUMPDEST SWAP2 POP PUSH32 0x5468652062616C6C6F74206861736E2774206265656E20636F6D706C65746564 PUSH1 0x0 DUP4 ADD MSTORE PUSH32 0x2079657400000000000000000000000000000000000000000000000000000000 PUSH1 0x20 DUP4 ADD MSTORE PUSH1 0x40 DUP3 ADD SWAP1 POP SWAP2 SWAP1 POP JUMP JUMPDEST PUSH1 0x0 PUSH2 0x36B1 PUSH1 0x1B DUP4 PUSH2 0x3A83 JUMP JUMPDEST SWAP2 POP PUSH32 0x54686520766F7465722068617320616C726561647920766F7465640000000000 PUSH1 0x0 DUP4 ADD MSTORE PUSH1 0x20 DUP3 ADD SWAP1 POP SWAP2 SWAP1 POP JUMP JUMPDEST PUSH1 0x0 PUSH2 0x36F1 PUSH1 0x2D DUP4 PUSH2 0x3A83 JUMP JUMPDEST SWAP2 POP PUSH32 0x5468652062616C6C6F742063616E20626520636F6D706C657465642061667465 PUSH1 0x0 DUP4 ADD MSTORE PUSH32 0x7220332064617973206F6E6C7900000000000000000000000000000000000000 PUSH1 0x20 DUP4 ADD MSTORE PUSH1 0x40 DUP3 ADD SWAP1 POP SWAP2 SWAP1 POP JUMP JUMPDEST PUSH1 0x0 PUSH1 0xE0 DUP4 ADD PUSH1 0x0 DUP4 ADD MLOAD DUP5 DUP3 SUB PUSH1 0x0 DUP7 ADD MSTORE PUSH2 0x3767 DUP3 DUP3 PUSH2 0x334C JUMP JUMPDEST SWAP2 POP POP PUSH1 0x20 DUP4 ADD MLOAD DUP5 DUP3 SUB PUSH1 0x20 DUP7 ADD MSTORE PUSH2 0x3781 DUP3 DUP3 PUSH2 0x33AA JUMP JUMPDEST SWAP2 POP POP PUSH1 0x40 DUP4 ADD MLOAD PUSH2 0x3796 PUSH1 0x40 DUP7 ADD DUP3 PUSH2 0x37F4 JUMP JUMPDEST POP PUSH1 0x60 DUP4 ADD MLOAD PUSH2 0x37A9 PUSH1 0x60 DUP7 ADD DUP3 PUSH2 0x37F4 JUMP JUMPDEST POP PUSH1 0x80 DUP4 ADD MLOAD PUSH2 0x37BC PUSH1 0x80 DUP7 ADD DUP3 PUSH2 0x3408 JUMP JUMPDEST POP PUSH1 0xA0 DUP4 ADD MLOAD PUSH2 0x37CF PUSH1 0xA0 DUP7 ADD DUP3 PUSH2 0x37F4 JUMP JUMPDEST POP PUSH1 0xC0 DUP4 ADD MLOAD DUP5 DUP3 SUB PUSH1 0xC0 DUP7 ADD MSTORE PUSH2 0x37E7 DUP3 DUP3 PUSH2 0x33AA JUMP JUMPDEST SWAP2 POP POP DUP1 SWAP2 POP POP SWAP3 SWAP2 POP POP JUMP JUMPDEST PUSH2 0x37FD DUP2 PUSH2 0x3BE7 JUMP JUMPDEST DUP3 MSTORE POP POP JUMP JUMPDEST PUSH2 0x380C DUP2 PUSH2 0x3BE7 JUMP JUMPDEST DUP3 MSTORE POP POP JUMP JUMPDEST PUSH1 0x0 PUSH1 0x20 DUP3 ADD SWAP1 POP PUSH2 0x3827 PUSH1 0x0 DUP4 ADD DUP5 PUSH2 0x333D JUMP JUMPDEST SWAP3 SWAP2 POP POP JUMP JUMPDEST PUSH1 0x0 PUSH1 0x20 DUP3 ADD SWAP1 POP DUP2 DUP2 SUB PUSH1 0x0 DUP4 ADD MSTORE PUSH2 0x3846 DUP2 PUSH2 0x3426 JUMP JUMPDEST SWAP1 POP SWAP2 SWAP1 POP JUMP JUMPDEST PUSH1 0x0 PUSH1 0x20 DUP3 ADD SWAP1 POP DUP2 DUP2 SUB PUSH1 0x0 DUP4 ADD MSTORE PUSH2 0x3866 DUP2 PUSH2 0x348C JUMP JUMPDEST SWAP1 POP SWAP2 SWAP1 POP JUMP JUMPDEST PUSH1 0x0 PUSH1 0x20 DUP3 ADD SWAP1 POP DUP2 DUP2 SUB PUSH1 0x0 DUP4 ADD MSTORE PUSH2 0x3886 DUP2 PUSH2 0x34CC JUMP JUMPDEST SWAP1 POP SWAP2 SWAP1 POP JUMP JUMPDEST PUSH1 0x0 PUSH1 0x20 DUP3 ADD SWAP1 POP DUP2 DUP2 SUB PUSH1 0x0 DUP4 ADD MSTORE PUSH2 0x38A6 DUP2 PUSH2 0x3532 JUMP JUMPDEST SWAP1 POP SWAP2 SWAP1 POP JUMP JUMPDEST PUSH1 0x0 PUSH1 0x20 DUP3 ADD SWAP1 POP DUP2 DUP2 SUB PUSH1 0x0 DUP4 ADD MSTORE PUSH2 0x38C6 DUP2 PUSH2 0x3572 JUMP JUMPDEST SWAP1 POP SWAP2 SWAP1 POP JUMP JUMPDEST PUSH1 0x0 PUSH1 0x20 DUP3 ADD SWAP1 POP DUP2 DUP2 SUB PUSH1 0x0 DUP4 ADD MSTORE PUSH2 0x38E6 DUP2 PUSH2 0x35D8 JUMP JUMPDEST SWAP1 POP SWAP2 SWAP1 POP JUMP JUMPDEST PUSH1 0x0 PUSH1 0x20 DUP3 ADD SWAP1 POP DUP2 DUP2 SUB PUSH1 0x0 DUP4 ADD MSTORE PUSH2 0x3906 DUP2 PUSH2 0x363E JUMP JUMPDEST SWAP1 POP SWAP2 SWAP1 POP JUMP JUMPDEST PUSH1 0x0 PUSH1 0x20 DUP3 ADD SWAP1 POP DUP2 DUP2 SUB PUSH1 0x0 DUP4 ADD MSTORE PUSH2 0x3926 DUP2 PUSH2 0x36A4 JUMP JUMPDEST SWAP1 POP SWAP2 SWAP1 POP JUMP JUMPDEST PUSH1 0x0 PUSH1 0x20 DUP3 ADD SWAP1 POP DUP2 DUP2 SUB PUSH1 0x0 DUP4 ADD MSTORE PUSH2 0x3946 DUP2 PUSH2 0x36E4 JUMP JUMPDEST SWAP1 POP SWAP2 SWAP1 POP JUMP JUMPDEST PUSH1 0x0 PUSH1 0x20 DUP3 ADD SWAP1 POP DUP2 DUP2 SUB PUSH1 0x0 DUP4 ADD MSTORE PUSH2 0x3967 DUP2 DUP5 PUSH2 0x374A JUMP JUMPDEST SWAP1 POP SWAP3 SWAP2 POP POP JUMP JUMPDEST PUSH1 0x0 PUSH1 0x80 DUP3 ADD SWAP1 POP PUSH2 0x3984 PUSH1 0x0 DUP4 ADD DUP8 PUSH2 0x3803 JUMP JUMPDEST PUSH2 0x3991 PUSH1 0x20 DUP4 ADD DUP7 PUSH2 0x3803 JUMP JUMPDEST PUSH2 0x399E PUSH1 0x40 DUP4 ADD DUP6 PUSH2 0x3417 JUMP JUMPDEST PUSH2 0x39AB PUSH1 0x60 DUP4 ADD DUP5 PUSH2 0x3803 JUMP JUMPDEST SWAP6 SWAP5 POP POP POP POP POP JUMP JUMPDEST PUSH1 0x0 PUSH1 0x40 MLOAD SWAP1 POP DUP2 DUP2 ADD DUP2 DUP2 LT PUSH8 0xFFFFFFFFFFFFFFFF DUP3 GT OR ISZERO PUSH2 0x39DB JUMPI PUSH2 0x39DA PUSH2 0x3C98 JUMP JUMPDEST JUMPDEST DUP1 PUSH1 0x40 MSTORE POP SWAP2 SWAP1 POP JUMP JUMPDEST PUSH1 0x0 PUSH8 0xFFFFFFFFFFFFFFFF DUP3 GT ISZERO PUSH2 0x3A00 JUMPI PUSH2 0x39FF PUSH2 0x3C98 JUMP JUMPDEST JUMPDEST PUSH1 0x20 DUP3 MUL SWAP1 POP PUSH1 0x20 DUP2 ADD SWAP1 POP SWAP2 SWAP1 POP JUMP JUMPDEST PUSH1 0x0 DUP2 SWAP1 POP PUSH1 0x20 DUP3 ADD SWAP1 POP SWAP2 SWAP1 POP JUMP JUMPDEST PUSH1 0x0 DUP2 SWAP1 POP PUSH1 0x20 DUP3 ADD SWAP1 POP SWAP2 SWAP1 POP JUMP JUMPDEST PUSH1 0x0 DUP2 MLOAD SWAP1 POP SWAP2 SWAP1 POP JUMP JUMPDEST PUSH1 0x0 DUP2 MLOAD SWAP1 POP SWAP2 SWAP1 POP JUMP JUMPDEST PUSH1 0x0 PUSH1 0x20 DUP3 ADD SWAP1 POP SWAP2 SWAP1 POP JUMP JUMPDEST PUSH1 0x0 PUSH1 0x20 DUP3 ADD SWAP1 POP SWAP2 SWAP1 POP JUMP JUMPDEST PUSH1 0x0 DUP3 DUP3 MSTORE PUSH1 0x20 DUP3 ADD SWAP1 POP SWAP3 SWAP2 POP POP JUMP JUMPDEST PUSH1 0x0 DUP3 DUP3 MSTORE PUSH1 0x20 DUP3 ADD SWAP1 POP SWAP3 SWAP2 POP POP JUMP JUMPDEST PUSH1 0x0 DUP3 DUP3 MSTORE PUSH1 0x20 DUP3 ADD SWAP1 POP SWAP3 SWAP2 POP POP JUMP JUMPDEST PUSH1 0x0 PUSH2 0x3A9F DUP3 PUSH2 0x3BE7 JUMP JUMPDEST SWAP2 POP PUSH2 0x3AAA DUP4 PUSH2 0x3BE7 JUMP JUMPDEST SWAP3 POP DUP3 PUSH32 0xFFFFFFFFFFFFFFFFFFFFFFFFFFFFFFFFFFFFFFFFFFFFFFFFFFFFFFFFFFFFFFFF SUB DUP3 GT ISZERO PUSH2 0x3ADF JUMPI PUSH2 0x3ADE PUSH2 0x3C3A JUMP JUMPDEST JUMPDEST DUP3 DUP3 ADD SWAP1 POP SWAP3 SWAP2 POP POP JUMP JUMPDEST PUSH1 0x0 PUSH2 0x3AF5 DUP3 PUSH2 0x3BE7 JUMP JUMPDEST SWAP2 POP PUSH2 0x3B00 DUP4 PUSH2 0x3BE7 JUMP JUMPDEST SWAP3 POP DUP3 PUSH2 0x3B10 JUMPI PUSH2 0x3B0F PUSH2 0x3C69 JUMP JUMPDEST JUMPDEST DUP3 DUP3 DIV SWAP1 POP SWAP3 SWAP2 POP POP JUMP JUMPDEST PUSH1 0x0 PUSH2 0x3B26 DUP3 PUSH2 0x3BE7 JUMP JUMPDEST SWAP2 POP PUSH2 0x3B31 DUP4 PUSH2 0x3BE7 JUMP JUMPDEST SWAP3 POP DUP2 PUSH32 0xFFFFFFFFFFFFFFFFFFFFFFFFFFFFFFFFFFFFFFFFFFFFFFFFFFFFFFFFFFFFFFFF DIV DUP4 GT DUP3 ISZERO ISZERO AND ISZERO PUSH2 0x3B6A JUMPI PUSH2 0x3B69 PUSH2 0x3C3A JUMP JUMPDEST JUMPDEST DUP3 DUP3 MUL SWAP1 POP SWAP3 SWAP2 POP POP JUMP JUMPDEST PUSH1 0x0 PUSH2 0x3B80 DUP3 PUSH2 0x3BE7 JUMP JUMPDEST SWAP2 POP PUSH2 0x3B8B DUP4 PUSH2 0x3BE7 JUMP JUMPDEST SWAP3 POP DUP3 DUP3 LT ISZERO PUSH2 0x3B9E JUMPI PUSH2 0x3B9D PUSH2 0x3C3A JUMP JUMPDEST JUMPDEST DUP3 DUP3 SUB SWAP1 POP SWAP3 SWAP2 POP POP JUMP JUMPDEST PUSH1 0x0 PUSH2 0x3BB4 DUP3 PUSH2 0x3BC7 JUMP JUMPDEST SWAP1 POP SWAP2 SWAP1 POP JUMP JUMPDEST PUSH1 0x0 DUP2 ISZERO ISZERO SWAP1 POP SWAP2 SWAP1 POP JUMP JUMPDEST PUSH1 0x0 PUSH20 0xFFFFFFFFFFFFFFFFFFFFFFFFFFFFFFFFFFFFFFFF DUP3 AND SWAP1 POP SWAP2 SWAP1 POP JUMP JUMPDEST PUSH1 0x0 DUP2 SWAP1 POP SWAP2 SWAP1 POP JUMP JUMPDEST PUSH1 0x0 PUSH2 0x3BFC DUP3 PUSH2 0x3BE7 JUMP JUMPDEST SWAP2 POP PUSH32 0xFFFFFFFFFFFFFFFFFFFFFFFFFFFFFFFFFFFFFFFFFFFFFFFFFFFFFFFFFFFFFFFF DUP3 EQ ISZERO PUSH2 0x3C2F JUMPI PUSH2 0x3C2E PUSH2 0x3C3A JUMP JUMPDEST JUMPDEST PUSH1 0x1 DUP3 ADD SWAP1 POP SWAP2 SWAP1 POP JUMP JUMPDEST PUSH32 0x4E487B7100000000000000000000000000000000000000000000000000000000 PUSH1 0x0 MSTORE PUSH1 0x11 PUSH1 0x4 MSTORE PUSH1 0x24 PUSH1 0x0 REVERT JUMPDEST PUSH32 0x4E487B7100000000000000000000000000000000000000000000000000000000 PUSH1 0x0 MSTORE PUSH1 0x12 PUSH1 0x4 MSTORE PUSH1 0x24 PUSH1 0x0 REVERT JUMPDEST PUSH32 0x4E487B7100000000000000000000000000000000000000000000000000000000 PUSH1 0x0 MSTORE PUSH1 0x41 PUSH1 0x4 MSTORE PUSH1 0x24 PUSH1 0x0 REVERT JUMPDEST PUSH2 0x3CD0 DUP2 PUSH2 0x3BA9 JUMP JUMPDEST DUP2 EQ PUSH2 0x3CDB JUMPI PUSH1 0x0 DUP1 REVERT JUMPDEST POP JUMP JUMPDEST PUSH2 0x3CE7 DUP2 PUSH2 0x3BE7 JUMP JUMPDEST DUP2 EQ PUSH2 0x3CF2 JUMPI PUSH1 0x0 DUP1 REVERT JUMPDEST POP JUMP INVALID LOG2 PUSH5 0x6970667358 0x22 SLT KECCAK256 PUSH13 0xC0EFA7CAB732B48E0FED899F01 SWAP2 PUSH21 0xB8182F22062240EA3EEBFF7CFA9D30CB64736F6C63 NUMBER STOP ADDMOD STOP STOP CALLER "
        },
        "methodIdentifiers": {
          "ballots(uint256)": "5c632b38",
          "completeBallot(uint256)": "481143a7",
          "createBallot(address[])": "3b2341cf",
          "getBallotInfo(uint256)": "141bd92a",
          "getVoterBallotVote(address,uint256)": "0bf6eee8",
          "owner()": "8da5cb5b",
          "vote(uint256,address)": "02d947ef",
          "voted(address,uint256)": "c591aa98",
          "withdrawFee(uint256)": "be357616"
        }
      }
    }
  }
}