{
  "_format": "hh-sol-artifact-1",
  "contractName": "Ballots",
  "sourceName": "contracts/Ballots.sol",
  "abi": [
    {
      "inputs": [],
      "stateMutability": "nonpayable",
      "type": "constructor"
    },
    {
      "inputs": [
        {
          "internalType": "uint256",
          "name": "",
          "type": "uint256"
        }
      ],
      "name": "ballots",
      "outputs": [
        {
          "internalType": "uint256",
          "name": "fund",
          "type": "uint256"
        },
        {
          "internalType": "uint256",
          "name": "created",
          "type": "uint256"
        },
        {
          "internalType": "bool",
          "name": "isCompleted",
          "type": "bool"
        },
        {
          "internalType": "uint256",
          "name": "winnerScore",
          "type": "uint256"
        }
      ],
      "stateMutability": "view",
      "type": "function"
    },
    {
      "inputs": [
        {
          "internalType": "uint256",
          "name": "ballotID",
          "type": "uint256"
        }
      ],
      "name": "completeBallot",
      "outputs": [],
      "stateMutability": "nonpayable",
      "type": "function"
    },
    {
      "inputs": [
        {
          "internalType": "address[]",
          "name": "proposalAddrs",
          "type": "address[]"
        }
      ],
      "name": "createBallot",
      "outputs": [],
      "stateMutability": "nonpayable",
      "type": "function"
    },
    {
      "inputs": [
        {
          "internalType": "uint256",
          "name": "ballotID",
          "type": "uint256"
        }
      ],
      "name": "getBallotInfo",
      "outputs": [
        {
          "components": [
            {
              "internalType": "address[]",
              "name": "proposals",
              "type": "address[]"
            },
            {
              "internalType": "uint256[]",
              "name": "scores",
              "type": "uint256[]"
            },
            {
              "internalType": "uint256",
              "name": "fund",
              "type": "uint256"
            },
            {
              "internalType": "uint256",
              "name": "created",
              "type": "uint256"
            },
            {
              "internalType": "bool",
              "name": "isCompleted",
              "type": "bool"
            },
            {
              "internalType": "uint256",
              "name": "winnerScore",
              "type": "uint256"
            },
            {
              "internalType": "uint256[]",
              "name": "winnerIndexes",
              "type": "uint256[]"
            }
          ],
          "internalType": "struct Ballots.Ballot",
          "name": "",
          "type": "tuple"
        }
      ],
      "stateMutability": "view",
      "type": "function"
    },
    {
      "inputs": [
        {
          "internalType": "address",
          "name": "voterAddr",
          "type": "address"
        },
        {
          "internalType": "uint256",
          "name": "ballotID",
          "type": "uint256"
        }
      ],
      "name": "getVoterBallotVote",
      "outputs": [
        {
          "internalType": "address",
          "name": "",
          "type": "address"
        }
      ],
      "stateMutability": "view",
      "type": "function"
    },
    {
      "inputs": [],
      "name": "owner",
      "outputs": [
        {
          "internalType": "address",
          "name": "",
          "type": "address"
        }
      ],
      "stateMutability": "view",
      "type": "function"
    },
    {
      "inputs": [
        {
          "internalType": "uint256",
          "name": "ballotID",
          "type": "uint256"
        },
        {
          "internalType": "address",
          "name": "proposalAddr",
          "type": "address"
        }
      ],
      "name": "vote",
      "outputs": [],
      "stateMutability": "payable",
      "type": "function"
    },
    {
      "inputs": [
        {
          "internalType": "address",
          "name": "",
          "type": "address"
        },
        {
          "internalType": "uint256",
          "name": "",
          "type": "uint256"
        }
      ],
      "name": "voted",
      "outputs": [
        {
          "internalType": "address",
          "name": "",
          "type": "address"
        }
      ],
      "stateMutability": "view",
      "type": "function"
    },
    {
      "inputs": [
        {
          "internalType": "uint256",
          "name": "ballotID",
          "type": "uint256"
        }
      ],
      "name": "withdrawFee",
      "outputs": [],
      "stateMutability": "nonpayable",
      "type": "function"
    }
  ],
  "bytecode": "0x6080604052600a600155662386f26fc100006002553480156200002157600080fd5b50620000567f71ca803d038752c1c54f1074ba4a560bf2cbeb61e1d0e46d47308d6ce2aa52c660001b6200010460201b60201c565b6200008a7f6894e0322d03f7258473dec6cd5da147b2649e394e5d43dcaaf7f4d54c81c17660001b6200010460201b60201c565b620000be7f17dee0ff3abd2100a72baa0d6919891b9157a60fa6fdc33413c34445bc54de7060001b6200010460201b60201c565b336000806101000a81548173ffffffffffffffffffffffffffffffffffffffff021916908373ffffffffffffffffffffffffffffffffffffffff16021790555062000107565b50565b613d2b80620001176000396000f3fe6080604052600436106100865760003560e01c8063481143a711610059578063481143a71461014a5780635c632b38146101735780638da5cb5b146101b3578063be357616146101de578063c591aa981461020757610086565b806302d947ef1461008b5780630bf6eee8146100a7578063141bd92a146100e45780633b2341cf14610121575b600080fd5b6100a560048036038101906100a091906132c2565b610244565b005b3480156100b357600080fd5b506100ce60048036038101906100c9919061321c565b611124565b6040516100db9190613812565b60405180910390f35b3480156100f057600080fd5b5061010b60048036038101906101069190613299565b611386565b604051610118919061394d565b60405180910390f35b34801561012d57600080fd5b5061014860048036038101906101439190613258565b611711565b005b34801561015657600080fd5b50610171600480360381019061016c9190613299565b611c58565b005b34801561017f57600080fd5b5061019a60048036038101906101959190613299565b612659565b6040516101aa949392919061396f565b60405180910390f35b3480156101bf57600080fd5b506101c8612696565b6040516101d59190613812565b60405180910390f35b3480156101ea57600080fd5b5061020560048036038101906102009190613299565b6126ba565b005b34801561021357600080fd5b5061022e6004803603810190610229919061321c565b612c3e565b60405161023b9190613812565b60405180910390f35b816102717fc148e1bfa2681c9499977b8a8fad7dfe59365bcd8d7c5a165dccaa56a6de132c60001b612c80565b61029d7f676f97cafa9f6ad2e4b11a4cb795c78d7bf773f0f6cfb6051ec0262d312db51660001b612c80565b6102c97f1203730eb8a51b45afab71ee436ad36cb83c9d64856cb57e9ad32750e763d60060001b612c80565b6102f57f45ee78d7de8466d1bd41bd9eb80e924bd1df6b2f11b70a16d86c4ff9165f88d760001b612c80565b600060046000838152602001908152602001600020600301541161034e576040517f08c379a00000000000000000000000000000000000000000000000000000000081526004016103459061388d565b60405180910390fd5b61037a7fdbc47415daa014fe812db0ffafa2a772a588ed59475bf2d0ffdf017cc691a8fe60001b612c80565b6103a67f874d2511f3e997dffaa2df51735e901fbd270b4b2e28a9e8f6bd7b93ec3c0f9060001b612c80565b6103d27f22f92e2cd419999484c80cb333a7534a83ef5d8175af1de957749c790483d77560001b612c80565b6103fe7f1662d70d9877099dea7274ff5e5e788e2b290dc2dcc4c4c1bb5486f457a0c96260001b612c80565b61042a7f41d7e9d5dc41cc68ae789f351e45f1e983d1865602665b76f65991c9171e06cc60001b612c80565b6000600460008581526020019081526020016000206040518060e0016040529081600082018054806020026020016040519081016040528092919081815260200182805480156104cf57602002820191906000526020600020905b8160009054906101000a900473ffffffffffffffffffffffffffffffffffffffff1673ffffffffffffffffffffffffffffffffffffffff1681526020019060010190808311610485575b505050505081526020016001820180548060200260200160405190810160405280929190818152602001828054801561052757602002820191906000526020600020905b815481526020019060010190808311610513575b5050505050815260200160028201548152602001600382015481526020016004820160009054906101000a900460ff1615151515815260200160058201548152602001600682018054806020026020016040519081016040528092919081815260200182805480156105b857602002820191906000526020600020905b8154815260200190600101908083116105a4575b50505050508152505090506105ef7f48fa6db0e2604834a57b6ef922326a2303909b58b47f289412dbbd5063e4e1fc60001b612c80565b61061b7f171b5d0b181490c46b4c0f280deb61dd1a630899c318928699915c4c70d048a060001b612c80565b6106477f71842631a927e5d4795d288a209ca53e43627366b0c366a7e3ae0aea4972a1d660001b612c80565b80608001511561068c576040517f08c379a0000000000000000000000000000000000000000000000000000000008152600401610683906138cd565b60405180910390fd5b6106b87fa1af8dd4edc076f79b89fbbb693a79d6e96a10c156a46cc0b260557f0c9f6f5060001b612c80565b6106e47f1229529b4902bfe611db22c1f434d56c5473851fdbb0d61cb228eacf200fe6e360001b612c80565b6107107f01cdf89d16039b9257f5757245d536f5222ca27aaf6fa0dbb9a1cece37c57d0760001b612c80565b61073c7fdb032ae7a741a752d561c309dd98c5c4fa0b4972b0f001a6d08a384c8b8bb0b560001b612c80565b6002543414610780576040517f08c379a00000000000000000000000000000000000000000000000000000000081526004016107779061384d565b60405180910390fd5b6107ac7f21ec491d983ef2499a1029d26e95214591d5a7f2aee90517c96ea9494b83e02b60001b612c80565b6107d87fddbc7ef655b4b97da1cf5f8c5243e57dac502b879f661c85cb4a294856e69e5c60001b612c80565b6108047f31f511f9875d42620a69ed53ba7a9d44fae2e3f189bc0981cf72710068ca31c360001b612c80565b6108307fd5dd39e2220ae52bdbc880a47cb5e3f9f10521aea3bb75dfc83fcd3849cabed560001b612c80565b600073ffffffffffffffffffffffffffffffffffffffff16600360003373ffffffffffffffffffffffffffffffffffffffff1673ffffffffffffffffffffffffffffffffffffffff168152602001908152602001600020600086815260200190815260200160002060009054906101000a900473ffffffffffffffffffffffffffffffffffffffff1673ffffffffffffffffffffffffffffffffffffffff161461090f576040517f08c379a00000000000000000000000000000000000000000000000000000000081526004016109069061390d565b60405180910390fd5b61093b7f7926e9a07fb510dc7361df74b0eb1b795b52b6f37b109f8448f0329a72321ec960001b612c80565b6109677fb698405466252ba9a487525da43f41eff4cfadae3effdf641b0eda9ff9b5fc4d60001b612c80565b6109937f03c81ca77b89bc3931f9e318c52d0d91847f94cedc1d85ca0d937072bfcf153160001b612c80565b600061099f8585612c83565b90506109cd7f2ed4f089efb850f1c6766ae6f0cc034e03f7af4da910a70899033ff9f416c83f60001b612c80565b6109f97f688fa9604f9ba58aec5581ecf822d4abd83986412ae87b6fc2363190f4c0860160001b612c80565b610a257fa7b8987d2d5281ccf59bfa5ba3f5167db49b329617434b183967d515bca9768860001b612c80565b7fffffffffffffffffffffffffffffffffffffffffffffffffffffffffffffffff811415610a88576040517f08c379a0000000000000000000000000000000000000000000000000000000008152600401610a7f9061386d565b60405180910390fd5b610ab47fe86bc7ba7d20a53ec24229ea4ae584796683094a5f84dcfa9b3fd6b53bbca0b860001b612c80565b610ae07f39489cbb22167c4b7a3efde910065360d7be94ccec4118edebc22ccbc66cb9d460001b612c80565b610b0c7f1a2d728aa46805068ba37a024a7cd578983f92f5363889ea9625bce32fd6ae5260001b612c80565b600254600460008781526020019081526020016000206002016000828254610b349190613a94565b92505081905550610b677f299f1b50c4cfd2d528a7244731820f84cb41cdb1d924009c77c0d923abd40def60001b612c80565b610b937ffb9786ec1c223005bcb2b68f79f627797643da0e48eff42811b3e556c46679cf60001b612c80565b6001600460008781526020019081526020016000206001018281548110610be3577f4e487b7100000000000000000000000000000000000000000000000000000000600052603260045260246000fd5b906000526020600020016000828254610bfc9190613a94565b92505081905550610c2f7fc3657cbd43446045fa75ec3c1e8b152b69a6901ccfcfe35373e3de6b24cfe91560001b612c80565b610c5b7f0e2d23c08f259fbedca4bdc6fb467b08bf6cfe277d60a47435a3eb1f45508cf560001b612c80565b6000600460008781526020019081526020016000206001018281548110610cab577f4e487b7100000000000000000000000000000000000000000000000000000000600052603260045260246000fd5b90600052602060002001549050610ce47fc90a694adae1b48797c98a03758ea41423fad0b378d20f6b97041e38867fdb2f60001b612c80565b610d107f437d7fea4785354ce43c95eee035a94b43f5d46369d35879ba054998285c280160001b612c80565b8260a00151811061100857610d477f4efb6056c18820b450bf93d53ed474c31b39a61be85225b2513f99effbdabc2c60001b612c80565b610d737f1338eefdecc633b8b2679f453517c59d9fd3a0bbf04ab168e1faba6daeefc72b60001b612c80565b610d9f7ffc8036d63b0de0fe6eb0f8f0c5f2cdbbdc7f100dcada7f50813ef62f4fc7dc8260001b612c80565b8260a00151811115610f4157610dd77f167e9660efc2c54f9bee1408b484477bfb52c041fa32f11df9c8780cabf8b90060001b612c80565b610e037f452822aed699821b55d2f621c1fc900085945bd82f65c24d6d45e04e524ff63b60001b612c80565b610e2f7f1f2ad402370a355bf2d4c0296334914d83dab11803d774de78f57fb567f6509760001b612c80565b600067ffffffffffffffff811115610e70577f4e487b7100000000000000000000000000000000000000000000000000000000600052604160045260246000fd5b604051908082528060200260200182016040528015610e9e5781602001602082028036833780820191505090505b50600460008881526020019081526020016000206006019080519060200190610ec8929190613029565b50610ef57f7e64f2801491df314115b780734ceacd29b141ee03ab9d1ba159f6f677e0607c60001b612c80565b610f217f2aaa60285e385f1ccf24d07c94e70f77c768e73f728bbb0c8ede96e8b3d0472360001b612c80565b806004600088815260200190815260200160002060050181905550610f6e565b610f6d7fec273e105aa0cfe75806fc30ad31cd5bfae048bdaa9ba938e51c03e36d9b08cf60001b612c80565b5b610f9a7f7a966d0b2a85bd7c1ad03717ecdbd85c33bd4bebc52928d666d19a9a99fe008960001b612c80565b610fc67fddd4445b943a50d271c945a421f580af485a6b9af58a2329586615a661d4231b60001b612c80565b60046000878152602001908152602001600020600601829080600181540180825580915050600190039060005260206000200160009091909190915055611035565b6110347f9763eac277753a21dd777eb1ce3f770e6ed316f678e8be70adc4f86a4f2c55b460001b612c80565b5b6110617f250d77e7ceec39928a327c28b163b48c52917f46233442f5e7ba5b2d88e2a08a60001b612c80565b61108d7f02c9d991e18ab07d8375569a0fc79133f439e45e6df2b01a56d1fe796c1020e560001b612c80565b84600360003373ffffffffffffffffffffffffffffffffffffffff1673ffffffffffffffffffffffffffffffffffffffff168152602001908152602001600020600088815260200190815260200160002060006101000a81548173ffffffffffffffffffffffffffffffffffffffff021916908373ffffffffffffffffffffffffffffffffffffffff160217905550505050505050565b6000816111537fc148e1bfa2681c9499977b8a8fad7dfe59365bcd8d7c5a165dccaa56a6de132c60001b612c80565b61117f7f676f97cafa9f6ad2e4b11a4cb795c78d7bf773f0f6cfb6051ec0262d312db51660001b612c80565b6111ab7f1203730eb8a51b45afab71ee436ad36cb83c9d64856cb57e9ad32750e763d60060001b612c80565b6111d77f45ee78d7de8466d1bd41bd9eb80e924bd1df6b2f11b70a16d86c4ff9165f88d760001b612c80565b6000600460008381526020019081526020016000206003015411611230576040517f08c379a00000000000000000000000000000000000000000000000000000000081526004016112279061388d565b60405180910390fd5b61125c7fdbc47415daa014fe812db0ffafa2a772a588ed59475bf2d0ffdf017cc691a8fe60001b612c80565b6112887f874d2511f3e997dffaa2df51735e901fbd270b4b2e28a9e8f6bd7b93ec3c0f9060001b612c80565b6112b47f4e5f40c436f0c05c8d1d3cef669bb7fe28f3823ae1b81a0d98000c7a0a92429a60001b612c80565b6112e07fe41a2efb1307ed15528bfe221a251651f839949088b2a762bcea591e70c27ea860001b612c80565b61130c7f2adac983f43c644d982981676d93c4726fb766a796e295c9df867256c23173e860001b612c80565b600360008573ffffffffffffffffffffffffffffffffffffffff1673ffffffffffffffffffffffffffffffffffffffff168152602001908152602001600020600084815260200190815260200160002060009054906101000a900473ffffffffffffffffffffffffffffffffffffffff1691505092915050565b61138e613076565b816113bb7fc148e1bfa2681c9499977b8a8fad7dfe59365bcd8d7c5a165dccaa56a6de132c60001b612c80565b6113e77f676f97cafa9f6ad2e4b11a4cb795c78d7bf773f0f6cfb6051ec0262d312db51660001b612c80565b6114137f1203730eb8a51b45afab71ee436ad36cb83c9d64856cb57e9ad32750e763d60060001b612c80565b61143f7f45ee78d7de8466d1bd41bd9eb80e924bd1df6b2f11b70a16d86c4ff9165f88d760001b612c80565b6000600460008381526020019081526020016000206003015411611498576040517f08c379a000000000000000000000000000000000000000000000000000000000815260040161148f9061388d565b60405180910390fd5b6114c47fdbc47415daa014fe812db0ffafa2a772a588ed59475bf2d0ffdf017cc691a8fe60001b612c80565b6114f07f874d2511f3e997dffaa2df51735e901fbd270b4b2e28a9e8f6bd7b93ec3c0f9060001b612c80565b61151c7f679573e349aa99b050098dc5ae6fef33bdef4f6a09b2e6fd073038300ae884db60001b612c80565b6115487f07616016e6a8bc38647058e7eb37135fb55c0cd859a001fce3cb5fd68443c78c60001b612c80565b6115747f514a5e7563815415685e507585e249f3d10f7c963939c73596de4fa1be7cff6960001b612c80565b600460008481526020019081526020016000206040518060e00160405290816000820180548060200260200160405190810160405280929190818152602001828054801561161757602002820191906000526020600020905b8160009054906101000a900473ffffffffffffffffffffffffffffffffffffffff1673ffffffffffffffffffffffffffffffffffffffff16815260200190600101908083116115cd575b505050505081526020016001820180548060200260200160405190810160405280929190818152602001828054801561166f57602002820191906000526020600020905b81548152602001906001019080831161165b575b5050505050815260200160028201548152602001600382015481526020016004820160009054906101000a900460ff16151515158152602001600582015481526020016006820180548060200260200160405190810160405280929190818152602001828054801561170057602002820191906000526020600020905b8154815260200190600101908083116116ec575b505050505081525050915050919050565b61173d7f1e9f658ad1fd58de831bb7943087615dd118675a0f6dd9ef2a27b517b9451acb60001b612c80565b6117697f941d3cb7593987cc0bbcda0b0bc55880402179975be93f603d14dbd1a47ce1a160001b612c80565b6117957f1d65e875bbd11fd8989e5f26cb40ef5a74912481db665867036b0c2cc007d6cb60001b612c80565b6117c17fd71943f7a30aa4461df4f8369b8e1d1f05455ee6d976ff454344ba80f57741ed60001b612c80565b60008054906101000a900473ffffffffffffffffffffffffffffffffffffffff1673ffffffffffffffffffffffffffffffffffffffff163373ffffffffffffffffffffffffffffffffffffffff161461184f576040517f08c379a0000000000000000000000000000000000000000000000000000000008152600401611846906138ad565b60405180910390fd5b61187b7f6eec500ab9a19a7d7827f4f2770b2352d9d34cfe5252090d93d3a3da69abd70960001b612c80565b6118a77f75305d5069df457386ec88ad6209ba65242b0d8eb15a7bb43b41eee4b69d815460001b612c80565b6118d37fab74aa254a73c90cd902676b8a3e4eb1bc296e14236d60dc3ebaa349fdebc64860001b612c80565b6118ff7f3a25a3efc98c9f2baedb99f53707072992f5d288e5fb1573f43524fa0d9c7a2b60001b612c80565b61192b7fc22e9ca7169fd7b5e2ff6ffacb097c4afd27a7d82e949a2b58fdd20dfea0f2df60001b612c80565b6119577f78010b05795712fe56d7645a576c1f921fc930ef1e2c5fb80fb073c3d9d6609660001b612c80565b60028151101561199c576040517f08c379a00000000000000000000000000000000000000000000000000000000081526004016119939061382d565b60405180910390fd5b6119c87f5996c9899dd5acd3e47a3e3c132c40810e243576d2fc52e4be2833c55a78ba1a60001b612c80565b6119f47fabd9974c7059dba7420c3d73f9c9758bc0cbf5e110e7ac4e3e80dd56006cf96460001b612c80565b611a207f5fd2e2b47e9d26648658612faa185887a57b850250911ff5ff0ed68a4c8e772e60001b612c80565b600060056000815480929190611a3590613bf1565b919050559050611a677fece02ebbccb27f725783d17ee6182ca9f5c5af5e5a26f3dba4a1e19d6c8e56f560001b612c80565b611a937fd82d3dd293b82cc251389ce8b6ba236421389134ea860ba9df4278e63555aef560001b612c80565b6040518060e00160405280838152602001835167ffffffffffffffff811115611ae5577f4e487b7100000000000000000000000000000000000000000000000000000000600052604160045260246000fd5b604051908082528060200260200182016040528015611b135781602001602082028036833780820191505090505b5081526020016000815260200142815260200160001515815260200160008152602001600067ffffffffffffffff811115611b77577f4e487b7100000000000000000000000000000000000000000000000000000000600052604160045260246000fd5b604051908082528060200260200182016040528015611ba55781602001602082028036833780820191505090505b50815250600460008381526020019081526020016000206000820151816000019080519060200190611bd89291906130b5565b506020820151816001019080519060200190611bf5929190613029565b50604082015181600201556060820151816003015560808201518160040160006101000a81548160ff02191690831515021790555060a0820151816005015560c0820151816006019080519060200190611c50929190613029565b509050505050565b80611c857fc148e1bfa2681c9499977b8a8fad7dfe59365bcd8d7c5a165dccaa56a6de132c60001b612c80565b611cb17f676f97cafa9f6ad2e4b11a4cb795c78d7bf773f0f6cfb6051ec0262d312db51660001b612c80565b611cdd7f1203730eb8a51b45afab71ee436ad36cb83c9d64856cb57e9ad32750e763d60060001b612c80565b611d097f45ee78d7de8466d1bd41bd9eb80e924bd1df6b2f11b70a16d86c4ff9165f88d760001b612c80565b6000600460008381526020019081526020016000206003015411611d62576040517f08c379a0000000000000000000000000000000000000000000000000000000008152600401611d599061388d565b60405180910390fd5b611d8e7fdbc47415daa014fe812db0ffafa2a772a588ed59475bf2d0ffdf017cc691a8fe60001b612c80565b611dba7f874d2511f3e997dffaa2df51735e901fbd270b4b2e28a9e8f6bd7b93ec3c0f9060001b612c80565b611de67f7c355a5d6525c9737f9d5e1871abaec3a573985f9fe6e106bead5a7d700cba1d60001b612c80565b611e127f7f63fcae09a675d51fbe5f620f00fcf7e62abbcd755f0f448587a0315b935bd760001b612c80565b611e3e7f6e9ec907183e2fd0154714bf8c78dc8e6e7b76a4180cd722808aca8299e0f99d60001b612c80565b6000429050611e6f7f710dcd3b967e0a727bbaa393ed4ff185097af3d5ee4ae1759d54c13f9d5213b360001b612c80565b611e9b7fe5cd82d87f746c1e09d7d4ab8a77cb731470188ecad90686f198778487cffec460001b612c80565b6000600460008581526020019081526020016000206040518060e001604052908160008201805480602002602001604051908101604052809291908181526020018280548015611f4057602002820191906000526020600020905b8160009054906101000a900473ffffffffffffffffffffffffffffffffffffffff1673ffffffffffffffffffffffffffffffffffffffff1681526020019060010190808311611ef6575b5050505050815260200160018201805480602002602001604051908101604052809291908181526020018280548015611f9857602002820191906000526020600020905b815481526020019060010190808311611f84575b5050505050815260200160028201548152602001600382015481526020016004820160009054906101000a900460ff16151515158152602001600582015481526020016006820180548060200260200160405190810160405280929190818152602001828054801561202957602002820191906000526020600020905b815481526020019060010190808311612015575b50505050508152505090506120607f29979e62b7412f7426d7c69d8f0d8fb174589826d176cd382fcd0bb57768171660001b612c80565b61208c7f1eb42dd7a55bb005be43542ff4f26268a4d3edf36fafcd198199d55e7b4b1dbb60001b612c80565b6120b87f81afa5854e21a44815d5eafe921613a6e7a2dad0c4f4848afbfe7831baa294a260001b612c80565b6203f4808160600151836120cc9190613b75565b101561210d576040517f08c379a00000000000000000000000000000000000000000000000000000000081526004016121049061392d565b60405180910390fd5b6121397f603302070d4fd841377002335ad091945382eca4a77c8cc1f62a44132c3df69960001b612c80565b6121657f4aded810094e60c66ef11ce478c772bf90347da3bc0668cd8b97a2519b18cf8c60001b612c80565b6121917ffc3a5b38e3490ae16f02f8b3469ce5d5997b5d5fd4fca047e66fbdcdc6bf193e60001b612c80565b60016004600086815260200190815260200160002060040160006101000a81548160ff0219169083151502179055506121ec7f8ba5d452fccf8e9073caad24ed50ee17ec81e313036d531375352593b20a4d4360001b612c80565b6122187f02eab8d7ede1642382f001815ef5a2ef9ab05e8c974f385c0e6e7e0e87ecc69960001b612c80565b60008160c0015151905061224e7f407caf284fdbf58e6cc31380d2cfd5e44c362014a96456a9c5b593f44be8893660001b612c80565b61227a7f2e6106f43bc4db2661772b4f508b27fd0152b2e6b2e7c915ff98b50f41dd9f6460001b612c80565b6000811115612625576122af7faf01501a662e99f0e966c612e784c29186e7078b27932115532782c4fbe1467360001b612c80565b6122db7f230226ef771757f6d24ef9517ddb57e741b1e28892cb3f0c3deb5dc60d4efea060001b612c80565b6123077f1a9dec76f8de7ddabdd6c160cb80bea3e5b7dde2b6de7563a9e97adce6b1e1d760001b612c80565b60006064600154606461231a9190613b75565b84604001516123299190613b1b565b6123339190613aea565b90506123617ffa0180f9c65395e2d839d08fca09a8fa9273d7691ca4eaaaf2343309325cba8a60001b612c80565b61238d7fc874afc822d30d1afba46a46d115b3dda2931f389e15842a535762d9fe01842060001b612c80565b806004600088815260200190815260200160002060020160008282546123b39190613b75565b925050819055506123e67fca7161b8f3c7a8be21b5f681d7375656e5e7cfd8e21db50af0c77256951e4eac60001b612c80565b6124127f6e42eebfc9bb2565896ad9f7fc7dcee1eeacb9c94502da5690fbefa10554bc0860001b612c80565b600082826124209190613aea565b905061244e7f66f0f2c162416c6af63d2f2348d84c9b06a9782fb84112bc76bf5290fac6fac560001b612c80565b61247a7f9802a4fd770453fd15e2cb4afb8b6fe44c8f4859a8dae1a1a7a66c38a0e9bfae60001b612c80565b60005b8381101561261d576124b17fa416f7e28ef8a2143795dc4e46ebfd00985ef4f6e6e20523bc4871b544dec7a060001b612c80565b6124dd7f2c27fa5d65d85b25878f206019649221eb36eb9455c3e7402cb2824b8e1399af60001b612c80565b600085600001518660c001518381518110612521577f4e487b7100000000000000000000000000000000000000000000000000000000600052603260045260246000fd5b602002602001015181518110612560577f4e487b7100000000000000000000000000000000000000000000000000000000600052603260045260246000fd5b602002602001015190506125967f147bd1640c66e3e7f9c314495de6efa1f27802e968173f71fdefbdac6a80506960001b612c80565b6125c27f5a5e8046eda269693fe8fa4d84b35276fc24cb6c466de425fb465e0912d28bc360001b612c80565b8073ffffffffffffffffffffffffffffffffffffffff166108fc849081150290604051600060405180830381858888f19350505050158015612608573d6000803e3d6000fd5b5050808061261590613bf1565b91505061247d565b505050612652565b6126517ffc3a9b7b37de75c1622cf6a79ac99b4c303732be4922d78ce72e2b266202bb8360001b612c80565b5b5050505050565b60046020528060005260406000206000915090508060020154908060030154908060040160009054906101000a900460ff16908060050154905084565b60008054906101000a900473ffffffffffffffffffffffffffffffffffffffff1681565b6126e67f1e9f658ad1fd58de831bb7943087615dd118675a0f6dd9ef2a27b517b9451acb60001b612c80565b6127127f941d3cb7593987cc0bbcda0b0bc55880402179975be93f603d14dbd1a47ce1a160001b612c80565b61273e7f1d65e875bbd11fd8989e5f26cb40ef5a74912481db665867036b0c2cc007d6cb60001b612c80565b61276a7fd71943f7a30aa4461df4f8369b8e1d1f05455ee6d976ff454344ba80f57741ed60001b612c80565b60008054906101000a900473ffffffffffffffffffffffffffffffffffffffff1673ffffffffffffffffffffffffffffffffffffffff163373ffffffffffffffffffffffffffffffffffffffff16146127f8576040517f08c379a00000000000000000000000000000000000000000000000000000000081526004016127ef906138ad565b60405180910390fd5b6128247f6eec500ab9a19a7d7827f4f2770b2352d9d34cfe5252090d93d3a3da69abd70960001b612c80565b6128507f75305d5069df457386ec88ad6209ba65242b0d8eb15a7bb43b41eee4b69d815460001b612c80565b8061287d7fc148e1bfa2681c9499977b8a8fad7dfe59365bcd8d7c5a165dccaa56a6de132c60001b612c80565b6128a97f676f97cafa9f6ad2e4b11a4cb795c78d7bf773f0f6cfb6051ec0262d312db51660001b612c80565b6128d57f1203730eb8a51b45afab71ee436ad36cb83c9d64856cb57e9ad32750e763d60060001b612c80565b6129017f45ee78d7de8466d1bd41bd9eb80e924bd1df6b2f11b70a16d86c4ff9165f88d760001b612c80565b600060046000838152602001908152602001600020600301541161295a576040517f08c379a00000000000000000000000000000000000000000000000000000000081526004016129519061388d565b60405180910390fd5b6129867fdbc47415daa014fe812db0ffafa2a772a588ed59475bf2d0ffdf017cc691a8fe60001b612c80565b6129b27f874d2511f3e997dffaa2df51735e901fbd270b4b2e28a9e8f6bd7b93ec3c0f9060001b612c80565b6129de7fbeadbaae1735da0193431555d2ebd1c20b6a86c84de684a377557b356d5c064260001b612c80565b612a0a7f6ae51ba4c1f6a5657606ea7a310327ca933e05db1d56144d32c9428ad2008b7660001b612c80565b612a367fd3dbedf8c67f1c8c341bdbc599b4186c4e811df613b132d0939ba86e067570b360001b612c80565b612a627f630658afe09cddb5e8eeae8989880a8fca96612f7963c16c8e458e4f34525cfe60001b612c80565b6004600083815260200190815260200160002060040160009054906101000a900460ff16612ac5576040517f08c379a0000000000000000000000000000000000000000000000000000000008152600401612abc906138ed565b60405180910390fd5b612af17fff28f649ad3fba1894a031294e2d50f3f66b9e79f185dd053f661ab6747605c160001b612c80565b612b1d7f47b09872b69a3ac8e11a0f6ac1e89192febf74611a77108ec7960c43bb294e2d60001b612c80565b612b497fa5e2d4f24d2d1c45208cf9904d8d514830fec97005492b5f51f761a2f0f82e3f60001b612c80565b60008054906101000a900473ffffffffffffffffffffffffffffffffffffffff1673ffffffffffffffffffffffffffffffffffffffff166108fc60046000858152602001908152602001600020600201549081150290604051600060405180830381858888f19350505050158015612bc5573d6000803e3d6000fd5b50612bf27f1213c2c44fe90f22eee4c1c6349a2c96e01c70b55527de96ba27ecfcf8e8355160001b612c80565b612c1e7fb0d643d6639116c52790869499efefc9d55a7fcbe9fdf9862e610c09abee734d60001b612c80565b600060046000848152602001908152602001600020600201819055505050565b60036020528160005260406000206020528060005260406000206000915091509054906101000a900473ffffffffffffffffffffffffffffffffffffffff1681565b50565b6000612cb17f45bfc6de8459854c5aabbc3a28ca0bdf09b1070484735d2b5a0ba92831fcb88060001b612c80565b612cdd7f58e93dc8fde5cb473e6fb6e59e2737221a699e4b96aa804230797ee1366efa2460001b612c80565b612d097f6ba2d802dd2df83983075c6cda80657dca415c7ab47adacbe67f630c4cfb782a60001b612c80565b600060046000858152602001908152602001600020600001805480602002602001604051908101604052809291908181526020018280548015612da157602002820191906000526020600020905b8160009054906101000a900473ffffffffffffffffffffffffffffffffffffffff1673ffffffffffffffffffffffffffffffffffffffff1681526020019060010190808311612d57575b50505050509050612dd47f4feb8d5de4670a721f7efbd596e42c33e678deeeb4188b1a4ad0bda09222d15660001b612c80565b612e007f5f00609d54cee7009fbf5d92099502d15be089c07cbd669f994a95404bc0401560001b612c80565b60005b8151811015612fa557612e387fd117cff30ed2a593bdbfd84d89492c3c22b7f897898027cb1e2e5bfa49beab6b60001b612c80565b612e647fcc012d3131470f2f65ecb5602d3cb0b9703368c64e398de15351af055821ca8f60001b612c80565b8373ffffffffffffffffffffffffffffffffffffffff16828281518110612eb4577f4e487b7100000000000000000000000000000000000000000000000000000000600052603260045260246000fd5b602002602001015173ffffffffffffffffffffffffffffffffffffffff161415612f6657612f047f4056ecdb045a7a76434a11cb71a3412767af92431f8c5e756b8b7d43e2b1cf8f60001b612c80565b612f307fc7c378fb8fb33b656b9510d6666d75e7e1e1462d3160c5a87dc5aabe0c5e027760001b612c80565b612f5c7f5e43fc1bf6b57bc87303e082565875b294a3a933aec57e55503e4852f24f468a60001b612c80565b8092505050613023565b612f927fb5ba0ae833ba56a3cc435ca3140b2743464c8491cf2fe15df5998d70ff93e1d660001b612c80565b8080612f9d90613bf1565b915050612e03565b50612fd27f99ccc7856a86d6a13140694ce3062f3d33dd5bd717532709439bcf28c2b8956860001b612c80565b612ffe7fabefd3dab22377bd261b35993a8966e649464f4aa1da377a40f0f321ca2dc78360001b612c80565b7fffffffffffffffffffffffffffffffffffffffffffffffffffffffffffffffff9150505b92915050565b828054828255906000526020600020908101928215613065579160200282015b82811115613064578251825591602001919060010190613049565b5b509050613072919061313f565b5090565b6040518060e001604052806060815260200160608152602001600081526020016000815260200160001515815260200160008152602001606081525090565b82805482825590600052602060002090810192821561312e579160200282015b8281111561312d5782518260006101000a81548173ffffffffffffffffffffffffffffffffffffffff021916908373ffffffffffffffffffffffffffffffffffffffff160217905550916020019190600101906130d5565b5b50905061313b919061313f565b5090565b5b80821115613158576000816000905550600101613140565b5090565b600061316f61316a846139e5565b6139b4565b9050808382526020820190508285602086028201111561318e57600080fd5b60005b858110156131be57816131a488826131c8565b845260208401935060208301925050600181019050613191565b5050509392505050565b6000813590506131d781613cc7565b92915050565b600082601f8301126131ee57600080fd5b81356131fe84826020860161315c565b91505092915050565b60008135905061321681613cde565b92915050565b6000806040838503121561322f57600080fd5b600061323d858286016131c8565b925050602061324e85828601613207565b9150509250929050565b60006020828403121561326a57600080fd5b600082013567ffffffffffffffff81111561328457600080fd5b613290848285016131dd565b91505092915050565b6000602082840312156132ab57600080fd5b60006132b984828501613207565b91505092915050565b600080604083850312156132d557600080fd5b60006132e385828601613207565b92505060206132f4858286016131c8565b9150509250929050565b600061330a838361332e565b60208301905092915050565b600061332283836137f4565b60208301905092915050565b61333781613ba9565b82525050565b61334681613ba9565b82525050565b600061335782613a31565b6133618185613a61565b935061336c83613a11565b8060005b8381101561339d57815161338488826132fe565b975061338f83613a47565b925050600181019050613370565b5085935050505092915050565b60006133b582613a3c565b6133bf8185613a72565b93506133ca83613a21565b8060005b838110156133fb5781516133e28882613316565b97506133ed83613a54565b9250506001810190506133ce565b5085935050505092915050565b61341181613bbb565b82525050565b61342081613bbb565b82525050565b6000613433602a83613a83565b91507f41206e65772062616c6c6f742073686f756c6420636f6e7461696e203e3d203260008301527f2070726f706f73616c73000000000000000000000000000000000000000000006020830152604082019050919050565b6000613499602083613a83565b91507f4e65656420746f206465706f73697420302e30312045544820746f20766f74656000830152602082019050919050565b60006134d9602483613a83565b91507f5468657265206e6f20737563682070726f706f73616c20696e2074686520626160008301527f6c6c6f74000000000000000000000000000000000000000000000000000000006020830152604082019050919050565b600061353f601883613a83565b91507f5468652062616c6c6f7420646f65736e277420657869737400000000000000006000830152602082019050919050565b600061357f602483613a83565b91507f5468652073656e64657220646f65736e27742068617665206f776e657220726960008301527f67687473000000000000000000000000000000000000000000000000000000006020830152604082019050919050565b60006135e5602583613a83565b91507f5468652062616c6c6f742068617320616c7265616479206265656e20636f6d7060008301527f6c657465640000000000000000000000000000000000000000000000000000006020830152604082019050919050565b600061364b602483613a83565b91507f5468652062616c6c6f74206861736e2774206265656e20636f6d706c6574656460008301527f20796574000000000000000000000000000000000000000000000000000000006020830152604082019050919050565b60006136b1601b83613a83565b91507f54686520766f7465722068617320616c726561647920766f74656400000000006000830152602082019050919050565b60006136f1602d83613a83565b91507f5468652062616c6c6f742063616e20626520636f6d706c65746564206166746560008301527f7220332064617973206f6e6c79000000000000000000000000000000000000006020830152604082019050919050565b600060e0830160008301518482036000860152613767828261334c565b9150506020830151848203602086015261378182826133aa565b915050604083015161379660408601826137f4565b5060608301516137a960608601826137f4565b5060808301516137bc6080860182613408565b5060a08301516137cf60a08601826137f4565b5060c083015184820360c08601526137e782826133aa565b9150508091505092915050565b6137fd81613be7565b82525050565b61380c81613be7565b82525050565b6000602082019050613827600083018461333d565b92915050565b6000602082019050818103600083015261384681613426565b9050919050565b600060208201905081810360008301526138668161348c565b9050919050565b60006020820190508181036000830152613886816134cc565b9050919050565b600060208201905081810360008301526138a681613532565b9050919050565b600060208201905081810360008301526138c681613572565b9050919050565b600060208201905081810360008301526138e6816135d8565b9050919050565b600060208201905081810360008301526139068161363e565b9050919050565b60006020820190508181036000830152613926816136a4565b9050919050565b60006020820190508181036000830152613946816136e4565b9050919050565b60006020820190508181036000830152613967818461374a565b905092915050565b60006080820190506139846000830187613803565b6139916020830186613803565b61399e6040830185613417565b6139ab6060830184613803565b95945050505050565b6000604051905081810181811067ffffffffffffffff821117156139db576139da613c98565b5b8060405250919050565b600067ffffffffffffffff821115613a00576139ff613c98565b5b602082029050602081019050919050565b6000819050602082019050919050565b6000819050602082019050919050565b600081519050919050565b600081519050919050565b6000602082019050919050565b6000602082019050919050565b600082825260208201905092915050565b600082825260208201905092915050565b600082825260208201905092915050565b6000613a9f82613be7565b9150613aaa83613be7565b9250827fffffffffffffffffffffffffffffffffffffffffffffffffffffffffffffffff03821115613adf57613ade613c3a565b5b828201905092915050565b6000613af582613be7565b9150613b0083613be7565b925082613b1057613b0f613c69565b5b828204905092915050565b6000613b2682613be7565b9150613b3183613be7565b9250817fffffffffffffffffffffffffffffffffffffffffffffffffffffffffffffffff0483118215151615613b6a57613b69613c3a565b5b828202905092915050565b6000613b8082613be7565b9150613b8b83613be7565b925082821015613b9e57613b9d613c3a565b5b828203905092915050565b6000613bb482613bc7565b9050919050565b60008115159050919050565b600073ffffffffffffffffffffffffffffffffffffffff82169050919050565b6000819050919050565b6000613bfc82613be7565b91507fffffffffffffffffffffffffffffffffffffffffffffffffffffffffffffffff821415613c2f57613c2e613c3a565b5b600182019050919050565b7f4e487b7100000000000000000000000000000000000000000000000000000000600052601160045260246000fd5b7f4e487b7100000000000000000000000000000000000000000000000000000000600052601260045260246000fd5b7f4e487b7100000000000000000000000000000000000000000000000000000000600052604160045260246000fd5b613cd081613ba9565b8114613cdb57600080fd5b50565b613ce781613be7565b8114613cf257600080fd5b5056fea2646970667358221220a51db4f26798fdd590ff26e2589e5b520baa48c2425512ce791e8d4fd3eeee9664736f6c63430008000033",
  "linkReferences": {},
  "deployedLinkReferences": {}
}