{
  "_format": "hh-sol-artifact-1",
  "contractName": "Ballots",
  "sourceName": "contracts/Ballots.sol",
  "abi": [
    {
      "inputs": [],
      "stateMutability": "nonpayable",
      "type": "constructor"
    },
    {
      "inputs": [
        {
          "internalType": "uint256",
          "name": "",
          "type": "uint256"
        }
      ],
      "name": "ballots",
      "outputs": [
        {
          "internalType": "uint256",
          "name": "fund",
          "type": "uint256"
        },
        {
          "internalType": "uint256",
          "name": "created",
          "type": "uint256"
        },
        {
          "internalType": "bool",
          "name": "isCompleted",
          "type": "bool"
        },
        {
          "internalType": "uint256",
          "name": "winnerScore",
          "type": "uint256"
        }
      ],
      "stateMutability": "view",
      "type": "function"
    },
    {
      "inputs": [
        {
          "internalType": "uint256",
          "name": "ballotID",
          "type": "uint256"
        }
      ],
      "name": "completeBallot",
      "outputs": [],
      "stateMutability": "nonpayable",
      "type": "function"
    },
    {
      "inputs": [
        {
          "internalType": "address[]",
          "name": "proposalAddrs",
          "type": "address[]"
        }
      ],
      "name": "createBallot",
      "outputs": [],
      "stateMutability": "nonpayable",
      "type": "function"
    },
    {
      "inputs": [
        {
          "internalType": "uint256",
          "name": "ballotID",
          "type": "uint256"
        }
      ],
      "name": "getBallotInfo",
      "outputs": [
        {
          "components": [
            {
              "internalType": "address[]",
              "name": "proposals",
              "type": "address[]"
            },
            {
              "internalType": "uint256[]",
              "name": "scores",
              "type": "uint256[]"
            },
            {
              "internalType": "uint256",
              "name": "fund",
              "type": "uint256"
            },
            {
              "internalType": "uint256",
              "name": "created",
              "type": "uint256"
            },
            {
              "internalType": "bool",
              "name": "isCompleted",
              "type": "bool"
            },
            {
              "internalType": "uint256",
              "name": "winnerScore",
              "type": "uint256"
            },
            {
              "internalType": "uint256[]",
              "name": "winnerIndexes",
              "type": "uint256[]"
            }
          ],
          "internalType": "struct Ballots.Ballot",
          "name": "",
          "type": "tuple"
        }
      ],
      "stateMutability": "view",
      "type": "function"
    },
    {
      "inputs": [
        {
          "internalType": "address",
          "name": "voter",
          "type": "address"
        },
        {
          "internalType": "uint256",
          "name": "ballotID",
          "type": "uint256"
        }
      ],
      "name": "getVoterBallotVote",
      "outputs": [
        {
          "internalType": "address",
          "name": "",
          "type": "address"
        }
      ],
      "stateMutability": "view",
      "type": "function"
    },
    {
      "inputs": [],
      "name": "owner",
      "outputs": [
        {
          "internalType": "address",
          "name": "",
          "type": "address"
        }
      ],
      "stateMutability": "view",
      "type": "function"
    },
    {
      "inputs": [
        {
          "internalType": "uint256",
          "name": "ballotID",
          "type": "uint256"
        },
        {
          "internalType": "address",
          "name": "proposalAddr",
          "type": "address"
        }
      ],
      "name": "vote",
      "outputs": [],
      "stateMutability": "payable",
      "type": "function"
    },
    {
      "inputs": [
        {
          "internalType": "address",
          "name": "",
          "type": "address"
        },
        {
          "internalType": "uint256",
          "name": "",
          "type": "uint256"
        }
      ],
      "name": "voted",
      "outputs": [
        {
          "internalType": "address",
          "name": "",
          "type": "address"
        }
      ],
      "stateMutability": "view",
      "type": "function"
    },
    {
      "inputs": [
        {
          "internalType": "uint256",
          "name": "ballotID",
          "type": "uint256"
        }
      ],
      "name": "withdrawFee",
      "outputs": [],
      "stateMutability": "nonpayable",
      "type": "function"
    }
  ],
  "bytecode": "0x6080604052600a60015534801561001557600080fd5b50336000806101000a81548173ffffffffffffffffffffffffffffffffffffffff021916908373ffffffffffffffffffffffffffffffffffffffff16021790555061232e806100656000396000f3fe6080604052600436106100865760003560e01c8063481143a711610059578063481143a71461014a5780635c632b38146101735780638da5cb5b146101b3578063be357616146101de578063c591aa981461020757610086565b806302d947ef1461008b5780630bf6eee8146100a7578063141bd92a146100e45780633b2341cf14610121575b600080fd5b6100a560048036038101906100a091906118c5565b610244565b005b3480156100b357600080fd5b506100ce60048036038101906100c9919061181f565b6108b8565b6040516100db9190611e15565b60405180910390f35b3480156100f057600080fd5b5061010b6004803603810190610106919061189c565b61098e565b6040516101189190611f50565b60405180910390f35b34801561012d57600080fd5b506101486004803603810190610143919061185b565b610b8d565b005b34801561015657600080fd5b50610171600480360381019061016c919061189c565b610e40565b005b34801561017f57600080fd5b5061019a6004803603810190610195919061189c565b611238565b6040516101aa9493929190611f72565b60405180910390f35b3480156101bf57600080fd5b506101c8611275565b6040516101d59190611e15565b60405180910390f35b3480156101ea57600080fd5b506102056004803603810190610200919061189c565b611299565b005b34801561021357600080fd5b5061022e6004803603810190610229919061181f565b611481565b60405161023b9190611e15565b60405180910390f35b81600060036000838152602001908152602001600020600301541161029e576040517f08c379a000000000000000000000000000000000000000000000000000000000815260040161029590611e90565b60405180910390fd5b6000600360008581526020019081526020016000206040518060e00160405290816000820180548060200260200160405190810160405280929190818152602001828054801561034357602002820191906000526020600020905b8160009054906101000a900473ffffffffffffffffffffffffffffffffffffffff1673ffffffffffffffffffffffffffffffffffffffff16815260200190600101908083116102f9575b505050505081526020016001820180548060200260200160405190810160405280929190818152602001828054801561039b57602002820191906000526020600020905b815481526020019060010190808311610387575b5050505050815260200160028201548152602001600382015481526020016004820160009054906101000a900460ff16151515158152602001600582015481526020016006820180548060200260200160405190810160405280929190818152602001828054801561042c57602002820191906000526020600020905b815481526020019060010190808311610418575b505050505081525050905080608001511561047c576040517f08c379a000000000000000000000000000000000000000000000000000000000815260040161047390611ed0565b60405180910390fd5b662386f26fc1000034146104c5576040517f08c379a00000000000000000000000000000000000000000000000000000000081526004016104bc90611e50565b60405180910390fd5b600073ffffffffffffffffffffffffffffffffffffffff16600260003373ffffffffffffffffffffffffffffffffffffffff1673ffffffffffffffffffffffffffffffffffffffff168152602001908152602001600020600086815260200190815260200160002060009054906101000a900473ffffffffffffffffffffffffffffffffffffffff1673ffffffffffffffffffffffffffffffffffffffff16146105a4576040517f08c379a000000000000000000000000000000000000000000000000000000000815260040161059b90611f10565b60405180910390fd5b60006105b085856114c3565b90507fffffffffffffffffffffffffffffffffffffffffffffffffffffffffffffffff811415610615576040517f08c379a000000000000000000000000000000000000000000000000000000000815260040161060c90611e70565b60405180910390fd5b662386f26fc100006003600087815260200190815260200160002060020160008282546106429190612097565b925050819055506001600360008781526020019081526020016000206001018281548110610699577f4e487b7100000000000000000000000000000000000000000000000000000000600052603260045260246000fd5b9060005260206000200160008282546106b29190612097565b925050819055506000600360008781526020019081526020016000206001018281548110610709577f4e487b7100000000000000000000000000000000000000000000000000000000600052603260045260246000fd5b906000526020600020015490508260a001518110610821578260a001518111156107e357600067ffffffffffffffff81111561076e577f4e487b7100000000000000000000000000000000000000000000000000000000600052604160045260246000fd5b60405190808252806020026020018201604052801561079c5781602001602082028036833780820191505090505b506003600088815260200190815260200160002060060190805190602001906107c692919061162c565b508060036000888152602001908152602001600020600501819055505b600360008781526020019081526020016000206006018290806001815401808255809150506001900390600052602060002001600090919091909150555b84600260003373ffffffffffffffffffffffffffffffffffffffff1673ffffffffffffffffffffffffffffffffffffffff168152602001908152602001600020600088815260200190815260200160002060006101000a81548173ffffffffffffffffffffffffffffffffffffffff021916908373ffffffffffffffffffffffffffffffffffffffff160217905550505050505050565b6000816000600360008381526020019081526020016000206003015411610914576040517f08c379a000000000000000000000000000000000000000000000000000000000815260040161090b90611e90565b60405180910390fd5b600260008573ffffffffffffffffffffffffffffffffffffffff1673ffffffffffffffffffffffffffffffffffffffff168152602001908152602001600020600084815260200190815260200160002060009054906101000a900473ffffffffffffffffffffffffffffffffffffffff1691505092915050565b610996611679565b8160006003600083815260200190815260200160002060030154116109f0576040517f08c379a00000000000000000000000000000000000000000000000000000000081526004016109e790611e90565b60405180910390fd5b600360008481526020019081526020016000206040518060e001604052908160008201805480602002602001604051908101604052809291908181526020018280548015610a9357602002820191906000526020600020905b8160009054906101000a900473ffffffffffffffffffffffffffffffffffffffff1673ffffffffffffffffffffffffffffffffffffffff1681526020019060010190808311610a49575b5050505050815260200160018201805480602002602001604051908101604052809291908181526020018280548015610aeb57602002820191906000526020600020905b815481526020019060010190808311610ad7575b5050505050815260200160028201548152602001600382015481526020016004820160009054906101000a900460ff161515151581526020016005820154815260200160068201805480602002602001604051908101604052809291908181526020018280548015610b7c57602002820191906000526020600020905b815481526020019060010190808311610b68575b505050505081525050915050919050565b60008054906101000a900473ffffffffffffffffffffffffffffffffffffffff1673ffffffffffffffffffffffffffffffffffffffff163373ffffffffffffffffffffffffffffffffffffffff1614610c1b576040517f08c379a0000000000000000000000000000000000000000000000000000000008152600401610c1290611eb0565b60405180910390fd5b600281511015610c60576040517f08c379a0000000000000000000000000000000000000000000000000000000008152600401610c5790611e30565b60405180910390fd5b600060046000815480929190610c75906121f4565b9190505590506040518060e00160405280838152602001835167ffffffffffffffff811115610ccd577f4e487b7100000000000000000000000000000000000000000000000000000000600052604160045260246000fd5b604051908082528060200260200182016040528015610cfb5781602001602082028036833780820191505090505b5081526020016000815260200142815260200160001515815260200160008152602001600067ffffffffffffffff811115610d5f577f4e487b7100000000000000000000000000000000000000000000000000000000600052604160045260246000fd5b604051908082528060200260200182016040528015610d8d5781602001602082028036833780820191505090505b50815250600360008381526020019081526020016000206000820151816000019080519060200190610dc09291906116b8565b506020820151816001019080519060200190610ddd92919061162c565b50604082015181600201556060820151816003015560808201518160040160006101000a81548160ff02191690831515021790555060a0820151816005015560c0820151816006019080519060200190610e3892919061162c565b509050505050565b806000600360008381526020019081526020016000206003015411610e9a576040517f08c379a0000000000000000000000000000000000000000000000000000000008152600401610e9190611e90565b60405180910390fd5b60004290506000600360008581526020019081526020016000206040518060e001604052908160008201805480602002602001604051908101604052809291908181526020018280548015610f4457602002820191906000526020600020905b8160009054906101000a900473ffffffffffffffffffffffffffffffffffffffff1673ffffffffffffffffffffffffffffffffffffffff1681526020019060010190808311610efa575b5050505050815260200160018201805480602002602001604051908101604052809291908181526020018280548015610f9c57602002820191906000526020600020905b815481526020019060010190808311610f88575b5050505050815260200160028201548152602001600382015481526020016004820160009054906101000a900460ff16151515158152602001600582015481526020016006820180548060200260200160405190810160405280929190818152602001828054801561102d57602002820191906000526020600020905b815481526020019060010190808311611019575b50505050508152505090506203f48081606001518361104c9190612178565b101561108d576040517f08c379a000000000000000000000000000000000000000000000000000000000815260040161108490611f30565b60405180910390fd5b60016003600086815260200190815260200160002060040160006101000a81548160ff02191690831515021790555060008160c001515190506000811115611231576000606460015460646110e29190612178565b84604001516110f1919061211e565b6110fb91906120ed565b9050806003600088815260200190815260200160002060020160008282546111239190612178565b925050819055506000828261113891906120ed565b905060005b8381101561122d57600085600001518660c001518381518110611189577f4e487b7100000000000000000000000000000000000000000000000000000000600052603260045260246000fd5b6020026020010151815181106111c8577f4e487b7100000000000000000000000000000000000000000000000000000000600052603260045260246000fd5b602002602001015190508073ffffffffffffffffffffffffffffffffffffffff166108fc849081150290604051600060405180830381858888f19350505050158015611218573d6000803e3d6000fd5b50508080611225906121f4565b91505061113d565b5050505b5050505050565b60036020528060005260406000206000915090508060020154908060030154908060040160009054906101000a900460ff16908060050154905084565b60008054906101000a900473ffffffffffffffffffffffffffffffffffffffff1681565b60008054906101000a900473ffffffffffffffffffffffffffffffffffffffff1673ffffffffffffffffffffffffffffffffffffffff163373ffffffffffffffffffffffffffffffffffffffff1614611327576040517f08c379a000000000000000000000000000000000000000000000000000000000815260040161131e90611eb0565b60405180910390fd5b806000600360008381526020019081526020016000206003015411611381576040517f08c379a000000000000000000000000000000000000000000000000000000000815260040161137890611e90565b60405180910390fd5b6003600083815260200190815260200160002060040160009054906101000a900460ff166113e4576040517f08c379a00000000000000000000000000000000000000000000000000000000081526004016113db90611ef0565b60405180910390fd5b60008054906101000a900473ffffffffffffffffffffffffffffffffffffffff1673ffffffffffffffffffffffffffffffffffffffff166108fc60036000858152602001908152602001600020600201549081150290604051600060405180830381858888f19350505050158015611460573d6000803e3d6000fd5b50600060036000848152602001908152602001600020600201819055505050565b60026020528160005260406000206020528060005260406000206000915091509054906101000a900473ffffffffffffffffffffffffffffffffffffffff1681565b6000806003600085815260200190815260200160002060000180548060200260200160405190810160405280929190818152602001828054801561155c57602002820191906000526020600020905b8160009054906101000a900473ffffffffffffffffffffffffffffffffffffffff1673ffffffffffffffffffffffffffffffffffffffff1681526020019060010190808311611512575b5050505050905060005b8151811015611600578373ffffffffffffffffffffffffffffffffffffffff168282815181106115bf577f4e487b7100000000000000000000000000000000000000000000000000000000600052603260045260246000fd5b602002602001015173ffffffffffffffffffffffffffffffffffffffff1614156115ed578092505050611626565b80806115f8906121f4565b915050611566565b507fffffffffffffffffffffffffffffffffffffffffffffffffffffffffffffffff9150505b92915050565b828054828255906000526020600020908101928215611668579160200282015b8281111561166757825182559160200191906001019061164c565b5b5090506116759190611742565b5090565b6040518060e001604052806060815260200160608152602001600081526020016000815260200160001515815260200160008152602001606081525090565b828054828255906000526020600020908101928215611731579160200282015b828111156117305782518260006101000a81548173ffffffffffffffffffffffffffffffffffffffff021916908373ffffffffffffffffffffffffffffffffffffffff160217905550916020019190600101906116d8565b5b50905061173e9190611742565b5090565b5b8082111561175b576000816000905550600101611743565b5090565b600061177261176d84611fe8565b611fb7565b9050808382526020820190508285602086028201111561179157600080fd5b60005b858110156117c157816117a788826117cb565b845260208401935060208301925050600181019050611794565b5050509392505050565b6000813590506117da816122ca565b92915050565b600082601f8301126117f157600080fd5b813561180184826020860161175f565b91505092915050565b600081359050611819816122e1565b92915050565b6000806040838503121561183257600080fd5b6000611840858286016117cb565b92505060206118518582860161180a565b9150509250929050565b60006020828403121561186d57600080fd5b600082013567ffffffffffffffff81111561188757600080fd5b611893848285016117e0565b91505092915050565b6000602082840312156118ae57600080fd5b60006118bc8482850161180a565b91505092915050565b600080604083850312156118d857600080fd5b60006118e68582860161180a565b92505060206118f7858286016117cb565b9150509250929050565b600061190d8383611931565b60208301905092915050565b60006119258383611df7565b60208301905092915050565b61193a816121ac565b82525050565b611949816121ac565b82525050565b600061195a82612034565b6119648185612064565b935061196f83612014565b8060005b838110156119a05781516119878882611901565b97506119928361204a565b925050600181019050611973565b5085935050505092915050565b60006119b88261203f565b6119c28185612075565b93506119cd83612024565b8060005b838110156119fe5781516119e58882611919565b97506119f083612057565b9250506001810190506119d1565b5085935050505092915050565b611a14816121be565b82525050565b611a23816121be565b82525050565b6000611a36602a83612086565b91507f41206e65772062616c6c6f742073686f756c6420636f6e7461696e203e3d203260008301527f2070726f706f73616c73000000000000000000000000000000000000000000006020830152604082019050919050565b6000611a9c602083612086565b91507f4e65656420746f206465706f73697420302e30312045544820746f20766f74656000830152602082019050919050565b6000611adc602483612086565b91507f5468657265206e6f20737563682070726f706f73616c20696e2074686520626160008301527f6c6c6f74000000000000000000000000000000000000000000000000000000006020830152604082019050919050565b6000611b42601883612086565b91507f5468652062616c6c6f7420646f65736e277420657869737400000000000000006000830152602082019050919050565b6000611b82602483612086565b91507f5468652073656e64657220646f65736e27742068617665206f776e657220726960008301527f67687473000000000000000000000000000000000000000000000000000000006020830152604082019050919050565b6000611be8602583612086565b91507f5468652062616c6c6f742068617320616c7265616479206265656e20636f6d7060008301527f6c657465640000000000000000000000000000000000000000000000000000006020830152604082019050919050565b6000611c4e602483612086565b91507f5468652062616c6c6f74206861736e2774206265656e20636f6d706c6574656460008301527f20796574000000000000000000000000000000000000000000000000000000006020830152604082019050919050565b6000611cb4601b83612086565b91507f54686520766f7465722068617320616c726561647920766f74656400000000006000830152602082019050919050565b6000611cf4602d83612086565b91507f5468652062616c6c6f742063616e20626520636f6d706c65746564206166746560008301527f7220332064617973206f6e6c79000000000000000000000000000000000000006020830152604082019050919050565b600060e0830160008301518482036000860152611d6a828261194f565b91505060208301518482036020860152611d8482826119ad565b9150506040830151611d996040860182611df7565b506060830151611dac6060860182611df7565b506080830151611dbf6080860182611a0b565b5060a0830151611dd260a0860182611df7565b5060c083015184820360c0860152611dea82826119ad565b9150508091505092915050565b611e00816121ea565b82525050565b611e0f816121ea565b82525050565b6000602082019050611e2a6000830184611940565b92915050565b60006020820190508181036000830152611e4981611a29565b9050919050565b60006020820190508181036000830152611e6981611a8f565b9050919050565b60006020820190508181036000830152611e8981611acf565b9050919050565b60006020820190508181036000830152611ea981611b35565b9050919050565b60006020820190508181036000830152611ec981611b75565b9050919050565b60006020820190508181036000830152611ee981611bdb565b9050919050565b60006020820190508181036000830152611f0981611c41565b9050919050565b60006020820190508181036000830152611f2981611ca7565b9050919050565b60006020820190508181036000830152611f4981611ce7565b9050919050565b60006020820190508181036000830152611f6a8184611d4d565b905092915050565b6000608082019050611f876000830187611e06565b611f946020830186611e06565b611fa16040830185611a1a565b611fae6060830184611e06565b95945050505050565b6000604051905081810181811067ffffffffffffffff82111715611fde57611fdd61229b565b5b8060405250919050565b600067ffffffffffffffff8211156120035761200261229b565b5b602082029050602081019050919050565b6000819050602082019050919050565b6000819050602082019050919050565b600081519050919050565b600081519050919050565b6000602082019050919050565b6000602082019050919050565b600082825260208201905092915050565b600082825260208201905092915050565b600082825260208201905092915050565b60006120a2826121ea565b91506120ad836121ea565b9250827fffffffffffffffffffffffffffffffffffffffffffffffffffffffffffffffff038211156120e2576120e161223d565b5b828201905092915050565b60006120f8826121ea565b9150612103836121ea565b9250826121135761211261226c565b5b828204905092915050565b6000612129826121ea565b9150612134836121ea565b9250817fffffffffffffffffffffffffffffffffffffffffffffffffffffffffffffffff048311821515161561216d5761216c61223d565b5b828202905092915050565b6000612183826121ea565b915061218e836121ea565b9250828210156121a1576121a061223d565b5b828203905092915050565b60006121b7826121ca565b9050919050565b60008115159050919050565b600073ffffffffffffffffffffffffffffffffffffffff82169050919050565b6000819050919050565b60006121ff826121ea565b91507fffffffffffffffffffffffffffffffffffffffffffffffffffffffffffffffff8214156122325761223161223d565b5b600182019050919050565b7f4e487b7100000000000000000000000000000000000000000000000000000000600052601160045260246000fd5b7f4e487b7100000000000000000000000000000000000000000000000000000000600052601260045260246000fd5b7f4e487b7100000000000000000000000000000000000000000000000000000000600052604160045260246000fd5b6122d3816121ac565b81146122de57600080fd5b50565b6122ea816121ea565b81146122f557600080fd5b5056fea2646970667358221220270c7227db86d7f486b6501811d2d4dde5967c36faac7dd9719baaeaaf950a9a64736f6c63430008000033",
  "linkReferences": {},
  "deployedLinkReferences": {}
}